:020000040800F2
:100000007004002045010008D3030008CB0300085A
:10001000CF0300088D0100087D07000800000000E4
:100020000000000000000000000000009D04000827
:10003000910100080000000059040008BD050008F7
:100040005F0100085F0100085F0100085F01000810
:100050005F0100085F010008930100085F010008CC
:100060005F0100085F0100085F0100085F010008F0
:100070005F0100085F0100085F0100085F010008E0
:100080005F0100085F0100085F0100085F010008D0
:100090005F0100085F0100085F0100085F010008C0
:1000A0005F0100085F0100085F0100085F010008B0
:1000B0005F0100085F010008650600085F01000895
:1000C0005F0100085F0100085F0100085F01000890
:1000D0005F0100085F0100085F0100085F01000880
:1000E0005F0100085F0100085F0100085F01000870
:1000F0005F0100085F0100085F0100085F01000860
:100100005F0100085F0100085F0100085F0100084F
:100110005F0100085F0100085F0100085F0100083F
:100120005F0100085F0100085F0100085F0100082F
:10013000DFF80CD000F018F800480047510A00081A
:10014000700400200648804706480047FEE7FEE7A7
:10015000FEE7FEE7FEE7FEE7FEE7FEE7FEE7FEE777
:100160000506000831010008064C074D06E0E0686E
:1001700040F0010394E8070098471034AC42F6D3EE
:10018000FFF7DAFF680A0008880A000800BFFEE7E8
:10019000704710B5012000F00FF8012801D100F0E0
:1001A00013FB012000F002F810BD000001490860B7
:1001B0007047000014040140014600200022074B54
:1001C0001B6803EA0102054B14331B680B4013B193
:1001D0000AB1012000E00020704700000004014047
:1001E000002123498279002A3AD00A46126803681E
:1001F0009A430B461A600A1D126803689A430B1D46
:100200001A60027911440A6803681A430A60184A9E
:100210000832126803689A43154B08331A601A1D96
:10022000126803689A43124B0C331A604279102A01
:100230000ED11A1F126803681A430D4B08331A6057
:100240001A1D126803681A43094B0C331A600DE03B
:100250000749427911440A6803681A430A6005E0B5
:10026000027911440A6803689A430A6070470000E3
:100270000004014030B500228B071C0F0F2303FA46
:1002800004F20B4B8C1053F824309343084C8D1020
:1002900044F8253023468C1053F824308C07240F63
:1002A00000FA04F42343024C8D1044F8253030BD8D
:1002B000080001402DE9F0410246002500260020FB
:1002C00000230024002791F803C00CF00F0591F8DB
:1002D00003C00CF0100CBCF1000F03D091F802C069
:1002E0004CEA050591F800C0BCF1000F31D014684C
:1002F00000202BE04FF0010C0CFA00F3B1F800C025
:100300000CEA03069E4220D183004FF00F0C0CFA3A
:1003100003F7BC4305FA03FC4CEA040491F803C05C
:10032000BCF1280F06D14FF0010C0CFA00FCC2F80A
:1003300014C00AE091F803C0BCF1480F05D14FF09A
:10034000010C0CFA00FCC2F810C0401C0828D1D3E4
:100350001460B1F800C0BCF1FF0F34DD5468002018
:100360002EE000F1080C4FF0010808FA0CF3B1F888
:1003700000C00CEA03069E4221D183004FF00F0C0F
:100380000CFA03F7BC4305FA03FC4CEA040491F8A9
:1003900003C0BCF1280F05D100F1080C08FA0CF8D5
:1003A000C2F8148091F803C0BCF1480F07D100F1E6
:1003B000080C4FF0010808FA0CF8C2F81080401C35
:1003C0000828CED35460BDE8F08100BFFEE700BF2F
:1003D000FEE7704770B5002100230F22C47804B3F4
:1003E000154C246804F4E064C4F5E064210AC1F10A
:1003F0000403CA40447804FA03F18478144021438A
:1004000009010E4C0678A155047804F01F0501245B
:10041000AC4005786D11AD0005F1E025C5F800414F
:1004200009E0047804F01F050124AC40044D06786F
:10043000761145F8264070BD0CED00E000E400E0C8
:1004400080E100E002490143024A11607047000068
:100450000000FA050CED00E07047000029B1064AE3
:10046000D2690243044BDA6104E0034AD269824351
:10047000014BDA61704700000010024029B1064AC2
:1004800092690243044B9A6104E0034A92698243F1
:10049000014B9A617047000000100240704710B590
:1004A00000F002F810BD00000CB500200190009093
:1004B0003348006840F480303149086000BF30485C
:1004C000006800F4003000900198401C01900098F2
:1004D00018B90198B0F5A06FF1D12948006800F46F
:1004E000003010B10120009001E000200090009841
:1004F000012843D12348006840F0100021490860DA
:100500000846006820F0030008600846006840F0D4
:10051000020008601A484068194948600846406867
:1005200048600846406840F480604860084640687B
:1005300020F47C1048600846406840F4E8104860A9
:100540000846006840F08070086000BF0C480068F2
:1005500000F000700028F9D00948406820F003003E
:10056000074948600846406840F00200486000BF04
:100570000348406800F00C000828F9D10CBD0000C9
:10058000001002400020024001200149087070471D
:1005900000000020042808D14FF0E021096941F053
:1005A00004014FF0E022116107E04FF0E0210969FA
:1005B00021F004014FF0E022116170477047000004
:1005C00010B5044601200C490870801FFFF7E2FFB8
:1005D000E11704EB5171C1F3C701084A11701046CD
:1005E000007800EB4001C1EBC0104FF6FF7101EA4B
:1005F000C0000349088010BD000000200100002059
:100600000200002010B51348006840F001001149B5
:10061000086008464068104908400E49486008468E
:1006200000680E4908400B4908600846006820F43D
:10063000802008600846406820F4FE0048604FF4BF
:100640001F008860FFF72BFF4FF00060044908602F
:1006500010BD0000001002400000FFF8FFFFF6FE92
:1006600008ED00E010B50121054800F01AF808B1C6
:1006700000F086F80121024800F004F810BD0000E7
:1006800000080040CA430282704721B1028842F04C
:100690000102028004E002884FF6FE731A400280D5
:1006A000704730B50246002000230024158A05EA71
:1006B0000103958905EA010413B10CB1012000E0A2
:1006C000002030BD1AB183890B43838102E0838906
:1006D0008B43838170470000002202881D4B9842A3
:1006E0000ED01D4B98420BD0B0F1804F08D01B4B61
:1006F000984205D01A4B984202D01A4B984204D126
:100700004FF68F731A404B881A43174B984207D005
:10071000164B984204D04FF6FF431A40CB881A4339
:1007200002808B8883850B8803850A4B98420BD007
:10073000094B984208D00E4B984205D00D4B984279
:1007400002D00D4B984201D10B7A0386012383829C
:1007500070470000002C01400034014000040040BC
:1007600000080040000C0040001000400014004051
:1007700000400140004401400048014000BFFEE746
:1007800010B501210E48FFF77DFF0E4800880028B4
:1007900014DD0C480088401E0A490880002000F043
:1007A0005FF8322000F022F9002000F06DF80548D3
:1007B000008818B900210248FFF767FF10BD00004C
:1007C000000800405600002010B500F0C1F810BD30
:1007D00070B505460C4601212068FFF74FFE617990
:1007E0002079FFF747FDE01DFFF7F4FD04F10C0051
:1007F000FFF7F6FC70BD10B504464820FFF7E0FE99
:100800004FF4A060FFF71EFE204600F0B1F810BDC7
:1008100038B504460D460120207065606068407C54
:100820000E4941F820406068007C012803D128204F
:100830008DF8030002E048208DF80300606800890D
:10084000ADF80000616808680121FFF717FE6168D4
:1008500048686946FFF72EFD204638BD600000203D
:1008600010B50446024951F8240000F008F810BD04
:100870005800002000210268D268116070470121F1
:100880000268D2681160704710B50446024951F8F9
:100890002400FFF7EFFF10BD5800002038B50446D4
:1008A0000D4625602068007C0E4941F82040032059
:1008B0008DF8020010208DF8030020680089ADF843
:1008C0000000216808680121FFF7D8FD2168486809
:1008D0006946FFF7EFFC01202168C96808602046DF
:1008E00038BD0000580000207FB506460C4615466E
:1008F00001210420FFF7B2FDADF80840ADF8045027
:100900000020ADF80A00ADF8060001A90F48FFF776
:10091000E3FE012211460D48FFF7D4FE01210B48EA
:10092000FFF7B0FE1E208DF8000002208DF80100B8
:1009300003208DF8020001208DF803006846FFF7C0
:1009400049FD00210148FFF7A0FE7FBD00080040DF
:1009500010B50020FFF798FF0A2003490880012105
:100960000248FFF792FE10BD56000020000800402C
:1009700010B5044641F61F4242F20F7104F1100017
:10098000FFF7B2FF024904F11100FFF721FF10BD8C
:100990004000002010B5044609492046FFF77EFFBD
:1009A00004460849201DFFF779FF041F064904F19A
:1009B0000800FFF72DFFA0F10804204610BD00003D
:1009C000180000202C0000200400002002E008C8CD
:1009D000121F08C1002AFAD170477047002001E0B9
:1009E00001C1121F002AFBD17047000070B50546F7
:1009F0001548007820B94820FFF7E2FDFFF7C4FD55
:100A00001248008868434FF0E02148610020886167
:100A10000846006940F00100086100BF4FF0E02087
:100A2000046904F0010018B104F480300028F5D006
:100A30004FF0E020006920F001004FF0E021086154
:100A40000020886170BD000000000020020000202E
:100A500086B001AC2046FFF79DFF044600BF01A809
:100A6000FFF7C9FE00BFFEE7880A0008000000206B
:100A700060000000CC090008E80A000860000020BF
:100A800010040000DC090008000000000400000061
:100A900000080140010000000001214201030000A4
:100AA00008000000000C0140200000009481214259
:100AB000000000004000000000180140200000007D
:100AC0009401234201000000010000000000000624
:100AD0000203010001000000000801000000000006
:080AE00000000000000000000E
:0400000508000131BD
:00000001FF
