:020000040800F2
:100000001004002045010008A1040008E9020008CE
:100010009D040008C5010008F1060008000000006A
:10002000000000000000000000000000C5040008FF
:10003000C901000800000000A304000849060008E8
:100040005F0100085F0100085F0100085F01000810
:100050005F0100085F0100085F0100085F01000800
:100060005F0100085F0100085F0100085F010008F0
:100070005F0100085F0100085F0100085F010008E0
:100080005F0100085F0100085F0100085F010008D0
:100090005F0100085F0100085F0100085F010008C0
:1000A0005F0100085F0100085F0100085F010008B0
:1000B0005F0100085F0100085F0100085F010008A0
:1000C0005F0100085F0100085F0100085F01000890
:1000D0005F0100085F0100085F0100085F01000880
:1000E0005F0100085F0100085F0100085F01000870
:1000F0005F0100085F0100085F0100085F01000860
:100100005F0100085F0100085F0100085F0100084F
:100110005F0100085F0100085F0100085F0100083F
:100120005F0100085F0100085F0100085F0100082F
:10013000DFF80CD000F018F80048004779070008F5
:10014000100400200648804706480047FEE7FEE707
:10015000FEE7FEE7FEE7FEE7FEE7FEE7FEE7FEE777
:100160009106000831010008064C074D06E0E068E2
:1001700040F0010394E8070098471034AC42F6D3EE
:10018000FFF7DAFFD4070008F407000808B51020CD
:100190008DF803000001ADF8000003208DF8020087
:1001A0000121082000F07EF96946054800F00DF8AD
:1001B0004FF48071024800F093F800F005FA08BD92
:1001C000000C014000BFFEE770472DE9F0410246F8
:1001D00000250026002000230024002791F803C0FA
:1001E0000CF00F0591F803C00CF0100CBCF1000FDF
:1001F00003D091F802C04CEA050591F800C0BCF1AB
:10020000000F31D0146800202BE04FF0010C0CFAE5
:1002100000F3B1F800C00CEA03069E4220D183002F
:100220004FF00F0C0CFA03F7BC4305FA03FC4CEA41
:10023000040491F803C0BCF1280F06D14FF0010C63
:100240000CFA00FCC2F814C00AE091F803C0BCF13B
:10025000480F05D14FF0010C0CFA00FCC2F810C099
:10026000401C0828D1D31460B1F800C0BCF1FF0FC6
:1002700034DD546800202EE000F1080C4FF0010836
:1002800008FA0CF3B1F800C00CEA03069E4221D133
:1002900083004FF00F0C0CFA03F7BC4305FA03FC84
:1002A0004CEA040491F803C0BCF1280F05D100F119
:1002B000080C08FA0CF8C2F8148091F803C0BCF1DD
:1002C000480F07D100F1080C4FF0010808FA0CF8AC
:1002D000C2F81080401C0828CED35460BDE8F081DD
:1002E000416170470161704700BFFEE710B500F043
:1002F0002DF808B900F0A6F80C480078401C0B490E
:10030000087008460078142190FBF1F201FB1200FE
:1003100038B90748006808B9012000E00020044906
:1003200008600A2000F0F6F910BD0000040000206B
:1003300094812142014800787047000001000020AC
:100340000148007870470000020000200148007852
:10035000704700000000002038B56C4628208DF85A
:1003600003000120ADF800000121442000F09AF8BC
:1003700069460748FFF729FF4820E0701C202080CD
:1003800021460448FFF721FF00F024F938BD0000A2
:10039000000801400018014010B50446FFF7D0FFE7
:1003A00008B9FFF7D9FF012C02D1012022490870BA
:1003B00021480078012827D12048006801280AD068
:1003C0001F48006838B11E48001F006818B11C485B
:1003D00008380068C0B90A2000F09CF91748006886
:1003E000012800D110BD1648006808B90220F9E7BD
:1003F0001348001F006808B90320F3E710480838C5
:100400000068B8B90420EDE70B48007890B90B48B4
:10041000006878B90A48006801280BD10848001F15
:100420000068012806D1064808380068012801D173
:10043000014908700020D5E7030000200001214297
:100440001001234238B56C4603208DF802001020BD
:100450008DF803002020ADF800000121082000F0F5
:1004600021F869460B48FFF7B0FE20210948FFF745
:1004700039FF202020800121402000F013F8214680
:100480000548FFF7A2FE20210348FFF72BFF00F0ED
:10049000A7F838BD000C01400018014000BFFEE77E
:1004A0007047704729B1064A92690243044B9A612A
:1004B00004E0034A92698243014B9A61704700004D
:1004C00000100240704710B500F002F810BD0000A7
:1004D0000CB50020019000903348006840F4803053
:1004E0003149086000BF3048006800F400300090D7
:1004F0000198401C0190009818B90198B0F5A06FC0
:10050000F1D12948006800F4003010B101200090BA
:1005100001E0002000900098012843D123480068A2
:1005200040F01000214908600846006820F00300F0
:1005300008600846006840F0020008601A484068F9
:10054000194948600846406848600846406840F4D9
:10055000806048600846406820F47C104860084687
:10056000406840F4E81048600846006840F0807039
:10057000086000BF0C48006800F000700028F9D047
:100580000948406820F00300074948600846406871
:1005900040F00200486000BF0348406800F00C00D3
:1005A0000828F9D10CBD00000010024000200240D4
:1005B00010B50446FFF7BEFE08B9FFF7E7FD014896
:1005C000046010BDA08121420120014908707047DC
:1005D000010000200120014908707047020000203E
:1005E00001200149087070470000002001200149E6
:1005F000087070470600002070B505460C46FFF7EE
:10060000A5FE08B9FFF71EFF15B90348046001E015
:100610000248046070BD000094812142940123428D
:10062000042808D14FF0E021096941F004014FF09E
:10063000E022116107E04FF0E021096921F0040197
:100640004FF0E022116170477047000010B504467A
:1006500001200C490870801FFFF7E2FFE11704EB4F
:100660005171C1F3C701084A11701046007800EBC0
:100670004001C1EBC0104FF6FF7101EAC000034911
:10068000088010BD060000200700002008000020A0
:1006900010B51348006840F0010011490860084691
:1006A0004068104908400E494860084600680E49F5
:1006B00008400B4908600846006820F48020086064
:1006C0000846406820F4FE0048604FF41F00886030
:1006D000FFF7F9FE4FF000600449086010BD00000C
:1006E000001002400000FFF8FFFFF6FE08ED00E0FA
:1006F00000BFFEE702E008C8121F08C1002AFAD1B5
:1007000070477047002001E001C1121F002AFBD191
:100710007047000070B505461548007820B948209C
:10072000FFF794FFFFF762FF1248008868434FF01D
:10073000E0214861002088610846006940F001001E
:10074000086100BF4FF0E020046904F0010018B117
:1007500004F480300028F5D04FF0E020006920F04C
:1007600001004FF0E02108610020886170BD0000A9
:1007700006000020080000204820FFF767FFFFF771
:1007800061FEFFF703FDFFF7E7FD21E00020FFF723
:1007900003FE0446012C06D0022C09D0032C0BD0FA
:1007A000042C12D10DE000210120FFF725FF0CE001
:1007B0000120FFF7FDFE08E001210846FFF71CFFBE
:1007C00003E00020FFF7F4FE00BF00BFFFF78EFD3F
:1007D000DCE70000F4070008000000200C00000027
:1007E000F4060008000800080C00002004040000C3
:1007F00004070008000000010000000000000000E5
:0400000508000131BD
:00000001FF
