:020000040800F2
:100000000804002045010008210600085B050008DF
:100010001D060008C501000859090008000000007D
:10002000000000000000000000000000CD060008F5
:10003000C901000800000000A906000851080008D6
:100040005F0100085F0100085F0100085F01000810
:100050005F0100085F010008CD0100085F01000892
:10006000F901000825020008510200085F0100089C
:100070005F0100085F0100085F0100085F010008E0
:100080005F0100085F0100085F0100085F010008D0
:100090005F0100085F0100085F0100085F010008C0
:1000A0005F0100085F0100085F0100085F010008B0
:1000B0005F0100085F010008F90800085F010008FF
:1000C0005F0100085F0100085F0100085F01000890
:1000D0005F0100085F0100085F0100085F01000880
:1000E0005F0100085F0100085F0100085F01000870
:1000F0005F0100085F0100085F0100085F01000860
:100100005F0100085F0100085F0100085F0100084F
:100110005F0100085F0100085F0100085F0100083F
:100120005F0100085F0100085F0100085F0100082F
:10013000DFF80CD000F018F800480047E10900088B
:10014000080400200648804706480047FEE7FEE70F
:10015000FEE7FEE7FEE7FEE7FEE7FEE7FEE7FEE777
:100160009908000831010008064C074D06E0E068D8
:1001700040F0010394E8070098471034AC42F6D3EE
:10018000FFF7DAFF300A0008500A000808B510200F
:100190008DF803000001ADF8000003208DF8020087
:1001A0000121082000F082FA6946054800F046F96E
:1001B0004FF48071024800F0CCF900F009FB08BD53
:1001C000000C014000BFFEE77047000010B50120A1
:1001D00000F05AF8012809D10A2000F0CFFB0548A9
:1001E0000068012802D1002100F00AFB012000F084
:1001F00045F810BD0001214210B5042000F044F87C
:10020000012808D10A2000F0B9FB0548006810B9A0
:10021000012000F0D1FA042000F030F810BD0000F9
:100220000801234210B5082000F02EF8012809D15A
:100230000A2000F0A3FB0548006818B90121084610
:1002400000F0DEFA082000F019F810BD0C0123427E
:1002500010B5102000F018F8012808D10A2000F08D
:100260008DFB0548006810B9002000F0A5FA1020A9
:1002700000F004F810BD000010012342014908609D
:100280007047000014040140014600200022074B83
:100290001B6803EA0102054B14331B680B4013B1C2
:1002A0000AB1012000E00020704700000004014076
:1002B000002123498279002A3AD00A46126803684D
:1002C0009A430B461A600A1D126803689A430B1D75
:1002D0001A60027911440A6803681A430A60184ACE
:1002E0000832126803689A43154B08331A601A1DC6
:1002F000126803689A43124B0C331A604279102A31
:100300000ED11A1F126803681A430D4B08331A6086
:100310001A1D126803681A43094B0C331A600DE06A
:100320000749427911440A6803681A430A6005E0E4
:10033000027911440A6803689A430A607047000012
:1003400000040140FEB500F011F908B900F01AF9F7
:100350004FF4A06000F09EF90121084600F0A6F9D4
:100360000021084600F04AF80421084600F046F84B
:100370000321042000F042F80221042000F03EF89E
:1003800002AF02AC02AD06208DF8080002208DF805
:10039000090003208DF80A0001208DF80B0002A847
:1003A00000F040F90A2038700020B870384600F09C
:1003B00039F9092020700120A070204600F032F9A0
:1003C000082028700220A870284600F02BF96E46FD
:1003D0000120009000208DF8040008208DF8050011
:1003E00001208DF806006846FFF762FF1C20306090
:1003F0000C2070713046FFF75BFFFEBD30B5002268
:100400008B071C0F0F2303FA04F20B4B8C1053F8CD
:1004100024309343084C8D1044F8253023468C102B
:1004200053F824308C07240F00FA04F42343024CC1
:100430008D1044F8253030BD080001402DE9F04111
:10044000024600250026002000230024002791F802
:1004500003C00CF00F0591F803C00CF0100CBCF1B8
:10046000000F03D091F802C04CEA050591F800C0D6
:10047000BCF1000F31D0146800202BE04FF0010CCC
:100480000CFA00F3B1F800C00CEA03069E4220D13A
:1004900083004FF00F0C0CFA03F7BC4305FA03FC82
:1004A0004CEA040491F803C0BCF1280F06D14FF0C8
:1004B000010C0CFA00FCC2F814C00AE091F803C069
:1004C000BCF1480F05D14FF0010C0CFA00FCC2F84A
:1004D00010C0401C0828D1D31460B1F800C0BCF192
:1004E000FF0F34DD546800202EE000F1080C4FF0BF
:1004F000010808FA0CF3B1F800C00CEA03069E42AA
:1005000021D183004FF00F0C0CFA03F7BC4305FA1E
:1005100003FC4CEA040491F803C0BCF1280F05D198
:1005200000F1080C08FA0CF8C2F8148091F803C026
:10053000BCF1480F07D100F1080C4FF0010808FA90
:100540000CF8C2F81080401C0828CED35460BDE8D7
:10055000F081416170470161704700BFFEE7000014
:100560000148007870470000000000200148007832
:10057000704700000100002001480078704700002B
:100580000300002038B56C4628208DF803000120B8
:10059000ADF800000121442000F088F869460748C2
:1005A000FFF74CFF4820E0701C20208021460448C3
:1005B000FFF744FF00F012F938BD000000080140C9
:1005C0000018014038B56C4603208DF80200102059
:1005D0008DF803002020ADF800000121082000F074
:1005E00065F869460B48FFF729FF20210948FFF706
:1005F000B2FF202020800121402000F057F8214642
:100600000548FFF71BFF20210348FFF7A4FF00F078
:10061000EBF838BD000C01400018014000BFFEE7B8
:100620007047000070B5002100230F22C47804B386
:10063000154C246804F4E064C4F5E064210AC1F1B7
:100640000403CA40447804FA03F184781440214337
:1006500009010E4C0678A155047804F01F05012409
:10066000AC4005786D11AD0005F1E025C5F80041FD
:1006700009E0047804F01F050124AC40044D06781D
:10068000761145F8264070BD0CED00E000E400E076
:1006900080E100E002490143024A11607047000016
:1006A0000000FA050CED00E07047000029B1064A91
:1006B00092690243044B9A6104E0034A92698243BF
:1006C000014B9A617047000000100240704710B55E
:1006D00000F002F810BD00000CB500200190009061
:1006E0003348006840F480303149086000BF30482A
:1006F000006800F4003000900198401C01900098C0
:1007000018B90198B0F5A06FF1D12948006800F43C
:10071000003010B10120009001E00020009000980E
:10072000012843D12348006840F0100021490860A7
:100730000846006820F0030008600846006840F0A2
:10074000020008601A484068194948600846406835
:1007500048600846406840F4806048600846406849
:1007600020F47C1048600846406840F4E810486077
:100770000846006840F08070086000BF0C480068C0
:1007800000F000700028F9D00948406820F003000C
:10079000074948600846406840F00200486000BFD2
:1007A0000348406800F00C000828F9D10CBD000097
:1007B000001002400020024010B50446FFF7D0FEB2
:1007C00008B9FFF7E3FC0148046010BDA081214295
:1007D00001200149087070470000002001200149F4
:1007E000087070470100002001200149087070471F
:1007F0000300002001200149087070470400002018
:1008000070B505460C46FFF7B7FE08B9FFF7DAFEEC
:1008100015B90348046001E00248046070BD00009F
:100820009481214294012342042808D14FF0E02111
:10083000096941F004014FF0E022116107E04FF037
:10084000E021096921F004014FF0E02211617047B5
:100850007047000010B5044601200C490870801F45
:10086000FFF7E2FFE11704EB5171C1F3C701084A3A
:1008700011701046007800EB4001C1EBC0104FF63C
:10088000FF7101EAC0000349088010BD0400002088
:10089000050000200600002010B51348006840F055
:1008A00001001149086008464068104908400E4997
:1008B0004860084600680E4908400B490860084631
:1008C000006820F4802008600846406820F4FE009C
:1008D00048604FF41F008860FFF7F9FE4FF000609A
:1008E0000449086010BD0000001002400000FFF83D
:1008F000FFFFF6FE08ED00E010B501210A4800F008
:100900001AF860B1FFF738FE08B9FFF75BFE074839
:10091000006808B9012000E00020044908600121B6
:10092000014800F005F810BD000800409401234282
:10093000CA430282704730B50246002000230024DB
:10094000158A05EA0103958905EA010413B10CB182
:10095000012000E0002030BD00BFFEE702E008C833
:10096000121F08C1002AFAD170477047002001E029
:1009700001C1121F002AFBD17047000070B5054667
:100980001548007820B94820FFF764FFFFF732FFD1
:100990001248008868434FF0E021486100208861D8
:1009A0000846006940F00100086100BF4FF0E020F8
:1009B000046904F0010018B104F480300028F5D077
:1009C0004FF0E020006920F001004FF0E0210861C5
:1009D0000020886170BD0000040000200600002097
:1009E00000244820FFF736FF4FF4A060FFF752FEC7
:1009F000FFF7E8FDFFF7C6FDFFF7C8FBFFF7A2FC16
:100A000012E0601CC4B2142094FBF0F100FB114012
:100A100038B90648006808B9012000E00020034901
:100A200008600A20FFF7AAFFEBE70000948121424B
:100A3000500A000800000020080000005C090008BF
:100A4000580A000808000020000400006C09000893
:080A500000000100000000009D
:0400000508000131BD
:00000001FF
