:020000040800F2
:1000000038040020450100086D040008650400085C
:10001000690400082F0200084509000800000000DC
:100020000000000000000000000000000D060008B5
:100030003302000800000000F50400082D07000846
:100040005F0100085F0100085F0100085F01000810
:100050005F0100085F0100085F0100085F01000800
:100060005F0100085F0100085F0100085F010008F0
:100070005F0100085F0100085F0100085F010008E0
:100080005F0100085F0100085F0100085F010008D0
:100090005F0100085F0100085F0100085F010008C0
:1000A0005F0100085F0100085F0100085F010008B0
:1000B0005F0100085F0100085F0100085F010008A0
:1000C0005F0100085F0100085F0100085F01000890
:1000D0005F0100085F0100085F0100085F01000880
:1000E0005F0100085F0100085F0100085F01000870
:1000F0005F0100085F0100085F0100085F01000860
:100100005F0100085F0100085F0100085F0100084F
:100110005F0100085F0100085F0100085F0100083F
:100120005F0100085F0100085F0100085F0100082F
:10013000DFF80CD000F05AF8004800471D1E0008F8
:10014000380400200648804706480047FEE7FEE7DF
:10015000FEE7FEE7FEE7FEE7FEE7FEE7FEE7FEE777
:1001600075070008310100082DE9F05F0546002001
:1001700092469B4688460646814640241BE0284618
:1001800041464746224600F020F853465A46C01AD8
:10019000914110D311461846224600F039F82D1A25
:1001A00067EB01084F4622460120002100F030F89D
:1001B00017EB00094E41201EA4F10104DFDC484684
:1001C00031462A464346BDE8F09F202A04DB203A08
:1001D00021FA02F00021704721FA02F3D040C2F167
:1001E000200291400843194670470000064C074D15
:1001F00006E0E06840F0010394E8070098471034F7
:10020000AC42F6D3FFF798FFD8E60008F8E60008FE
:10021000202A04DB203A00FA02F1002070479140C6
:10022000C2F1200320FA03F319439040704700BF46
:10023000FEE7704751B18200A2F1C042126842F05D
:1002400001038200A2F1C042136009E08200A2F122
:10025000C0421268034B1A408300A3F1C0431A60E6
:1002600070470000FEFF0F00D0E901121143C26881
:100270001143026911434269114382691143C26902
:100280001143026A1143426A1143826A1143C26AEE
:100290001143026B114302689200A2F1C042116047
:1002A000816808290BD101688900A1F1C041096862
:1002B00041F0400201688900A1F1C0410A60416B30
:1002C0000968426B526841EA0211426B926841EA46
:1002D0000221426B928941EA0241426B128A41EA51
:1002E0000251426B127D41EA0261426B92691143F5
:1002F0000268521C9200A2F1C0421160C16AB1F5BD
:10030000804F1BD1816B0968826B526841EA0211F0
:10031000826B926841EA0221826B128A41EA0251A1
:10032000826B127D41EA0261826B9269114302681D
:100330009200A2F1C042C2F8041107E06FF07042CF
:1003400001688900A1F1C041C1F8042170472DE97D
:10035000F04102460025002600200023002400274B
:1003600091F803C00CF00F0591F803C00CF0100CCD
:10037000BCF1000F03D091F802C04CEA050591F8DA
:1003800000C0BCF1000F31D0146800202BE04FF00A
:10039000010C0CFA00F3B1F800C00CEA03069E420F
:1003A00020D183004FF00F0C0CFA03F7BC4305FA81
:1003B00003FC4CEA040491F803C0BCF1280F06D1F9
:1003C0004FF0010C0CFA00FCC2F814C00AE091F8DE
:1003D00003C0BCF1480F05D14FF0010C0CFA00FC32
:1003E000C2F810C0401C0828D1D31460B1F800C076
:1003F000BCF1FF0F34DD546800202EE000F1080C42
:100400004FF0010808FA0CF3B1F800C00CEA03063B
:100410009E4221D183004FF00F0C0CFA03F7BC432E
:1004200005FA03FC4CEA040491F803C0BCF1280F60
:1004300005D100F1080C08FA0CF8C2F8148091F804
:1004400003C0BCF1480F07D100F1080C4FF00108C0
:1004500008FA0CF8C2F81080401C0828CED354606B
:10046000BDE8F08100BFFEE700BFFEE77047000077
:1004700070B5002100230F22C47804B3154C246802
:1004800004F4E064C4F5E064210AC1F10403CA4045
:10049000447804FA03F184781440214309010E4C96
:1004A0000678A155047804F01F050124AC400578B6
:1004B0006D11AD0005F1E025C5F8004109E00478B3
:1004C00004F01F050124AC40044D0678761145F870
:1004D000264070BD0CED00E000E400E080E100E0AB
:1004E00002490143024A1160704700000000FA050A
:1004F0000CED00E07047000029B1064A5269024342
:10050000044B5A6104E0034A52698243014B5A6129
:10051000704700000010024029B1064A9269024368
:10052000044B9A6104E0034A92698243014B9A6149
:10053000704700000010024030B500210022002466
:1005400000232D4D6D6805F00C0121B1042905D063
:10055000082923D105E0294D056022E0274D0560DB
:100560001FE0254D6D6805F47012234D6D6805F48C
:100570008034022505EB92421CB9214D554305609C
:100580000BE01D4D6D6805F400351DB11C4D554344
:10059000056002E0194D5543056002E0174D056006
:1005A00000BF00BF144D6D6805F0F0010909154D3D
:1005B0006B5C0568DD4045600F4D6D6805F4E061DA
:1005C000090A104D6B5C4568DD4085600A4D6D6819
:1005D00005F46051C90A0B4D6B5C4568DD40C56090
:1005E000054D6D6805F44041890B074D6B5CC5688E
:1005F000B5FBF3F5056130BD0010024000127A0032
:1006000000093D000000002010000020704710B5D8
:1006100000F002F810BD00000CB500200190009021
:100620003348006840F480303149086000BF3048EA
:10063000006800F4003000900198401C0190009880
:1006400018B90198B0F5A06FF1D12948006800F4FD
:10065000003010B10120009001E0002000900098CF
:10066000012843D12348006840F010002149086068
:100670000846006820F0030008600846006840F063
:10068000020008601A4840681949486008464068F6
:1006900048600846406840F480604860084640680A
:1006A00020F47C1048600846406840F4E810486038
:1006B0000846006840F08070086000BF0C48006881
:1006C00000F000700028F9D00948406820F00300CD
:1006D000074948600846406840F00200486000BF93
:1006E0000348406800F00C000828F9D10CBD000058
:1006F00000100240002002400120014908707047AC
:1007000014000020042808D14FF0E021096941F0CD
:1007100004014FF0E022116107E04FF0E021096988
:1007200021F004014FF0E022116170477047000092
:1007300010B5044601200C490870801FFFF7E2FF46
:10074000E11704EB5171C1F3C701084A117010465B
:10075000007800EB4001C1EBC0104FF6FF7101EAD9
:10076000C0000349088010BD1400002015000020BF
:100770001600002010B51348006840F00100114930
:10078000086008464068104908400E49486008461D
:1007900000680E4908400B4908600846006820F4CC
:1007A000802008600846406820F4FE0048604FF44E
:1007B0001F008860FFF72BFF4FF0006004490860BE
:1007C00010BD0000001002400000FFF8FFFFF6FE21
:1007D00008ED00E001F40072B2F5007F00D100BF27
:1007E000CA430280704721B1828942F4005282815B
:1007F00004E082894DF6FF731A40828170470246F9
:100800000020B1F5007F00D100BF13880B400BB171
:10081000012000E000207047F0B5034600240026C8
:100820000025002040F66A17B94200D100BF1846E3
:10083000C1F3421401F01F06012707FA06F5012C47
:1008400001D10C3004E0022C01D1103000E0143052
:100850001AB107682F43076002E00768AF430760DB
:10086000F0BD00002DE9F04786B005460E46002495
:10087000A24600BFA1460027B08900B100BF2F46A5
:100880002C8A4CF6FF700440F08804432C82AC891B
:100890004EF6F3100440B08831890843718908434B
:1008A0000443AC81AC8A4FF6FF400440B089044356
:1008B000AC8201A8FFF740FE1F48874202D1DDF855
:1008C00010A001E0DDF80CA0A88900F4004040B1C0
:1008D0000AEBCA0000EB0A1031684900B0FBF1F8DE
:1008E00007E00AEBCA0000EB0A1031688900B0FB90
:1008F000F1F86420B8FBF0F004012009642101FB49
:100900001089A88900F4004040B1322000EBC900F2
:10091000B0FBF1F000F00700044308E0322000EBE8
:1009200009106421B0FBF1F000F00F0004432C81AA
:1009300006B0BDE8F087000000380140C1F30802AE
:100940008280704700BFFEE710B50446204600F0E5
:1009500055F810BD10B504464820FFF7E9FE4FF4E6
:10096000A060FFF7BDFD204600F04EF810BD00006E
:1009700010B504460D480078401C0C490870084624
:100980000078142190FBF1F201FB120048B92068B5
:10099000C068006808B9012000E000202168C9682B
:1009A00008600A2001F0F6F910BD000018000020D0
:1009B00038B504460D4625602068007C0E4941F894
:1009C000204003208DF8020010208DF803002068DD
:1009D0000089ADF80000216808680121FFF79CFD3F
:1009E000216848686946FFF7B2FC01202168C968A0
:1009F0000860204638BD00003000002010B50446D5
:100A0000201DFFF7B5FF10BD3EB5044600254FF48D
:100A1000E131204600F0A8F801213848FFF7E3FE55
:100A200004F1080000F0FEF80020208134A10C221F
:100A3000E089CDE901210090A3890A22114604F141
:100A4000080000F0BBFD2EA11022E089CDE90121B4
:100A50000090A3891E220A2104F1080000F0AEFDD7
:100A600027A11822E089CDE901210090A389322233
:100A70000A2104F1080000F0A1FD25A350220A215B
:100A800004F1080000F08CFC24A11822E089CDE9D3
:100A900001210090A38978220A2104F1080000F0C6
:100AA0008DFD48F23040B4213C239622CDE9001060
:100AB0000A2104F1080000F0C3FEA022142104F171
:100AC000080000F0CFFB0546B42096231A466421A7
:100AD000CDE9000504F1080000F0B2FE294614A09B
:100AE00000F006FF16487021C823DC22CDE9001073
:100AF000142104F1080000F0B3FD3EBD00380140B0
:100B000048656C6C6F20576F726C642100000000A8
:100B1000C6D5D6D0BFC6BCBC0000000032343137C9
:100B20003533343030304071712E636F6D0000000A
:100B3000636F6C6F72203D2025780D0A0000000065
:100B4000D637000810B504460649201DFFF730FFD0
:100B5000041F04F1080000F0C5FEA0F108042046BF
:100B600010BD00001C00002030B587B005460C46C3
:100B700000202949088001210420FFF7CDFC012134
:100B80008803FFF7C9FC4FF40070ADF8180003208C
:100B90008DF81A0018208DF81B0006A91F48FFF7D2
:100BA000D6FB4FF48060ADF8180004208DF81B00D0
:100BB00006A91A48FFF7CBFB02940020ADF80C0001
:100BC000ADF80E00ADF81000ADF814000C20ADF833
:100BD000120002A91248FFF745FE40211048FFF716
:100BE000F9FD012240F225510D48FFF715FE2520A1
:100BF0008DF8040003208DF805008DF80600012013
:100C00008DF8070001A8FFF733FC00210448FFF727
:100C1000EAFD07B030BD00001A00002000080140C6
:100C20000038014010B50446204600F0A5FD2046DE
:100C300000F062FD322001F0ADF8D321204600F033
:100C40000BFBFE48018821810188218101882181D7
:100C500020894FF6FF7101EA002121812089F7499F
:100C60000988084320812189F5A000F041FEFF2179
:100C7000204600F0F1FAFF21204600F029FB9821E0
:100C8000204600F025FB0621204600F021FBBA217A
:100C9000204600F0E1FA6021204600F019FBBC215B
:100CA000204600F0D9FA0321204600F011FB0E2166
:100CB000204600F00DFB0321204600F009FB6321D4
:100CC000204600F005FB0121204600F001FB012138
:100CD000204600F0FDFA1B21204600F0F9FA12210F
:100CE000204600F0F5FA6F21204600F0F1FA0021CD
:100CF000204600F0EDFA0021204600F0E9FA00213C
:100D0000204600F0E5FA0121204600F0E1FA012139
:100D1000204600F0DDFA0321204600F0D9FA022136
:100D2000204600F0D5FAFF21204600F0D1FAF2214A
:100D3000204600F0CDFA0121204600F0C9FA00213A
:100D4000204600F0C5FAC021204600F0C1FABD21BE
:100D5000204600F081FA0221204600F0B9FA132162
:100D6000204600F0B5FA4521204600F0B1FA67218F
:100D7000204600F0ADFA4521204600F0A9FA67218F
:100D8000204600F0A5FA0121204600F0A1FA232117
:100D9000204600F09DFABE21204600F05DFA0121B8
:100DA000204600F095FA2221204600F091FA2221F7
:100DB000204600F08DFADC21204600F089FABA21A5
:100DC000204600F085FA6721204600F081FA2221B2
:100DD000204600F07DFA2221204600F079FA2221F7
:100DE000204600F075FAC721204600F035FA66214A
:100DF000204600F06DFAED21204600F02DFA7F210B
:100E0000204600F065FA0F21204600F061FA00212B
:100E1000204600F05DFAC021204600F01DFA0321B3
:100E2000204600F055FA0B21204600F051FA00212F
:100E3000204600F04DFAF521204600F00DFA202161
:100E4000204600F045FA4321204600F041FA0021F7
:100E5000204600F03DFAEE21204600F0FDF90A217F
:100E6000204600F035FA1B21204600F031FA5F21C0
:100E7000204600F02DFA4021204600F029FA2821D2
:100E8000204600F025FA3821204600F021FA022100
:100E9000204600F01DFA2B21204600F019FA5021BF
:100EA000204600F015FA0021204600F011FA8021BA
:100EB000204600F00DFAFC21204600F0CDF9082173
:100EC000204600F005FADF21204600F0C5F9002198
:100ED000204600F0FDF90021204600F0F9F900213C
:100EE000204600F0F5F90021204600F0F1F900213C
:100EF000204600F0EDF92021204600F0E9F9F32129
:100F0000204600F0A9F97421204600F0E1F9B4214F
:100F1000204600F0A1F90221204600F0D9F9022173
:100F2000204600F0D5F90221204600F0D1F9F72142
:100F3000204600F091F98221204600F0C9F9B12144
:100F4000204600F089F90021204600F0C1F9132164
:100F5000204600F0BDF91321204600F0B9F9F22136
:100F6000204600F079F94121204600F0B1F9042132
:100F7000204600F0ADF94121204600F0A9F92821D2
:100F8000204600F0A5F9C121204600F065F917219F
:100F9000204600F09DF97821204600F099F97B2148
:100FA000204600F095F92021204600F091F9E0213B
:100FB000204600F051F90021204600F089F9022175
:100FC000204600F085F90C21204600F081F90F2120
:100FD000204600F07DF91121204600F079F91C210E
:100FE000204600F075F9C821204600F071F907216C
:100FF000204600F06DF90321204600F069F9082130
:10100000204600F065F90321204600F061F90D212A
:10101000204600F05DF90C21204600F059F93121FD
:10102000204600F055F92C21204600F051F900210E
:10103000204600F04DF9E121204609E00008006C4F
:10104000204C43442049443A25780D0A0000000012
:1010500000F002F90021204600F03AF90221204672
:1010600000F036F90821204600F032F90E21204622
:1010700000F02EF91221204600F02AF9172120460F
:1010800000F026F97C21204600F022F90A212046B2
:1010900000F01EF90321204600F01AF9092120462C
:1010A00000F016F90621204600F012F90C21204626
:1010B00000F00EF90C21204600F00AF92E212046FE
:1010C00000F006F92A21204600F002F9002120460E
:1010D00000F0FEF83521204600F0BEF80021204641
:1010E00000F0F6F83621204600F0B6F8C021204680
:1010F00000F0EEF83A21204600F0AEF855212046E7
:1011000000F0E6F81121204600F0A6F8782000F063
:1011100041FE2921204600F09FF80021204600F0E2
:1011200082FA4FF6FF71204600F0BAFB10BD0000B6
:1011300001460148008870470008006C2DE9FC4F0B
:1011400006468946174698460B9C01972046E317AA
:1011500004EB5373DB1021464FEAE47C04EB5C7C28
:101160004FEAEC0CA4EBCC0CBCF1000F02D04FF01A
:10117000010C01E04FF0000C6344224604EBD27CEA
:101180004FEA6C0C03FB0CF3DBB20093A8F12000D8
:1011900000F0FF08002554E00C2C07D108EB4800B4
:1011A0002A4901EB800010F805A013E0102C05D1AE
:1011B000274800EB081010F805A00BE0182C07D109
:1011C00008EBC800234901EB800010F805A001E0FE
:1011D000BDE8FC8F4FF0000B2DE00AF0800030B12D
:1011E00033883A464946304600F012FB07E00C9837
:1011F00028B973883A464946304600F009FB4FEA61
:101200004A604FEA106A781C87B2F088B84200DC66
:10121000DEE70198381AA04209D1019F09F10100C7
:101220001FFA80F9B088484500DCD1E706E00BF1F1
:10123000010000F0FF0BBBF1080FCEDB00BF681C04
:10124000C5B200988542A7DB00BFC1E73A1E00087F
:10125000AE2200089E280008014A11807047000055
:10126000FE07006C2DE9F84304460D46164600279C
:10127000B846B946A088A84202DDE088B04202DC48
:101280000020BDE8F8832B463246294620460096CA
:1012900000F024F82E212046FFF7DEFF2046FFF75E
:1012A00047FF07462046FFF743FF07462046FFF764
:1012B0003FFF81462046FFF73BFF8046F812C00201
:1012C0004FEAA82140EA411040EAE920D9E70000AE
:1012D000014A1180704700000008006C2DE9F041C0
:1012E00080460C461546069E2A214046FFF7B4FF6D
:1012F0002746E01704EB1060C0F30F214046FFF7CC
:10130000E7FFE01704EB10600012A4EB002081B2AD
:101310004046FFF7DDFF1F46D81703EB1060C0F310
:101320000F214046FFF7D4FF1F46D81703EB10608C
:101330000012A3EB002081B24046FFF7C9FF2B212A
:101340004046FFF789FF2F46E81705EB1060C0F312
:101350000F214046FFF7BCFFE81705EB10600012B5
:10136000A5EB002081B24046FFF7B2FF3746F017E9
:1013700006EB1060C0F30F214046FFF7A9FFF017FE
:1013800006EB10600012A6EB002081B24046FFF78A
:101390009FFF2C214046FFF75FFFBDE8F081000072
:1013A0002DE9FC5F80460D4617461C4601950097C7
:1013B000217871A000F09CFA617873A000F098FA8F
:1013C0007548017875A000F093FA7348417877A0CA
:1013D00000F08EFAA17868A000F08AFAE1786AA09D
:1013E00000F086FA6C4890F877106CA000F080FA54
:1013F000694890F878106DA000F07AFA21795EA023
:1014000000F076FA617960A000F072FA624890F814
:10141000EE1062A000F06CFA5F4890F8EF1063A045
:1014200000F066FAA17954A000F062FAE17956A0C2
:1014300000F05EFA584890F8651158A000F058FA8C
:10144000554890F8661159A000F052FA524890F8A9
:1014500067114AA000F04CFA4F4890F8681147A075
:1014600000F046FA4C4890F8691144A000F040FAA8
:10147000494890F86A1141A000F03AFA464890F8BD
:101480006B113EA000F034FA434890F86C113BA079
:1014900000F02EFA404890F86D1138A000F028FABC
:1014A0003D4890F86E1135A000F022FA5FE000266A
:1014B00056E006EB0610C0EBC0003749085C217807
:1014C00088424BD106EB0610C0EBC00032490844FD
:1014D00040786178884241D14FF000093BE006EB4B
:1014E0000610C0EBC0002C490844C01C10F809B01D
:1014F0004FF0000A28E00BF08000802807D1B8F8F0
:1015000000303A462946404600F082F906E0B8F835
:1015100002303A462946404600F07AF94FF6FF700D
:1015200000EA4B0B681C85B20198281A202807D1C5
:10153000019D781C87B20098381A1D2800D1009FA1
:101540000AF1010000F0FF0ABAF1080FD3DB09F13C
:10155000010000F0FF09B9F1740FC0DB701CC6B2C6
:10156000142EA6DBA41C05F1200085B2019520787D
:1015700000289CD1BDE8FC9F636E3A3A3078253054
:1015800032580D0A00000000636E2B313A3A307871
:10159000253032580D0A0000FA35000849303A3A31
:1015A0003078253032580D0A0000000049313A3AAF
:1015B0003078253032580D0A000000002DE9FC4F2C
:1015C00082460C4615469846DDE90B960D9F04F0C1
:1015D000FF0B08EB04001FFA80F809EB05001FFA67
:1015E00080F917E0444502DB5C46A81985B24D45F9
:1015F00000DB15E00020CDE900603B782A4621465B
:101600005046FFF79BFD304606EBD07104EB6101BD
:101610008CB27F1C38787E2802DC38782028E1DA0A
:1016200000BFBDE8FC8F30B504460D46A5725DB91C
:1016300000223621204600F057F84FF44871E1802F
:101640004FF4F070A0800AE068223621204600F0B6
:101650004BF84FF4F071E1804FF44870A08030BD3A
:101660002DE9FF4F81B00C4615461E46DDF838B017
:101670004FF00009CA4605EB0B00401E80B20090F7
:10168000A019401E83B22A4621460198FFF726FE84
:10169000002723E04FF000081CE00AF101010F9839
:1016A00010F801904FF6FF7000EA09290F9810F822
:1016B0000A0040EA0909E81982B204EB080081B285
:1016C0004B46019800F0A4F80AF1020A08F1010063
:1016D0001FFA80F8B045E0DB781C87B25F45D9DBA4
:1016E00005B0BDE8F08F0000024B19809B1C1A80EA
:1016F00070470000FE07006C10B59EB00446012143
:101700000802FEF7F9FE01200890002009900F2042
:101710000A9000200B900C900D900E9015200190D7
:1017200002900520039000200490059006900790F9
:1017300006200F9000201090119010201290002091
:10174000139015901490169017904FF480501890A5
:10175000002019904FF480401A9000201B9008A898
:101760001C9001A81D900FA8FEF77EFD0121062008
:10177000FEF760FD1EB010BD38B5044601214FF4E0
:10178000B470FEF7C9FE4CF23370ADF800001820BB
:101790008DF8030003208DF8020069461748FEF714
:1017A000D6FD4FF68070ADF8000018208DF80300CC
:1017B00003208DF8020069461148FEF7C8FD41F28A
:1017C0000100ADF8000018208DF8030003208DF80B
:1017D000020069460B48FEF7BAFD0120ADF8000093
:1017E00010208DF8030003208DF80200694606489A
:1017F000FEF7ADFD01200549086038BD0014014029
:101800000018014000200140000C0140808121426D
:10181000F8B507460C4615461E4623462A4621467D
:1018200038460095FFF75AFD3146384600F002F879
:10183000F8BD0000014A1180704700000008006CEC
:101840002DE9F84780460C4615461E46DDE9097924
:10185000B44201DCBD4201DDBDE8F88733462A46CB
:10186000214640460097FFF739FD301B401C84B2EB
:10187000781B401C85B20CE0AA4603E0494640466E
:10188000FFF7D8FFBAF10000AAF101011FFA81FAAF
:10189000F4D1201EA4F101018CB2EDD100BFDBE731
:1018A000F8B504460F46E088401E80B20090A0883C
:1018B000401E83B2002211462046FFF70FFD00258F
:1018C0000CE0002605E039462046FFF7B3FF701C08
:1018D00086B2E088B042F6DC681C85B2A088A842D7
:1018E000EFDCF8BD002101804FF6FF7141807047A9
:1018F0000FB4054B10B503A9044A029800F018F87C
:1019000010BC5DF814FB0000F91D00083400002035
:1019100002E008C8121F08C1002AFAD170477047B8
:10192000002001E001C1121F002AFBD17047000016
:101930002DE9FF4F8DB00F460546002606E025280D
:101940000BD0DDE90F1290476D1C761C287800281B
:10195000F5D111B03046BDE8F08F0024A246A14673
:101960000122EC4900E0044315F8013F203B02FA54
:1019700003F00842F7D128782A2810D06FF02F0200
:101980002878A0F13001092914D80AEB8A0102EB6A
:10199000410144F0020400EB010A6D1CF0E701CFA5
:1019A0005FEA000A03D544F40054CAF1000A44F087
:1019B00002046D1C28782E2817D115F8010F44F069
:1019C00004042A280ED06FF02F022878A0F13001ED
:1019D00009290AD809EB890102EB410100EB010951
:1019E0006D1CF2E757F8049B6D1C28786C280FD00B
:1019F00006DC4C2817D068280DD06A2814D104E0E2
:101A0000742810D07A280FD10DE044F400140AE0B5
:101A100044F4801401E044F440146978814202D116
:101A200004F580146D1C6D1C2A786E2A1FD00CDC06
:101A3000632A31D004DC002A8BD0582A11D1A3E0CC
:101A4000642A68D0692A0CD165E0732A2ED004DCA0
:101A50006F2A73D0702A04D19BE0752A6FD0782A40
:101A60006ED01046DDE90F129047761C50E1C4F3AA
:101A70000250022806D0032809D0042801CF09D03B
:101A8000066045E101CFF117C0E9006140E101CFF7
:101A900006803DE106703BE117F8040B8DF800006D
:101AA00000208DF80100EB46012003E057F804BB4D
:101AB0004FF0FF3061074FF0000102D40DE008F154
:101AC0000101884649450FDA8045F8DB1BF808100C
:101AD0000029F4D108E008F1010188468142FADBCF
:101AE0001BF808100029F6D1DDE90F23AAEB080046
:101AF0008146214600F036F9304400EB080604E048
:101B0000DDE90F121BF8010B9047B8F10108F7D27D
:101B100021464846F7E00A21C4F302534FF0000B78
:101B20000891022B04D001CFC117032B09D00AE082
:101B3000FF1D27F00707F7E8020108E032E01FE089
:101B400020E000B2C117042B01D140B2C117031E1F
:101B500071F1000307DA4FF0000CD0EB0C006CEBD6
:101B600001012D2302E0230504D52B238DF8243019
:101B7000012303E0E30701D02023F7E7984658E06C
:101B80000A2110E010210EE010204FF0000B089009
:101B90000CE010214FF0000B44F004044FF0080952
:101BA000089103E008214FF0000B0891C4F30253A1
:101BB000022B04D001CF0021032B06D006E0FF1D2D
:101BC00027F00707F7E8020103E080B2042B00D1F9
:101BD000C0B24FF0000823072BD5702A07D0DDF8DC
:101BE00020C08CF0100C5CEA0B0C05D00EE04023FA
:101BF0008DF82430012308E050EA010306D0302399
:101C00008DF824308DF8252002239846DDF820C079
:101C10008CF0080C5CEA0B0C0BD150EA010301D1EB
:101C2000630706D530238DF824304FF00108A9F161
:101C30000109582A04D038A20B9208AA0A920BE094
:101C40003AA2F9E75B46089AFEF78EFA0B9B9B5C7B
:101C50000A9A521E0A92137050EA0102F2D10A98AF
:101C6000ADEB000000F1200B600702D524F48034B6
:101C700001E04FF00109D94502DDA9EB0B0000E0BE
:101C8000002000EB0B0141440890AAEB010AE0039D
:101C900006D4DDE90F232146504600F063F80644E0
:101CA0004FF0000908E009A911F80900DDE90F1259
:101CB000904709F10109761CC145F4DBE0030CD51E
:101CC000DDE90F232146504600F04CF8064404E0BD
:101CD000DDE90F1230209047761C0899481E0890C5
:101CE0000029F5DC08E00A980A990078491C0A9155
:101CF000DDE90F129047761CBBF10001ABF1010B3F
:101D0000F1DC21465046DDE90F2300F019F80644C6
:101D10006D1C1BE60928010030313233343536376B
:101D20003839616263646566000000003031323327
:101D300034353637383941424344454600000000C7
:101D40002DE9F041044600251E461746880404D4B8
:101D500005E039462020B0476D1C641EF9D52846A1
:101D6000BDE8F0812DE9F041044600251E4690466D
:101D7000C80301D5302700E02027880404D505E0FA
:101D800041463846B0476D1C641EF9D52846BDE86B
:101D9000F081000070B505461548007820B948204C
:101DA000FEF7C6FCFEF7A8FC1248008868434FF017
:101DB000E0214861002088610846006940F0010088
:101DC000086100BF4FF0E020046904F0010018B181
:101DD00004F480300028F5D04FF0E020006920F0B6
:101DE00001004FF0E02108610020886170BD000013
:101DF000140000201600002070B504460D46E1B224
:101E00000548FEF79BFD00BF80210348FEF7F7FC65
:101E10000028F9D0204670BD0038014086B001ACE2
:101E20002046FEF78FFE044600BF01A8FEF792FD94
:101E300002E001A8FEF788FDFBE7000000000000BB
:101E4000000000000000000000003F400000000013
:101E50000000000030004000300040000000090099
:101E60000BC03D000BC03D00090018C024407FE0BE
:101E7000224031800000180024C01B000D80324039
:101E8000018003801C4027401C8007400040100058
:101E900060000000000000000000000000000000E2
:101EA0001F80204040200000402020401F80000074
:101EB0000000090006001F80060009000000040061
:101EC00004003F80040004000000001000600000D7
:101ED00000000000000004000400040004000400EE
:101EE0000000000000400000000000000000002092
:101EF00001C006003800400000001F802040204044
:101F000020401F800000000010403FC00040000043
:101F1000000018C0214022402440184000001080DA
:101F20002040244024401B80000002000D001100CE
:101F30003FC0014000003C802440244024402380D6
:101F400000001F8024402440344003800000300003
:101F5000200027C03800200000001B8024402440BF
:101F600024401B8000001C0022C0224022401F8011
:101F70000000000000000840000000000000000019
:101F800000000460000000000000000004000A00DF
:101F900011002080404009000900090009000900E3
:101FA000000000004040208011000A0004001800DA
:101FB000200023402400180000001F8020402740FC
:101FC00029401F400000004007C039000F0001C039
:101FD000004020403FC0244024401B8000001F8060
:101FE0002040204020403080000020403FC0204062
:101FF00020401F80000020403FC024402E4030C0C1
:10200000000020403FC024402E00300000000F00A0
:102010001080204022403380020020403FC0040056
:1020200004003FC02040204020403FC020402040CE
:1020300000000060202020203FC020002000204021
:102040003FC024400B0030C0204020403FC0204013
:102050000040004000C03FC03C0003C03C003FC007
:10206000000020403FC00C4023003FC020001F80E4
:102070002040204020401F80000020403FC02440DE
:102080002400180000001F802140214020E01FA0F4
:10209000000020403FC02440260019C0004018C066
:1020A00024402440224031800000300020403FC0C6
:1020B00020403000000020003F80004000403F8072
:1020C000200020003E0001C007003800200038003A
:1020D00007C03C0007C038000000204039C006009F
:1020E00039C0204000002000384007C038402000A0
:1020F0000000304021C02640384020C000000000D1
:1021000000007FE0402040200000000070000C0034
:102110000380004000000000402040207FE00000DD
:10212000000000002000400020000000000000101F
:10213000001000100010001000100000000040000F
:10214000000000000000000002800540054003C0C0
:10215000004020003FC00440044003800000000015
:102160000380044004400640000000000380044057
:1021700024403FC00040000003800540054003406C
:102180000000000004401FC0244024402000000044
:1021900002E0055005500650042020403FC0044096
:1021A000040003C000400000044027C000400000BD
:1021B000000000100010041027E000000000204084
:1021C0003FC00140070004C00440204020403FC001
:1021D00000400040000007C0040007C0040003C026
:1021E0000000044007C00440040003C00040000099
:1021F00003800440044003800000041007F00450F2
:10220000044003800000000003800440045007F0F5
:102210000010044007C00240040004000000000059
:1022200006400540054004C00000000004001F8077
:10223000044000400000040007800040044007C044
:1022400000400400070004C00180060004000600EE
:1022500001C0070001C006000000044006C00100E4
:1022600006C0044000000410071004E001800600CE
:1022700004000000044005C00640044000000000C7
:10228000000004007BE0402000000000000000008F
:10229000FFF000000000000040207BE00400000090
:1022A00000004000800040002000200040000000AE
:1022B000000000000000000000000000000000001E
:1022C000000000001FCC000C000000000000000017
:1022D00008003000600008003000600000000220AC
:1022E00003FC1E20022003FC1E2002200000000030
:1022F0000E1811043FFF10840C78000000000F003E
:1023000010840F3800C00778188400780000007827
:102310000F8410C411240E9800E400840008080003
:1023200068007000000000000000000000000000D5
:102330000000000007E01818200440020000000020
:1023400040022004181807E00000000000000240CE
:10235000024001800FF00180024002400000008036
:10236000008000800FF800800080008000000001E5
:10237000000D000E00000000000000000000000042
:1023800000800080008000800080008000800000CD
:10239000000C000C00000000000000000000000025
:1023A00000060018006001800600180020000000F0
:1023B00007F0080810041004080807F000000000E7
:1023C000080408041FFC00040004000000000000D2
:1023D0000E0C10141024104411840E0C0000000088
:1023E0000C1810041104110412880C700000000075
:1023F00000E00320042408241FFC00240000000047
:102400001F9810841104110410881070000000003F
:1024100007F00888110411041888007000000000FB
:102420001C00100010FC13001C0010000000000035
:102430000E3811441084108411440E38000000003E
:102440000700088C10441044088807F000000000C2
:1024500000000000030C030C00000000000000005E
:102460000000000101060000000000000000000064
:10247000008001400220041008081004000002201F
:102480000220022002200220022002200000000080
:102490001004080804100220014000800000000021
:1024A0000E001200100C106C10800F00000003E0F2
:1024B0000C1813E4142417C4082807D000000004E3
:1024C000003C03C41C40074000E4001C000410044E
:1024D0001FFC1104110411040E880070000003E0B9
:1024E0000C1810041004100410081C100000100434
:1024F0001FFC100410041004080807F0000010046A
:102500001FFC1104110417C4100408180000100463
:102510001FFC1104110017C010000800000003E0A8
:102520000C181004100410441C7800400000100423
:102530001FFC10840080008010841FFC1004000029
:10254000100410041FFC100410040000000000031D
:102550000001100110011FFE100010000000100407
:102560001FFC110403801464181C100400001004E4
:102570001FFC1004000400040004000C0000100400
:102580001FFC1F0000FC1F001FFC100400001004B3
:102590001FFC0C04030000E010181FFC100007F0E3
:1025A0000808100410041004080807F000001004C4
:1025B0001FFC10841080108010800F00000007F0B6
:1025C000081810241024101C080A07F20000100438
:1025D0001FFC1104110011C011300E0C000400008A
:1025E0000E1C11041084108410441C3800001800C4
:1025F000100010041FFC1004100018000000100050
:102600001FF810040004000410041FF8100010004C
:102610001E0011E0001C007013801C0010001FC081
:10262000103C00E01F0000E0103C1FC00000100440
:10263000180C163401C001C01634180C1004100018
:102640001C00130400FC13041C001000000008040C
:10265000101C1064108413041C04101800000000E7
:10266000000000007FFE4002400240020000000027
:1026700030000C0003800060001C0003000000001C
:102680004002400240027FFE000000000000000007
:102690000000200040004000400020000000000139
:1026A0000001000100010001000100010001000023
:1026B000400040002000000000000000000000007A
:1026C0000098012401440144014400FC000410006E
:1026D0001FFC008801040104008800700000000055
:1026E000007000880104010401040088000000005B
:1026F000007000880104010411081FFC00040000A0
:1027000000F8014401440144014400C800000000F5
:10271000010401040FFC1104110411001800000051
:1027200000D601290129012901C901060000100470
:102730001FFC008401000100010400FC00040000F3
:102740000104190419FC000400040000000000004A
:10275000000300010101190119FE0000000010042E
:102760001FFC0024004001B4010C01040000000023
:10277000100410041FFC0004000400000000010409
:1027800001FC0104010001FC0104010000FC010442
:1027900001FC008401000100010400FC00040000B1
:1027A00000F8010401040104010400F80000010123
:1027B00001FF008501040104008800700000000092
:1027C0000070008801040104010501FF00010104FB
:1027D000010401FC008401040100018000000000EC
:1027E00000CC0124012401240124019800000000F0
:1027F0000100010007F801040104000000000100CD
:1028000001F8000400040004010801FC00040100B8
:1028100001800170000C001001600180010001F0D6
:10282000010C003001C00030010C01F0010000007B
:102830000104018C00740170018C0104000001018D
:1028400001810171000E001801600180010000008B
:102850000184010C013401440184010C00000000DA
:1028600000000000000001003EFC400240020000A9
:10287000000000000000FFFF00000000000000005A
:10288000400240023EFC0100000000000000000089
:102890006000800080004000400020002000000018
:1028A0000000000000000000000000000000000028
:1028B0000000000000000000000000000000000018
:1028C0000000000000000000000000000000000008
:1028D000000F80380FFE380F803800000000000025
:1028E00000000000000000000000000001000006E1
:1028F00000000C00003800003100000600000C0051
:10290000003800003000000000000000000061807E
:102910000067F807F9800061800061800061800035
:1029200061800067F807F980006180000000000006
:102930000000000001C0E003E0F0063008041808C1
:102940001FFFFE040E080787F00381E0000000006F
:10295000000001F000060C00040408060C7001F9E8
:10296000C0000E00003BE000EC18070808040C183B
:102970000003E00000000001E00007F003F8180485
:102980001C0804170807E1D003C0E00023B0003C96
:1029900008002008000010000000000000010000F6
:1029A0003100003200001C000000000000000000A8
:1029B0000000000000000000000000000000000017
:1029C00000000000000000000000000000007F0088
:1029D00001FFC00780F00C00181000042000020066
:1029E00000000000002000021000040C0018078006
:1029F000F001FFC0007F00000000000000000000A8
:102A0000000000000000000000004200006600001E
:102A10006600003C0000180003FFC0001800003CE6
:102A20000000660000660000420000000000080090
:102A300000080000080000080000080001FFC000B6
:102A4000080000080000080000080000080000005E
:102A50000000000100003100003200001C000000F6
:102A60000000000000000000000000000000000066
:102A70000000000000000800000800000800000836
:102A8000000008000008000008000008000008001E
:102A900000080000000000000000000000003800F6
:102AA00000380000380000000000000000000000B6
:102AB0000000000000000000000000000000000610
:102AC00000001C000070000180000E0000380000B3
:102AD000C0000700001C00003000000000000000E3
:102AE00000007F8001FFE0038070060018040008EA
:102AF00004000806001803807001FFE0007F8000DA
:102B000000000000000000000100080100080100B2
:102B10000803FFF807FFF80000080000080000089D
:102B200000000000000000000001C03802C058048E
:102B30000098040118040218040418061C1803F86D
:102B40001801E0F800000000000000000001C0E0F3
:102B500003C0F00400080408080408080618080365
:102B6000F41801E7F00001E00000000000000000A0
:102B700000000300000D000011000061000081084A
:102B800003010807FFF80FFFF80001080001080023
:102B900000000000000000E007FCD0060808061056
:102BA00008061008061008061838060FF00607C0B9
:102BB000000000000000000000003F8001FFE00373
:102BC00084300208180410080410080410080718BC
:102BD00010030FF00007C00000000000000000001C
:102BE00003C0000700000600000600F80607F8060C
:102BF000180006E0000700000600000000000000CA
:102C00000001E1E003F7F006341004180804180886
:102C1000040C08040C0806161803F3F001C1E000C8
:102C2000000000000000F80003FC30030638040236
:102C3000080402080402080404100308F001FFC09D
:102C4000007F000000000000000000000000000005
:102C5000000000000000703800703800703800007C
:102C60000000000000000000000000000000000064
:102C700000000000000000000000301A00301C00BE
:102C80000000000000000000000000000000000044
:102C900000000000000800001400002200004100B5
:102CA000008080010040020020040010080008009D
:102CB0000000000000002100002100002100002190
:102CC000000021000021000021000021000021005F
:102CD00000210000000000000000000008000804BF
:102CE000001002002001004000808000410000220E
:102CF0000000140000080000000000000003C000F5
:102D000004C000040000080038080F38080838081C
:102D100010000C300007E00003C0000000000000BD
:102D200000003F8000FFE0038070020F10067088F3
:102D300004C088048308047F8802C0900301200037
:102D4000FE400000080000180001F8003E0801C223
:102D50000007020007E20000FE00001FC80001F8A3
:102D600000003800000804000807FFF807FFF80417
:102D7000080804080804080804080806180803F4EA
:102D80001801E7F00001E0000000000000003F80B3
:102D900001FFE0038070020018040008040008042A
:102DA00000080400100600200780C0000000040096
:102DB0000807FFF807FFF8040008040008040008EB
:102DC00004001802001003807001FFE0007F800003
:102DD000000004000807FFF807FFF80408080408CB
:102DE00008040808040808043E080400080600183F
:102DF00001006000000004000807FFF807FFF80466
:102E00000808040800040800040800043E00060046
:102E100000060000018000000000000000003F806C
:102E200001FFE00380700600180400080402080493
:102E300002080203F00783F0000200000200040011
:102E40000807FFF807FFF80408080008000008005A
:102E500000080000080004080807FFF807FFF8044E
:102E6000000800000000000004000804000804003E
:102E70000807FFF807FFF80400080400080400082A
:102E80000000000000000000000000060000070035
:102E9000000104000104000104000307FFFE07FF16
:102EA000FC04000004000004000004000807FFF810
:102EB00007FFF8040C08001800003E0004C7800556
:102EC00003C80600F80400380400180000080400D5
:102ED0000807FFF807FFF8040008000008000008D2
:102EE0000000080000080000080000180000600052
:102EF000000004000807FFF807800807FC00007FB7
:102F0000C00003F80007C000780007800807FFF83A
:102F100007FFF804000804000807FFF8070008038B
:102F2000C00000E000003800001E000007000001A3
:102F3000C00400F007FFF8040000000000007F80DC
:102F400001FFE00380700600180400080400080672
:102F5000001803003001FFE0007F80000000040043
:102F60000807FFF807FFF80404080404000404003D
:102F7000040400040400060C0003F80001F0000043
:102F80000000000000007F8001FFE0038070060069
:102F9000880400880400C806003C03003E01FFE6E8
:102FA000007F8400000004000807FFF807FFF80412
:102FB0000808040800040C00040F00040BC00610ED
:102FC000F003F03801E00800000800000001E0F81C
:102FD00003F030063010041808041808040C080424
:102FE0000C080206180207F00781E00000000180CB
:102FF0000006000004000004000004000807FFF8B9
:1030000007FFF804000804000004000006000001A7
:10301000800004000007FFE007FFF0040018000034
:103020000800000800000800000800000804001064
:1030300007FFE004000004000006000007E00007AE
:10304000FE00041FE00001F80000380001E0043E2B
:103050000007C00006000004000004000007E000B4
:1030600007FFC0041FF80007C007F80007FF80042F
:103070003FF80007C004F80007000004000000004B
:103080000004000806001807C07805F1C8003E00DB
:10309000001F800463E80780F80600180400080099
:1030A000000004000006000007800007E008047C20
:1030B00008001FF80007F800180804E008070000DF
:1030C00006000004000000000001000806003804AB
:1030D00000F80403E8040F08047C0805F00807C0A2
:1030E0000807001804006000000000000000000055
:1030F0000000000000000000003FFFFE2000022052
:103100000002200002200002200002000000000057
:103110000000000008000007000000C000003800A8
:103120000006000001C000003000000E0000010099
:10313000000000000000000020000220000220002B
:10314000022000022000023FFFFE000000000000FD
:103150000000000000000000000000000000000867
:1031600000001000003000002000003000001000BF
:103170000008000000000000000000000100000145
:10318000000001000001000001000001000001003A
:10319000000100000100000100000100000100002A
:1031A00000000000000000200000200000100000CF
:1031B00010000000000000000000000000000000FF
:1031C00000000000000000F00019F8001B180022A9
:1031D00008002608002408002410003FF8001FF80B
:1031E00000000800001800000004000007FFF80FAE
:1031F000FFF0001818001008002008002008003018
:1032000018001FF0000FC00000000000000007C001
:10321000001FF000183000200800200800200800DF
:103220003C08001C100000600000000000000000CE
:10323000000007C0001FF000381800200800200818
:1032400000200804101007FFF80FFFF00000100026
:1032500000000000000000000007C0001FF0001286
:1032600030002218002208002208003208001E1038
:10327000000E2000000000000000200000200800D8
:10328000200801FFF803FFF80620080420080420A6
:103290000807200003000000000000000000000EEE
:1032A000000E6E001FF30031B10020B10020B1000C
:1032B0003191001F13002E1E00200E003000000070
:1032C0000004000807FFF80FFFF8001008002000B6
:1032D000002000002008003FF8001FF80000080050
:1032E000000000000000000000200800200800206E
:1032F00008063FF8063FF800000800000800000834
:1033000000000000000000000000000000000300BA
:103310000003002001002001002003063FFE063FBD
:10332000FC00000000000000000000000004000895
:1033300007FFF80FFFF8000188000300002FC0000E
:1033400038F80020380020080000080000000000C5
:103350000000000004000804000804000807FFF84B
:103360000FFFF8000008000008000008000000003F
:103370000000002008003FF8003FF800100800207F
:1033800000003FF8003FF8001008002000003FF860
:10339000003FF8000008000000002008003FF8008F
:1033A0003FF8001008001000002000002008003F37
:1033B000F8001FF80000080000000000000007C02F
:1033C000000FF0001830003008002008002008002E
:1033D0003008001830000FF00007C00000000000A7
:1033E00000002001003FFF003FFF001011002009F6
:1033F000002008002008003038001FF0000FC00037
:1034000000000000000007C0001FF0003818002076
:1034100008002008002009001011001FFF003FFFD6
:103420000000010000000020080020080020080023
:103430003FF8003FF80008080010080020080020AE
:10344000000030000030000000000000000000001C
:10345000000C78001E180033080023080021080023
:1034600021880021980030F0003860000000000042
:103470000000200000200000200000FFF003FFF803
:103480000020080020080020080000300000000094
:103490000000000000002000003FF0007FF8000066
:1034A00018000008000008002010003FF8007FF01E
:1034B00000001000000000000000200000300000AC
:1034C0003C00003F800023F00000780000700023E3
:1034D00080003C00003000002000002000003C0084
:1034E000003FE00023F80000E0002700003E00005D
:1034F0003FE00021F80001E0003E00002000000055
:1035000000002008002008003838003E68002780AE
:103510000003C8002CF800383800201800200800EC
:103520000000000000002000003003003C01003FCC
:10353000830023EC000070002380003C000020008A
:10354000002000000000000000000000003808001B
:1035500020380020F80023E8002F88003E080038BB
:1035600008002018000070000000000000000000AB
:103570000000000000000000000008000014001F10
:10358000F7FC3000062000020000000000000000F0
:10359000000000000000000000000000000000002B
:1035A000FFFFFF000000000000000000000000001E
:1035B00000000000000000002000023000061FF79D
:1035C000FC001400000800000000000000000000E3
:1035D0000000000000000000001800006000004033
:1035E000000040000020000010000008000004005F
:1035F000000400000C0000100000C6D50000000010
:103600000000E0380000783C00003C7800003C708E
:10361000C0001CE1E01FFFFFF0001CE3000E1CE7F0
:10362000C0079CE78003DCEF0003DCEE0001DCFC5C
:1036300060009CF9F07FFFFFF80000000001C00E61
:103640000001FFFF0001C00E0001C00E0001C00E0E
:103650000001FFFE0001C00E0001C00E0001C00EFF
:103660000001FFFE0001C00E0001C00E00000000BE
:1036700000D6D00000000000000700000007800016
:10368000000700000007000000070000000701809D
:103690001FFFFFE01FFFFFE01E0701C01E0701C064
:1036A0001E0701C01E0701C01E0701C01E0701C082
:1036B0001FFFFFC01FFFFFC01E0701C01C070180C6
:1036C00000070000000700000007000000070000DE
:1036D00000070000000700000007000000070000CE
:1036E0000007000000000000BFC60000000000004E
:1036F000000780003C07C001FC07803FE0078039DD
:10370000C1C78001C0E78001C0F78001C077800198
:10371000DE77807FFE078001C0078003C3C7800378
:10372000E1E78003F8F78007FCE7F00FDE67F80FAA
:10373000DC07F81FC0FF801DDFE78039CC078071F0
:10374000C0078061C0078001C0078001C0078001F9
:10375000E0078001E0078001C0070000000000BC16
:10376000BC00000000000380300003C03C0003C028
:103770003C0003C0380003C0380003C0386003F8C1
:1037800038F07FFFFFF003C0380003C0380003C0EB
:10379000380003DC39C003FFFFE007E383C03FC10B
:1037A00083C07FC1C3803BC1C78003C0EF0003C09B
:1037B000EF0003C07E0003C07C0003C07C0003C098
:1037C000FE003BC3EF803F8787F80FBF03F8077801
:1037D00000E0000000008A4A8A4A8A4A8A4A8A4AE5
:1037E0008A4A8A4A8A4A8A4A8A4A8A4A8A4A8A4A39
:1037F0008A4AAA52AA52AA52AA52AA52AA52AB5210
:10380000AB52AB52AB52AB52CB52CB52CB52CB5250
:10381000CB52CB52CB52CB52CB52EB5ACB52CB5298
:10382000EB5AEB5AEB5AEC5AEB5AEC5A0C5B0C5B2A
:103830000C5BEC5A0C5B0C5B0C5B0C5B0C5B0C5B71
:103840002C632C630C5B2C630C5B2C630C632C5B78
:103850002C630C5BEB5A4D634D634D634D6BEC5A1F
:103860002C630C5B6E6BAA522421A218E318452925
:10387000042104212421E318C318A218C318C31873
:10388000A218A218C218A2108210A210A2108210B0
:103890006108610840084108610882106110400811
:1038A000610841088210A210E320C318C318E32066
:1038B000653108420842EB5AAB524D6B4D634D6384
:1038C0004D634D634D634D636D6B4D634D6B4D6B40
:1038D0004D634D634D634D634D634D634D634D6368
:1038E0002D634D632D632D632D632C632C632C633B
:1038F0000C632C630C630C630C5B0C630C630C5B40
:103900000C630C630C5BEC5AEC5AEC5AEC5AEC5A14
:10391000EC5AEC5AEC5AEB5AEB5ACB5AEB5ACB5ABC
:10392000EB5ACB5ACB5ACB5ACB52CB5AAB52AB52A7
:10393000AB52AB52AB52AB52AA52AA528A52AA52C3
:103940008A52AA528A528A528A528A528A528A5277
:103950008A528A528A4A8A4A8A526A4A8A4A8A4ACF
:103960008A4A6A4A8A4A8A4A8A4A8A4A8A4A8A4AD7
:103970008A4A8A4A8A4A8A4A8A4A8A4AAA528A4A7F
:10398000AA52AA52AA52AA52AA52AA52AB52AA5256
:10399000AB52AB52CB52CB52CB52CB52CB52CB527F
:1039A000CB52CB52CB52EB5ACB52CB52CB52EB5ADF
:1039B000EB5AEB5AEC5AEB5AEC5A0C5B0C5B0C5B77
:1039C0000C5B0C5B0C5B0C5B0C5B0C5B2C632C636F
:1039D0000C5B2C632C632C632D630C630C632C63D6
:1039E0002C634D63EC5A2C634D6B4D6BCB5A4D6B76
:1039F0000C5B6C6B86316110A31004212529042116
:103A00000421E420E318C318A318C318C318A3188B
:103A1000821081108210A218610841088210611082
:103A200061082108400861082008410861088210E7
:103A300061088210410861088210E3200421C31844
:103A4000A210C3186529C739AA526A4A4D636E6B22
:103A50004D638E6B4D636D6B6D6B6D6B6D6B6D6BD5
:103A60006D6B4D6B4D6B4D6B4D6B4D634D634D638E
:103A70004D634D6B4D634D632D632D632C632D633F
:103A80002C632C632C632C632C630C630C630C631E
:103A90000C630C5B0C5B0C5B0C5B0C5BEC5A0C5B07
:103AA0000C5BEC5AEC5AEC5AEB5AEB5AEB5ACB5AE9
:103AB000CB5AEB5ACB5ACB5ACB5ACB52CB5ACB52CE
:103AC000CB52AB52AB52AB52AB52AA52AA52AA52F1
:103AD0008A528A52AA528A528A528A528A528A52E6
:103AE0008A528A4A8A4A8A528A528A4A6A4A6A4A5E
:103AF0008A4A6A4A8A4A8A4A8A4A8A4A8A4A8A4A46
:103B00008A4A8A4A8A4A8A4AAA52AA528A4AAA529D
:103B1000AA52AA52AA52AA52AA52AB52AB52AA52C3
:103B2000CB52AB52CB52CB52CB52CB52CB52CB52CD
:103B3000CB52CB52CB52EB5AEB5AEB5AEB5AEB5AD5
:103B4000EB5AEB5AEC5AEC5A0C5B0C5B0C5B0C5BC3
:103B50000C5B0C5B0C5B0C5B0C5B0C5B2C632C63DD
:103B60002C632C632C630C632D634D630C5B0C5B2B
:103B70004D632C632C630C634D63EB5A4D6B2C63CC
:103B8000EB5AE3206110C31825290421242145297B
:103B9000252904210421E320E320C318A218A21838
:103BA000A210610841086110C318811081108110B2
:103BB000A21061088210A218A2188210821081102F
:103BC0008110A2102108410841086210E3206529F4
:103BD000242182108210E31886318A528A520C63A3
:103BE0006D6B4D638E6B8E6B6E6B8E6B6D6B6D6BD9
:103BF0006D6B6D6B6D6B4D6B4D6B6D6B6D6B4D636D
:103C00004D6B4D6B4D6B4D6B4D6B2D634D634D632C
:103C10002D632C632C632C632C632C632C632C632B
:103C20002C5B0C5B0C5B0C630C5B0C5B0C5B0C5B34
:103C30000C5B0C5B0C5BEC5AEB5AEC5AEC5AEB5AF3
:103C4000EB5AEB5AEB5ACB5ACB5ACB5ACB5ACB5AEC
:103C5000CB52AB52AB52AB52AB52AB52AA52AA525E
:103C6000AA52AA528A52AA528A528A528A528A5214
:103C70008A528A528A528A528A52894A8A4A6A4A9D
:103C80006A4A8A4A8A528A4A8A4A8A4A8A4A8A4AAC
:103C90008A4A8A4A8A4A8A4AAA528A4AAA52AA520C
:103CA000AA52AA52AA52AA52AA52AA52AB52AB5232
:103CB000AB52AB52CB52CB52CB52CB52CB52CB525C
:103CC000EB5ACB52EB5AEB5AEB5AEB5AEB5AEB5AF4
:103CD000EC5AEC5A0C5B0C5B0C5B0C5B0C5B0C5BEE
:103CE0000C5B0C5B0C5B0C5B0C5B2C632C632C6324
:103CF0002C632C632D632C634D634D632D632C6308
:103D00002C634D6B2D63EB5AEC5A4D6BEC5A695298
:103D10008110A218E32004212429452945292421C2
:103D2000E318C318E320C3188210C318C318E32094
:103D3000A218A2188210A210A210C2188210A218F3
:103D4000C318E318A2188210A2188210611061082B
:103D5000821081108210611061086108A210A218FF
:103D60002529452904218210611024292842694A05
:103D70000C634D6B8E6B8E6B8E6B8E6B6E6B6E6B86
:103D80006E6B6E6B6D6B6D6B6D6B6D6B6D6B6D6B71
:103D90004D6B6D6B4D6B4D6B4D6B4D6B4D6B4D634B
:103DA0004D634D634D634D632C632C632C632C6317
:103DB0002C630C630C630C5B0C5B0C5B0C5B0C5B93
:103DC0000C5B0C5B0C5BEC5AEC5AEB5AEB5AEB5A63
:103DD000EB5AEB5AEB5ACB5ACB5ACB5ACB5ACB5A5B
:103DE000CB5ACB52AB52AB52AB52AB52AB52AA52A4
:103DF000AA52AA52AA528A528A528A528A528A5283
:103E00008A528A528A528A4A8A528A4A8A528A4AEA
:103E10008A4A6A4A8A528A4A8A4A8A4A8A4A8A4A1A
:103E20008A4A8A4A8A4A8A4A8A4A8A4AAA52AA52A2
:103E3000AA52AA52AA52AA52AA52AB52AA52CB5280
:103E4000CB52CB52CB52CB52CB52CB52EB5AEB5A3A
:103E5000EB5ACB52CB52EB5AEB5AEB5AEB5AEB5A8A
:103E6000EB5AEC5AEC5A0C5B0C5B0C5B0C5B0C5B7E
:103E70000C5B0C5B2C632C632C632C632C632D6319
:103E80002C634D634D634D632D636D6B2C634D63EC
:103E90002C634D6B4D6BAA520C630C63284A811046
:103EA000C218E3200421252965294529E32024217E
:103EB00004210421C318C318C318A2106110811073
:103EC000E3200421C31882108110C3180421E320C9
:103ED000A218C318A218821061106110411081103D
:103EE00061108210A21082104008811061088210B7
:103EF000C318242924212529E420821004212842E2
:103F0000694A0C5B2C638E6B8E6B8E6B8E6B8E6B2B
:103F10008E6B6E6B8E6B8E6B6E6B6D6B6D6B6D6B7C
:103F20006D6B4D6B4D6B4D6B4D6B6D6B4D6B4D6B91
:103F30004D634D634D634D632D632D632C632C6383
:103F40002C630C632C632C5B0C5B0C5B0C5B0C5BC1
:103F50000C63EC5A0C63EC5AEC5AEC5AEC5AEB5AE0
:103F6000EB5AEC5AEB5ACB5AEB5ACB5ACB5ACB5AA8
:103F7000CB5ACB5ACB52CB52AB52AB52AB52AA52CA
:103F8000AA52AB528A528A52AA528A528A528A52F0
:103F90008A528A528A528A528A528A4A8A4A8A5251
:103FA0006A4A6A4A8A528A4A8A4A8A4A8A4A8A4AA9
:103FB0008A4A8A4AAA52AA52AA52AA528A528A52B1
:103FC000AA52AA52AA52AA52AB52AB52AA52CB52EE
:103FD000CB52CB52CB52CB52CB52CB52EB5AEB5AA9
:103FE000CB52EB5AEB5AEB5AEB5AEB5AEC5AEB5AD0
:103FF0000C5B0C5BEC5A0C5B0C5B0C5B0C5B0C5BAA
:104000002C632C632C632C632C632C632D632D6336
:104010002D632D634D634D634D632C636D6B6D6B31
:104020002D632C632C630C638A52C6398110A2184D
:104030000421242124298631042104214529042135
:10404000E320C318C3180321E320C318E320E320AF
:10405000E320E32004212429453165310321032194
:10406000E320A218A218A2188210821082108210D7
:10407000611081106110A2106108200841086108D8
:10408000C218C31845294529E320E318A218E318EC
:10409000A63989520C630C636E6B8E738E6B8E6BBC
:1040A0008E6B8E6B8E6B6D6B6E6B8E6B6E6B6E6BC9
:1040B0006D6B6E6B6E6B6D6B6D6B6D6B6D6B4D6B5E
:1040C0004D6B4D634D634D634D634D634D632D6388
:1040D0002C632C632C632C632C632C630C5B0C5BB8
:1040E0000C5B0C5B0C630C630C5B0C5BEC5AEC5ACA
:1040F000EC5AEB5AEB5AEB5AEB5AEB5ACB5ACB5AD7
:10410000CB52CB52CB5ACB5ACB52CB52AB52AB52F7
:10411000AA52AB52AA528A528A52AA52AA528A521E
:104120008A528A528A528A528A528A528A528A52AF
:104130006A4A6A4A8A528A4A8A4A8A4A8A4A8A4A17
:104140008A4AAA52AA528A4AAA52AA52AA52AA52DF
:10415000AA52AA52AA52AA52AB52AB52AB52CB525B
:10416000CB52CB52CB52CB52CB52CB52CB52EB5A3F
:10417000EB5AEB5AEB5AEC5AEB5AEC5AEC5AEC5A13
:104180000C5B0C5B0C5B0C5B0C5B0C5B2C632C63A7
:104190002C632C632C632C632D632D634D634D6363
:1041A0004D634D634D634D636D6B4D634D638E6B1E
:1041B0006D6B0C63AB522C63A6398110C318452973
:1041C000252924214529242124214529242924295C
:1041D00004210421242982106110C318C318A210DD
:1041E0008210E31844294429242924292429E3207E
:1041F000C318A218C318C21882108210821082102D
:104200008210A210A2108210A21861106108A210E0
:10421000C218E318242924292421E318E318C31819
:10422000C21865298A522C632D634D6BAE73AE7331
:10423000AE736E6B6E6B8E6B8E6B8E6B8E6B8E6BCE
:104240008E6B8E6B6E6B8E6B6E6B6E6B6D6B6D6B48
:104250006D6B6D6B4D634D634D634D634D634D638E
:104260004D632D632C632C632C632C632C632C63B4
:104270002C5B0C630C630C630C5B0C63EC5AEC5A08
:10428000EC5AEC5AEB5AEC5AEB5AEB5AEB5AEB5A03
:10429000CB5ACB52CB5ACB5ACB5ACB5ACB52AB522E
:1042A000AB52AB52AB52AA52AA52AA52AA528A524B
:1042B0008A528A528A528A528A528A528A528A4A26
:1042C0008A4A8A4A8A528A4A8A4A8A4A8A4A8A4A46
:1042D0008A4AAA52AA52AA52AA52AA52AA52AA5226
:1042E000AA52AA52AA52AB52AB52CB52CB52CB5289
:1042F000CB52CB52CB52CB52CB52EB5AEB5AEB5A5E
:10430000EB5AEB5AEB5AEB5AEC5AEC5A0C5BEC5A60
:104310000C5B0C5B0C5B0C5B0C5B0C5B2C632C6315
:104320002C632C632D632D634D634D634D634D638F
:104330004D634D634D636D6B6D6B4D6B4D6B2C63BE
:104340006D6BCA5A2C6385316110A21804210421B7
:1043500024294529E31845294529242945290421EB
:104360000321E3204108A210C31804210429452990
:10437000863165312429442944290321C32003219E
:10438000E320E320611061108210611041084108B0
:1043900061106110A21861108210A21061086108FA
:1043A000A210C318E318E420E318E320A210C318F6
:1043B000A318A2104529CB5A2D634D6B4D6B6D6B25
:1043C0008E6BAE73AE738E6B8E6B8E6B8E6B8E6BD5
:1043D0008E6B8E6B8E6B8E6B8E738E6B6D6B8E6B2E
:1043E0006D6B6D6B6D6B4D6B6D6B4D634D6B4D639D
:1043F0004D634D634D634D632C632C632C632C63C1
:104400002C630C630C630C630C630C630C5B0C5B24
:10441000EC5AEC5AEC5AEB5AEB5AEB5AEB5AEB5A71
:10442000CB5ACB5ACB5ACB5ACB5ACB52CB52CB527C
:10443000AB52AB52AA52AB52AA52AA52AA52AA5299
:104440008A528A528A528A528A52AA528A528A526C
:104450008A528A4A8A528A4A8A4A8A4A8A4A8A4AAC
:10446000AA528A4AAA52AA52AA52AA52AA52AA5294
:10447000AA52AA52AB52AB52AB52CB52CB52CB52F6
:10448000CB52CB52CB52CB5AEB5AEB5AEB5AEB5A9C
:10449000EB5AEB5AEC5AEC5AEC5AEC5AEC5A0C5BCD
:1044A0000C5B0C5B0C5B0C5B2C632C632C632C6334
:1044B0002C632C632D634D634D634D634D634D63DE
:1044C0004D636D6B6D6B6D6B6D6B4D6B6D6B4D6B94
:1044D000CB5A0C5BA6398110A318E320042145298F
:1044E0000421E42065318631653104210421042151
:1044F000C218821004216529A639853165318539B4
:10450000242924294431E320C218E320A218611091
:1045100061108210E3208110410861108110611048
:10452000611061088210811061106110A218611081
:104530006110A218E32025294529E420C318821020
:104540008210C318A21024296D6B0C630C5B6D6B79
:104550006E6BAE738E6B8E6B8E6B8E6B8E6B8E6B8B
:104560008E6B8E6B8E6B8E6B8E6B8E6B8E6B8E6B83
:104570008E6B8E6B6D6B6D6B6D6B6D6B4D6B4D6381
:104580004D634D634D634D632D634D632C632C630D
:104590002C632C630C630C630C630C5B0C630C5B73
:1045A0000C5B0C63EC5AEC5AEB5AEB5AEC5AEB5A94
:1045B000CB5AEB5ACB5ACB5ACB5ACB5ACB52CB52C3
:1045C000CB52AB52AA52AB52AA52AA52AA52AA52E8
:1045D0008A528A528A528A528A528A528A528A52FB
:1045E0008A528A4A8A528A4A8A4A8A4A8A4AAA52F3
:1045F0008A4AAA52AA52AA52AA52AA52AA52AA5203
:10460000AA52AB52AB52AB52AB52CB52CB52CB5263
:10461000CB52CB52CB5AEB5ACB5AEB5AEB5AEB5A02
:10462000EB5AEC5AEB5A0C5B0C5B0C5B0C5B0C5BB7
:104630000C5B0C5B0C5B2C632C632C632C632D6379
:104640002C632C634D634D634D634D636D6B6D6BDC
:104650006D6B6D6B6D6B6D6B8E6B6D6B6E6B0C63E1
:10466000CB5A07426110C318E31824214529242995
:1046700004216531A6390421452925292429E3206F
:1046800004216531A63165316531A63965312429AA
:104690002429E320C320E320C218A218A21082100C
:1046A000C21882108210E320C318A210811061107A
:1046B00040088210811081106110611081108210F9
:1046C00041088210A218042166312429E318C31876
:1046D000A2188210C218C21803210C634D6B2D63FF
:1046E000EB5A4D6B8E73AF73AF73AF73AF73AE7323
:1046F000AE738E6BAE738E6BAE738E6B8E6B8E6B7A
:104700008E6B8E6B6E6B6E6B6D6B6D6B6D6B6D6BA5
:104710004D634D634D634D634D634D634D632D6339
:104720002C632C632C632C632C632C5B0C5B0C6361
:104730000C5B0C5B0C5BEC5AEC5AEC5AEB5AEB5AE8
:10474000EB5AEB5ACB5AEB5ACB5ACB5ACB5ACB5AE1
:10475000CB52CB52AB52AA52AA52AA52AA52AA5236
:10476000AA52AA52AA528A528A528A528A528A5209
:104770008A528A52AA528A4A8A4A8A4AAA52AA5211
:10478000AA52AA52AA52AA52AA52AA52AA52AA5249
:10479000AA52AA52AB52AB52CB52CB52CB52CB52B3
:1047A000CB52CB52EB52EB5AEB5AEB5AEB5AEB5A39
:1047B000EC5AEB5A0C5B0C5B0C5B0C5B0C5B0C5B04
:1047C0000C5B0C5B2C632C632C632C632C634D63A0
:1047D0004D634D634D634D634D634D636D6B6D6B09
:1047E0006D6B6D6B6E6B6D6B8E6B6D6B0C63CB520B
:1047F000694A8110A218C31804214529E3202429FD
:1048000086316531042186316531452924292429E1
:10481000452945296631A639863965312429242957
:10482000242944294429E320E320A218C318C318EB
:104830008210A2188110811082106110A2188218B3
:1048400061108210A21082108110821061108210FB
:10485000611061086110A218C3206531653104211F
:10486000A318C318A210C218A2188631CB5A0C6321
:10487000AF734D6B4D6BCF73AE73AE73AE73AF73DF
:10488000AE73AE73AE73AE73AE73AE738E6BAE7348
:104890008E6B8E6B8E6B8E6B6E6B6E6B6E6B6D6BD1
:1048A0006D6B6D6B4D6B4D634D634D634D634D6330
:1048B0002D632D632C632C630C632C632C630C5BC6
:1048C0000C630C630C630C5B0C5BEC5AEC5AEC5AFB
:1048D000EB5AEB5AEB5AEB5ACB5ACB5ACB5ACB5A30
:1048E000CB5ACB5AAB52AB52AB52AB52AB52AB5290
:1048F000AB52AA52AA52AA52AA52AA528A528A5217
:104900008A528A528A528A4A8A4A8A4AAA52AA529F
:104910008A4AAA52AA52AA52AA52AA52AA52AB52DE
:10492000AB52AB52AB52CB52CB52CB52CB52CB52FF
:10493000CB52EB5AEB5AEB5AEB5AEB5AEC5AEC5A75
:10494000EC5AEC5A0C5B0C5B0C5B0C5B0C5B0C5B71
:104950002C632C632C632C632C632C632D634D63BD
:104960004D634D634D634D634D636D6B6D6B6D6B4F
:104970006D6B6E6B8E6B6E6B8E730C630C63CA5AB1
:10498000A218A218C31824292421C318653165313F
:10499000452945296531452986314529242965312F
:1049A0006531C639A6392429242965316531453157
:1049B0004429E320C318C218A218C318A218A218C9
:1049C000C318A218A2188210611082108210611000
:1049D000A2188210821082108210A2188210611018
:1049E000811061088210C218C318C318E320653112
:1049F000E32061108210A218A2188210E7392C63FC
:104A00002C638E6B0C632D63CF73CF73AE73AE7359
:104A1000AE73AE73AF73CF73AF73AF73AE73AE736A
:104A2000AE738E6B8E738E6B8E6B6E6B8E6B6D6BCF
:104A30006D6B6D6B6D6B6D6B4D634D634D6B4D634E
:104A40004D632D632D632D632C632C632C632C63CA
:104A50000C630C630C630C630C5BEC5A0C5BEC5A40
:104A6000EC5AEB5AEC5AEB5AEB5ACB5ACB5ACB5A7C
:104A7000CB5ACB5ACB52AB52AB52AB52AB52AB52DE
:104A8000AA52AA52AA52AA528A528A52AA528A52A6
:104A90008A528A528A528A4A8A4AAA528A4A8A4A36
:104AA000AA52AA52AA52AA52AA52AA52AA52AA5226
:104AB000AB52AB52AB52CB52CB52CB52CB52CB526E
:104AC000EB5AEB5ACB5AEB5AEB5AEC5AEB5AEC5ADC
:104AD000EC5AEC5A0C5B0C5B0C5B0C5B0C5B0C5BE0
:104AE0002C632C632C632C632C634D634D634D63EB
:104AF0004D634D636D6B6D6B6D6B6D6B6D6B6D6B46
:104B00006E6B8E6B6E6B8E6B6D6B0C63AA52242971
:104B10008210A2180421E420E3182421452904214D
:104B20004529452965318531863144298531A639A4
:104B3000C641A63965318639A639653185312429C2
:104B4000E320C32004210421E320C318A218A218E3
:104B5000611082108210A2188210811081108110C1
:104B6000A210A218A2188110A218A218E320821085
:104B7000A21861104108A218E32025292429042144
:104B80004529E3188210410881108210E3208A52DF
:104B90006D6BAE738E734D6B8E73F07BCF73CF7373
:104BA000CF73CF73CF73CF73CF73CF73AF73AF7335
:104BB000AE73AE73AE738E6B8E6B8E6B8E6B8E6BB5
:104BC0008E6B6E6B6E6B6D6B6D6B6D634D6B4D6B4A
:104BD0004D634D634D634D634D632D632C630C63D7
:104BE0000C630C630C630C630C630C5B0C5B0C5B65
:104BF000EC5AEC5AEB5AEC5AEB5ACB5AEB5ACB5ACA
:104C0000CB5ACB5ACB5ACB5AAB52AB52AB52AB521C
:104C1000AB52AA52AA52AA52AA528A52AA52AA52D3
:104C20008A528A528A528A4A8A4AAA528A4AAA527C
:104C30008A4AAA52AA52AA52AA52AA52AA52AB52BB
:104C4000AB52AB52CB52CB52CB52CB52CB52CB52BC
:104C5000CB52EB5AEB5AEB5AEB5AEC5AEB5A0C5B31
:104C60000C5B0C5B0C5B0C5B0C5B0C5B0C5B2C63E4
:104C70002C632C634D632C634D634D634D634D6317
:104C80006D6B4D636D6B6D6B6D6B6E6B6D6B6E6B8A
:104C90008E6B8E6B8E6B8E6B8E6BAA52A6318210D2
:104CA0008210E320C318042104212429042145296A
:104CB000042165316531653104216531A639A63994
:104CC00065316531A639242945314429E320C318CB
:104CD00024294531E320C318A218C318C318C318E8
:104CE000E320A21882108210A218C218A218A218DB
:104CF000A218A218C218E320A218C218C218C2181B
:104D0000A218611041086110A21804214529242924
:104D10000421E320C218A21861108210A2180421F5
:104D20008A522D63EF7BAF730C5BCF7BEF7BEF7B06
:104D3000EF7BCF73CF73CF73CF73CF73CF73CF733B
:104D4000CF73AF73AE73AE73AE73AE738E6B8E6B89
:104D50008E6B8E6B6E6B6E6B6D6B6E6B4D6B4D6B8E
:104D60004D6B4D634D634D634D634D632D632C63FC
:104D70002C632C630C630C630C630C630C5B0C5B8B
:104D8000EC5AEC5AEC5AEB5AEB5AEB5ACB5ACB5A38
:104D9000CB5ACB5ACB5ACB5ACB5AAB52AB52AB5263
:104DA000AB52AB52AA52AA52AA52AA52AA528A5241
:104DB0008A528A528A528A4AAA52AA528A4AAA52C3
:104DC000AA52AA52AA52AA52AA52AB52AB52CB52E0
:104DD000AB52CB52CB52CB52CB52CB52CB52CB520B
:104DE000EB5AEB5AEB5AEC5AEC5AEB5AEC5A0C5B76
:104DF0000C5B0C630C630C5B0C5B2C632C632C63F3
:104E00002D634D632D634D634D634D634D636D6B3A
:104E10004D636D6B6D6B6D6B6D6B8E6B6E6B8E6BB7
:104E20008E6B8E6B8E6B8E6B2C632842A210821859
:104E3000A218C318E320042145292429452924293F
:104E400065318631653145296531C739C639A6399D
:104E50006531863145296531452965314429452922
:104E60000429E320E320C2188210821081108108F7
:104E700082108210821082108210A218A218C31809
:104E8000C318E320E3204429E320E3200321032186
:104E900044292429A218821041086110821004219B
:104EA0000421E320C318A21882108110A2108218D6
:104EB00004216D6B4D6BAF7331840C63EF7BCF734B
:104EC000CF73EF7BEF7BEF7BEF7BEF7BEF7BCF73E2
:104ED000CF73CF73AF73AF73AF73AF73AE738E6BAC
:104EE0008E6B8E6B8E6B8E6B8E6B8E6B6D6B6D6B3C
:104EF0006D6B4D6B4D634D6B4D634D634D634D63FA
:104F00002D632C632C630C630C630C630C630C63C8
:104F1000EC5A0C5BEC5AEC5AEB5AEB5AEB5ACB5A64
:104F2000EB5AEB5ACB5ACB5ACB52CB5ACB52CB5231
:104F3000AB52AB52AB52AA52AA52AA52AA528A52AE
:104F40008A528A52AA528A4AAA528A4AAA52AA5211
:104F5000AA52AA52AA52AA52AA52AB52AB52AB526E
:104F6000CB52CB52CB52CB52CB52CB52EB5AEB5211
:104F7000EB5AEB5AEB5AEC5AEC5A0C5B0C5B0C5BA1
:104F80000C5B0C630C630C632C632C632C632C6331
:104F90002C634D634D634D634D634D636D6B6D6B62
:104FA0006D6B6D6B6D6B6D6B8E6B8E6B8E6B8E6BBD
:104FB0008E6BAE6BAF736D6B8952E320A218A31892
:104FC000C318E32024290321452904212429452944
:104FD0004529663145296531C741A639A63986314B
:104FE0008631653165314531242924294429032935
:104FF0000421C31882108210A218C318E320E320F2
:10500000E320C318C318E320C3200321032104298C
:10501000243103216531453165394531453144310C
:105020008539E641A639A2188210A210C318C31808
:10503000C3182421C318C318821081108110C2180C
:10504000A218A6398E6B2D631084CF738E6B107CE3
:10505000F07BF07BF07BEF7BEF7BEF7BEF7BEF7BFD
:10506000CF73CF73CF73CF73CF73AF73AE73AE7392
:10507000AE73AE738E6B8E6B8E6B8E6B6E6B8E6B38
:105080006D6B6D6B4D6B6D6B4D6B4D6B4D6B4D6B00
:105090004D632D632C632C630C630C630C630C63F6
:1050A0000C630C630C5BEC5AEC5AEC5AEB5AEB5A5F
:1050B000EB5ACB5ACB5ACB5ACB5ACB5ACB5AAB52D0
:1050C000CB52AB52AB52AB52AA52AA52AA528A52FC
:1050D000AA528A52AA52AA528A4A8A4AAA52AA5260
:1050E000AA52AA52AA52AA52AA52AB52AB52AB52DD
:1050F000CB52CB52CB52CB52CB52CB52EB5AEB5A78
:10510000EB5AEB5AEB5AEC5A0C5B0C5B0C5B0C5BEE
:105110000C5B0C630C630C632C632C632C632D639E
:105120004D634D634D634D634D634D636D6B6D6BAF
:105130006D6B6D6B8E6B8E6B6E6B8E6B8E6B8E6B09
:105140008E6BAE73CF73AA52A6398210A218C31801
:10515000E320E320E32024292429E320653186315C
:10516000452945296531A639A639A63986318639BA
:10517000653165312429242986312429C320E3207F
:105180008210C320042924290421E3200421442976
:105190002429242945292429242924296531A639AB
:1051A00085398539A539074AA639C741084AE741F3
:1051B000074A895AE7416531E320E318E4200421D6
:1051C0000421C318E320C318A21881108210821092
:1051D000A218C318EC628E730C6351844D63318442
:1051E000107C107C107C107C107CF07BEF7BF07BC3
:1051F000F07BF07BCF73CF73CF73CF73CF73AF736D
:10520000AE73AF73AE738E6B8E6B8E6B8E6B8E6B5D
:105210006E6B6E6B6E6B6D6B6D6B4D6B4D6B4D6B2B
:105220004D6B4D632D632D632C632C630C630C63FA
:105230000C630C630C5B0C5BEC5AEC5AEC5AEB5AAB
:10524000EB5AEB5ACB5ACB5ACB5ACB5ACB5ACB5AF6
:10525000CB52AB52AB52AA52AA52AA52AA528A526B
:105260008A528A52AA52AA528A4AAA52AA52AA52C6
:10527000AA52AA52AA52AB52AB52CB52CB52CB52E9
:10528000CB52CB52CB52CB52CB52CB52EB5ACB5A06
:10529000EB5AEC5AEB5AEC5A0C5B0C5B0C5B0C5B5C
:1052A0000C5B0C630C630C632C632C632C632D630D
:1052B0004D634D6B4D634D636D6B6D6B6D6B6D6BC6
:1052C0006E6B6E6B8E6B8E6B8E6B8E6B8E6BAE732E
:1052D000AE73CF730C63CB5A8110A218C318C318D6
:1052E0000421E32024290321E320653124294429D2
:1052F000452966318631A63986316631A639653150
:10530000663124296531863124292429E3200429A2
:1053100045310429E320E3202429242924290429D0
:105320004431653124318539853944318539C64167
:10533000C641E6414852685A2852685ACA62685AB9
:105340002C73AA62C641A6394429042104212429C8
:1053500024290421C318A218A218A21081108210B7
:105360008210821044296D6B8E732C63EF7BCF7398
:1053700031843084107C107C107C107C107C107C7C
:10538000F07BF07BF07BF07BF07BCF73CF73CF7340
:10539000CF73AF73AF73AF73AE738E6B8E6B8E6B59
:1053A0008E6B8E6B6E6B6E6B6D6B6D6B6D6B4D6B19
:1053B0004D6B4D6B4D632D632D632C632C630C6320
:1053C0000C630C630C630C63EC5AEC5AEC5AEC5A09
:1053D000EB5AEB5AEB5ACB5ACB5ACB5ACB5ACB5A45
:1053E000CB5ACB52AB52AB52AB52AA52AA52AA5290
:1053F000AA528A52AA528A4A8A4AAA52AA52AA523D
:10540000AA52AA52AA52AB52CB52CB52CB52CB5237
:10541000CB52CB52CB52CB52CB52EB5AEB5AEB5A2C
:10542000EB5AEC5AEC5A0C5B0C5B0C5B0C5B0C5BA8
:105430000C5B0C632C632C632C632D634D634D63F9
:105440004D634D6B4D6B4D636D6B6D6B6D6B8E6B0B
:105450006E6B6E6B8E6B8E6B8E6BAE73AE738E6B74
:10546000AE73AF73EB5A65298210A218C318E320FC
:10547000E320E320E320E320242904210321042165
:1054800024292429E7416531863965316531853123
:10549000032165316531E3200429E3200321C3188A
:1054A000A210E31824292429653186398531C641A3
:1054B0008539E7412852695A695A2752C64107522D
:1054C000685A6852685A0B73685A2B7B8C83EA6A55
:1054D0002B732852074AC641863965312429042195
:1054E000E320C318C318C318A218A2188110821091
:1054F000A2188210A21869522C6310842C638E6B40
:1055000051843184308430843184107C107C107C50
:10551000107C107CF07BF07BF07BF07BEF73CF7323
:10552000CF73CF73CF73AF73AF73AE73AE738E6B36
:10553000AE6B8E6B8E6B8E6B8E6B6E6B6D6B6D6BE5
:105540006D6B4D6B4D634D6B4D632C632C632C6306
:105550002C630C630C630C5B0C5BEC5AEC5AEC5A3E
:10556000EB5AEC5AEB5AEB5ACB5ACB5ACB5ACB5A92
:10557000CB52CB52AB52AA52AA52AA52AA52AA5208
:10558000AA52AA52AA52AA528A4AAA52AA52AA5263
:10559000AA52AB52AA52AB52AB52CB52CB52CB52C5
:1055A000CB52CB52CB52CB52EB5AEB5AEB5AEB5A73
:1055B000EC5A0C5BEC5A0C5B0C5B0C5B0C5B0C5BF5
:1055C0000C5B2C632C632D632D632D634D634D6346
:1055D0004D634D634D6B6D6B6D6B6E6B6E6B8E6B58
:1055E0006E6B6E6B8E6BAE738E6BAE73AE738E6BBB
:1055F000CF730C6369526110A218C218C318C31884
:10560000E320E320E32003210421E32003210421FC
:105610004529A639653165318639653145316531B0
:10562000A6394531E32024292429C318C318E320CF
:1056300045294529A639284A485248526852895A6C
:1056400089628962A9620B738D834F9C4B7B0A73BD
:105650000B730B7B89628C8B2B7BAC8BCD8B2B7B69
:10566000274AE741C641A64165312429E320E320CA
:10567000E320C318A218A2188210A2108110821071
:10568000A218C218A2180429EB5A2C638E73CB5AA5
:1056900010843184107C30843184318431843084AE
:1056A000107C107C107C107CF07BF07BF07BF07B1E
:1056B000EF7BCF73CF73CF73CF73CF73AF73AF73F2
:1056C0008F738E6B8E6B8E6B8E6B6E6B6E6B6D6B6A
:1056D0006D6B4D6B6D634D634D6B4D632D632C6333
:1056E0002C630C632C5B0C5B0C630C5BEC5A0C5B4B
:1056F000EC5AEC5AEB5ACB5ACB5ACB5ACB5ACB5A20
:10570000CB5AAB52AB52AB52AB52AA52AB52AA528B
:10571000AA52AA52AB52AA52AA52AA52AA52AA52A8
:10572000AA52AB52AB52CB52CB52CB52CB52CB52F2
:10573000CB52EB52EB5AEB5AEB5AEB5AEB5AEC5A70
:10574000EC5AEC5A0C5B0C5B0C5B0C5B2C630C5B3B
:105750002C632C632C632C634D634D634D634D634D
:105760004D634D636D6B6D6B6E6B6E6B8E6B8E6B85
:105770006E6B8E738E6BAE73AE73AE73AE73CF7390
:10578000AE73EB5A0321A218C218A218C318E32063
:10579000E320C318E3200421E320C31804210429D3
:1057A0004531853965316531863945294531863937
:1057B000453145314429C3208218E3204529A639C3
:1057C000E749CA62EB6AAE8BCE8B4F9C0E94EE9388
:1057D000EE93AD8B8D8B8C8B8C8B2E9C90AC0E9C1A
:1057E0004FA44FA490AC2B7BAC8B4FA40E944C7B5E
:1057F0000B73485A074A853965312429E320821002
:10580000A218C318A21861106110610881108110DC
:105810008210A218E320A21828428E738E732D6383
:105820008E73518C518431843084107C3184308467
:10583000308431843084107C107C107C107CF07BB0
:10584000F07BF07BCF73CF73CF73CF73CF73AF7316
:10585000AF73AF738E6BAE738E6B8E6B6E6B6E6B46
:105860006E6B6D6B4D6B6D6B4D6B4D634D634D632F
:105870002D632C630C630C630C630C630C630C5B77
:105880000C5BEC5AEC5AEB5AEB5AEB5AEB5ACB5AEC
:10589000CB5ACB5ACB52CB52AB52AB52AA52AB5291
:1058A000AA52AA52AB52AA52AA52AA52AA52AA5217
:1058B000AA52AB52AB52CB52CB52CB52CB52CB5261
:1058C000CB52CB52CB5AEB5AEB5AEB5AEB5AEC5A1F
:1058D0000C5B0C5B0C5B0C5B0C5B0C5B2C630C5B68
:1058E0002C632C632D632D634D634D634D634D63BA
:1058F0006D6B6D6B6D6B6E6B8E6B6E6B8E6B8E6B83
:105900008E6BAE73AE73AE73AF73CF73CF73EF7B2B
:105910004D6B2842A2108210C318C218C318C318B6
:10592000C318E320C318E320A218E320C318E32020
:10593000863945316531A63924298639863944317D
:10594000863924298218C3184531C641074A48526E
:10595000EB6A0E9491A4D1B433BD73C594CDD5D563
:1059600074CD94CD33C5D1B4B1B4B1B4D1BC32C5CA
:10597000F2BC94CD12BD2FA46FAC0EA4CD93AD8B11
:10598000CA6A895A074AC64185392429E320042175
:10599000E3208210611081106110610861106110B4
:1059A0008210A2108210C3200321EB5AAF738E73B2
:1059B000CA52308451845184518451845184107C62
:1059C000318431843184107C107C107C107C107CFC
:1059D000F07BF07BF07BF07BCF73CF73CF73CF7313
:1059E000AF73AF73AF73AE73AE738E6B8E6B8E6B24
:1059F0008E6B6E6B6E6B6D6B4D6B4D6B4D6B4D634C
:105A00004D632C632C630C632C630C630C630C637D
:105A10000C63EC5AEC5AEB5AEC5AEB5AEB5AEB5A31
:105A2000EB5ACB5ACB5ACB5ACB52AB52AB52AB52AE
:105A3000AA52AA52AB52AA52AA52AA52AA52AA5285
:105A4000AB52AB52CB52CB52CB52CB52CB52CB52AE
:105A5000CB52CB52EB5AEB5AEB5AEB5AEB5AEB5A6E
:105A60000C5B0C5B0C5B0C5B0C5B2C632C632C6386
:105A70002D632D632D634D634D636D6B4D636D6BB6
:105A80006D6B6D6B6D6B8E6B8E6B8E6B8E6B6E6BD1
:105A9000AE73AE73AE73CF73CF73CF73CF73EF7B31
:105AA000AA52E32082108210A218C318C318C31888
:105AB000E320A218C318C218A218E320C31824298F
:105AC0006531453165314529653986394531653955
:105AD000C320C2204431E7492852AA62CA6A6C7BBB
