:020000040800F2
:10000000180400204501000859040008E103000815
:1000100055040008C5010008FD06000800000000A6
:100020000000000000000000000000007D04000847
:10003000C9010008000000005B040008F505000885
:100040005F0100085F0100085F0100085F01000810
:100050005F0100085F010008CD0100085F01000892
:10006000F901000825020008510200085F0100089C
:100070005F0100085F0100085F0100085F010008E0
:100080005F0100085F0100085F0100085F010008D0
:100090005F0100085F0100085F0100085F010008C0
:1000A0005F0100085F0100085F0100085F010008B0
:1000B0005F0100085F0100089D0600085F0100085D
:1000C0005F0100085F0100085F0100085F01000890
:1000D0005F0100085F0100085F0100085F01000880
:1000E0005F0100085F0100085F0100085F01000870
:1000F0005F0100085F0100085F0100085F01000860
:100100005F0100085F0100085F0100085F0100084F
:100110005F0100085F0100085F0100085F0100083F
:100120005F0100085F0100085F0100085F0100082F
:10013000DFF80CD000F018F800480047710A0008FA
:10014000180400200648804706480047FEE7FEE7FF
:10015000FEE7FEE7FEE7FEE7FEE7FEE7FEE7FEE777
:100160003D06000831010008064C074D06E0E06836
:1001700040F0010394E8070098471034AC42F6D3EE
:10018000FFF7DAFFC80A0008E80A000808B51020DF
:100190008DF803000001ADF8000003208DF8020087
:1001A0000121082000F05AF96946054800F080F85E
:1001B0004FF48071024800F00FF900F0E1F908BD3A
:1001C000000C014000BFFEE77047000010B50120A1
:1001D00000F05AF8012809D10A2000F017FC054860
:1001E0000068012802D1002100F0DCF9012000F0B4
:1001F00045F810BD0001214210B5042000F044F87C
:10020000012808D10A2000F001FC0548006810B957
:10021000012000F0A9F9042000F030F810BD000022
:100220000801234210B5082000F02EF8012809D15A
:100230000A2000F0EBFB0548006818B901210846C8
:1002400000F0B0F9082000F019F810BD0C012342AD
:1002500010B5102000F018F8012808D10A2000F08D
:10026000D5FB0548006810B9002000F07DF910208A
:1002700000F004F810BD000010012342014908609D
:100280007047000014040140014600200022074B83
:100290001B6803EA0102054B14331B680B4013B1C2
:1002A0000AB1012000E00020704700000004014076
:1002B0002DE9F041024600250026002000230024FD
:1002C000002791F803C00CF00F0591F803C00CF063
:1002D000100CBCF1000F03D091F802C04CEA0505E8
:1002E00091F800C0BCF1000F31D0146800202BE061
:1002F0004FF0010C0CFA00F3B1F800C00CEA030651
:100300009E4220D183004FF00F0C0CFA03F7BC4340
:1003100005FA03FC4CEA040491F803C0BCF1280F71
:1003200006D14FF0010C0CFA00FCC2F814C00AE030
:1003300091F803C0BCF1480F05D14FF0010C0CFA45
:1003400000FCC2F810C0401C0828D1D31460B1F8DA
:1003500000C0BCF1FF0F34DD546800202EE000F136
:10036000080C4FF0010808FA0CF3B1F800C00CEAD1
:1003700003069E4221D183004FF00F0C0CFA03F7C5
:10038000BC4305FA03FC4CEA040491F803C0BCF139
:10039000280F05D100F1080C08FA0CF8C2F81480F7
:1003A00091F803C0BCF1480F07D100F1080C4FF0E1
:1003B000010808FA0CF8C2F81080401C0828CED3B7
:1003C0005460BDE8F0810246002093680B400BB1F9
:1003D000012000E0002070474161704701617047D3
:1003E00000BFFEE7014800787047000001000020D0
:1003F00001480078704700000000002038B56C46C6
:1004000003208DF8020010208DF803002020ADF8A5
:1004100000000121082000F021F869460B48FFF791
:1004200047FF20210948FFF7D9FF20202080012124
:10043000402000F013F821460548FFF739FF20213E
:100440000348FFF7CBFF00F0A1F838BD000C0140D6
:100450000018014000BFFEE77047704729B1064A07
:1004600092690243044B9A6104E0034A9269824311
:10047000014B9A617047000000100240704710B5B0
:1004800000F002F810BD00000CB5002001900090B3
:100490003348006840F480303149086000BF30487C
:1004A000006800F4003000900198401C0190009812
:1004B00018B90198B0F5A06FF1D12948006800F48F
:1004C000003010B10120009001E000200090009861
:1004D000012843D12348006840F0100021490860FA
:1004E0000846006820F0030008600846006840F0F5
:1004F000020008601A484068194948600846406888
:1005000048600846406840F480604860084640689B
:1005100020F47C1048600846406840F4E8104860C9
:100520000846006840F08070086000BF0C48006812
:1005300000F000700028F9D00948406820F003005E
:10054000074948600846406840F00200486000BF24
:100550000348406800F00C000828F9D10CBD0000E9
:10056000001002400020024010B50446FFF73AFF99
:1005700008B9FFF70BFE0148046010BDA0812142BD
:100580000120014908707047010000200120014945
:100590000870704700000020012001490870704772
:1005A0000E00002070B505460C46FFF721FF08B984
:1005B000FFF724FF15B90348046001E00248046016
:1005C00070BD00009481214294012342042808D187
:1005D0004FF0E021096941F004014FF0E022116180
:1005E00007E04FF0E021096921F004014FF0E0221B
:1005F000116170477047000010B5044601200C4996
:100600000870801FFFF7E2FFE11704EB5171C1F39F
:10061000C701084A11701046007800EB4001C1EB99
:10062000C0104FF6FF7101EAC0000349088010BDF9
:100630000E0000200F0000201000002010B513480D
:10064000006840F001001149086008464068104900
:1006500008400E494860084600680E4908400B49AA
:1006600008600846006820F480200860084640685A
:1006700020F4FE0048604FF41F008860FFF7FFFE83
:100680004FF000600449086010BD000000100240F7
:100690000000FFF8FFFFF6FE08ED00E010B50121B5
:1006A0000A4800F01AF860B1FFF7A2FE08B9FFF798
:1006B000A5FE0748006808B9012000E000200449B1
:1006C00008600121014800F005F810BD0008004055
:1006D00094012342CA430282704730B5024600208B
:1006E00000230024158A05EA0103958905EA01041F
:1006F00013B10CB1012000E0002030BD00BFFEE7C7
:1007000010B50448006820B102490868012100F0D2
:1007100009F910BD0400002010B50448006820B19C
:1007200002490868012100F015F910BD04000020FD
:100730002DE9F04104460D461646204600F07EF8AD
:1007400007464FF000082078032801D14FF0010838
:10075000012D01D1012060706078012809D138682D
:10076000404506D10A2000F051F900206070B047E2
:100770000CE0607850B93868B8F1000F01D1012160
:1007800000E00021884201D101206070BDE8F081C5
:100790002DE9F04104460D4616461F46012F05D1AE
:1007A000324629462046FFF7C3FF2BE04FF00008F2
:1007B0002078032801D14FF00108012D01D101203B
:1007C0006070607801280CD121896068FFF7FBFD1B
:1007D000404506D10A2000F019F900206070B047AA
:1007E0000FE0607868B921896068FFF7ECFDB8F127
:1007F000000F01D1012100E00021884201D1012038
:10080000607000BFBDE8F0812DE9F84304460F4653
:1008100015461E46DDF82080666025810120607047
:100820008DF80380ADF8005001213846FFF716FE21
:1008300069463046FFF73CFDBDE8F883014608787D
:1008400020B1012804D0022808D104E004487047F0
:100850000348001FFBE702480838F8E70148F6E7BD
:10086000100123420001214238B505460C462C7088
:10087000032C08D12820134B012204210090284684
:10088000FFF7C2FF1CE044B948200F4B1022402163
:1008900000902846FFF7B8FF12E0012C08D148204D
:1008A000094B0822402100902846FFF7ADFF07E0E2
:1008B0004820054B0422402100902846FFF7A4FF62
:1008C000284638BD000801400018014010B5044614
:1008D00011480078401C104908700846007814211F
:1008E00090FBF1F201FB120090B9207840B90B485F
:1008F000006808B9012000E000200849086007E00E
:100900000748006808B9012000E000200449086099
:100910000A2000F07BF810BD0C00002094812142D9
:100920009401234270B504460D464DB1207818B9A4
:1009300001200649086007E001200549086003E03E
:1009400061886068FFF748FD70BD00009481214216
:100950009401234270B504460D464DB1207818B974
:1009600000200649086007E000200549086003E010
:1009700061886068FFF732FD70BD000094812142FC
:1009800094012342F8B505460F4614461E466C8076
:100990006E6003208DF8020010208DF80300ADF882
:1009A000004001213846FFF759FD69463046FFF700
:1009B0007FFC21463046FFF711FDF8BD70B50546B6
:1009C0000C462C7034B9074B202208212846FFF72B
:1009D000D9FF05E0044B202240212846FFF7D2FF33
:1009E000284670BD000C01400018014002E008C814
:1009F000121F08C1002AFAD170477047002001E099
:100A000001C1121F002AFBD17047000070B50546D6
:100A10001548007820B94820FFF7EEFDFFF7BCFD30
:100A20001248008868434FF0E02148610020886147
:100A30000846006940F00100086100BF4FF0E02067
:100A4000046904F0010018B104F480300028F5D0E6
:100A50004FF0E020006920F001004FF0E021086134
:100A60000020886170BD00000E00002010000020F2
:100A70008AB0002108A8FFF7A1FF012106A8FFF70F
:100A80009DFF08A80D490860002103A8FFF7ECFEB0
:100A900001216846FFF7E8FE0EE00023084A1946E8
:100AA00003A8FFF775FE0023064A19466846FFF7BC
:100AB0006FFE06A8FFF70AFFEFE700000400002022
:100AC0000107000819070008E80A000800000020D4
:100AD00014000000EC090008FC0A000814000020C3
:100AE00004040000FC0900080000000000000000F1
:0C0AF000000000000000000000000000FA
:0400000508000131BD
:00000001FF
