:020000040800F2
:10000000080400204501000891040008CF030008FF
:100010008D040008C50100081D090008000000004B
:100020000000000000000000000000005D05000866
:10003000C90100080000000019050008D5060008E5
:100040005F0100085F0100085F0100085F01000810
:100050005F0100085F010008CD0100085F01000892
:10006000F901000825020008510200085F0100089C
:100070005F0100085F0100085F0100085F010008E0
:100080005F0100085F0100085F0100085F010008D0
:100090005F0100085F0100085F0100085F010008C0
:1000A0005F0100085F0100085F0100085F010008B0
:1000B0005F0100085F0100087D0700085F0100087C
:1000C0005F0100085F0100085F0100085F01000890
:1000D0005F0100085F0100085F0100085F01000880
:1000E0005F0100085F0100085F0100085F01000870
:1000F0005F0100085F0100085F0100085F01000860
:100100005F0100085F0100085F0100085F0100084F
:100110005F0100085F0100085F0100085F0100083F
:100120005F0100085F0100085F0100085F0100082F
:10013000DFF80CD000F018F800480047A5090008C7
:10014000080400200648804706480047FEE7FEE70F
:10015000FEE7FEE7FEE7FEE7FEE7FEE7FEE7FEE777
:100160001D07000831010008064C074D06E0E06855
:1001700040F0010394E8070098471034AC42F6D3EE
:10018000FFF7DAFFC0090008E009000808B51020F1
:100190008DF803000001ADF8000003208DF8020087
:1001A0000121082000F0CAF96946054800F080F8EE
:1001B0004FF48071024800F006F900F051FA08BDD2
:1001C000000C014000BFFEE77047000010B50120A1
:1001D00000F05AF8012809D10A2000F0B1FB0548C7
:1001E0000068012802D1002100F04CFA012000F043
:1001F00045F810BD0001214210B5042000F044F87C
:10020000012808D10A2000F09BFB0548006810B9BE
:10021000012000F019FA042000F030F810BD0000B1
:100220000801234210B5082000F02EF8012809D15A
:100230000A2000F085FB0548006818B9012108462E
:1002400000F020FA082000F019F810BD0C0123423C
:1002500010B5102000F018F8012808D10A2000F08D
:100260006FFB0548006810B9002000F0EDF9102080
:1002700000F004F810BD000010012342014908609D
:100280007047000014040140014600200022074B83
:100290001B6803EA0102054B14331B680B4013B1C2
:1002A0000AB1012000E00020704700000004014076
:1002B0002DE9F041024600250026002000230024FD
:1002C000002791F803C00CF00F0591F803C00CF063
:1002D000100CBCF1000F03D091F802C04CEA0505E8
:1002E00091F800C0BCF1000F31D0146800202BE061
:1002F0004FF0010C0CFA00F3B1F800C00CEA030651
:100300009E4220D183004FF00F0C0CFA03F7BC4340
:1003100005FA03FC4CEA040491F803C0BCF1280F71
:1003200006D14FF0010C0CFA00FCC2F814C00AE030
:1003300091F803C0BCF1480F05D14FF0010C0CFA45
:1003400000FCC2F810C0401C0828D1D31460B1F8DA
:1003500000C0BCF1FF0F34DD546800202EE000F136
:10036000080C4FF0010808FA0CF3B1F800C00CEAD1
:1003700003069E4221D183004FF00F0C0CFA03F7C5
:10038000BC4305FA03FC4CEA040491F803C0BCF139
:10039000280F05D100F1080C08FA0CF8C2F81480F7
:1003A00091F803C0BCF1480F07D100F1080C4FF0E1
:1003B000010808FA0CF8C2F81080401C0828CED3B7
:1003C0005460BDE8F081416170470161704700BF32
:1003D000FEE7000010B500F027F808B900F02AF891
:1003E0000C480078401C0B4908700846007814211E
:1003F00090FBF1F201FB120038B90748006808B918
:10040000012000E00020044908600A2000F098FA6A
:1004100010BD0000020000209481214201480078B4
:10042000704700000100002001480078704700007C
:100430000000002038B56C4603208DF80200102023
:100440008DF803002020ADF800000121082000F005
:1004500075F869460B48FFF72BFF20210948FFF785
:10046000B4FF202020800121402000F067F82146C1
:100470000548FFF71DFF20210348FFF7A6FF00F006
:10048000F5F838BD000C01400018014000BFFEE740
:100490007047000070B5002100230F22C47804B318
:1004A000154C246804F4E064C4F5E064210AC1F149
:1004B0000403CA40447804FA03F1847814402143C9
:1004C00009010E4C0678A155047804F01F0501249B
:1004D000AC4005786D11AD0005F1E025C5F800418F
:1004E00009E0047804F01F050124AC40044D0678AF
:1004F000761145F8264070BD0CED00E000E400E008
:1005000080E100E002490143024A116070470000A7
:100510000000FA050CED00E07047000029B1064A22
:10052000D2690243044BDA6104E0034AD269824390
:10053000014BDA61704700000010024029B1064A01
:1005400092690243044B9A6104E0034A9269824330
:10055000014B9A617047000000100240704710B5CF
:1005600000F002F810BD00000CB5002001900090D2
:100570003348006840F480303149086000BF30489B
:10058000006800F4003000900198401C0190009831
:1005900018B90198B0F5A06FF1D12948006800F4AE
:1005A000003010B10120009001E000200090009880
:1005B000012843D12348006840F010002149086019
:1005C0000846006820F0030008600846006840F014
:1005D000020008601A4840681949486008464068A7
:1005E00048600846406840F48060486008464068BB
:1005F00020F47C1048600846406840F4E8104860E9
:100600000846006840F08070086000BF0C48006831
:1006100000F000700028F9D00948406820F003007D
:10062000074948600846406840F00200486000BF43
:100630000348406800F00C000828F9D10CBD000008
:10064000001002400020024010B50446FFF7E6FE0D
:1006500008B9FFF79BFD0148046010BDA08121424D
:100660000120014908707047010000200120014964
:100670000870704700000020012001490870704791
:100680000400002070B505460C46FFF7CDFE08B902
:10069000FFF7D0FE15B90348046001E0024804608A
:1006A00070BD00009481214294012342042808D1A6
:1006B0004FF0E021096941F004014FF0E02211619F
:1006C00007E04FF0E021096921F004014FF0E0223A
:1006D000116170477047000010B5044601200C49B5
:1006E0000870801FFFF7E2FFE11704EB5171C1F3BF
:1006F000C701084A11701046007800EB4001C1EBB9
:10070000C0104FF6FF7101EAC0000349088010BD18
:1007100004000020050000200600002010B513484A
:10072000006840F00100114908600846406810491F
:1007300008400E494860084600680E4908400B49C9
:1007400008600846006820F4802008600846406879
:1007500020F4FE0048604FF41F008860FFF7FFFEA2
:100760004FF000600449086010BD00000010024016
:100770000000FFF8FFFFF6FE08ED00E010B50121D4
:100780000A4800F05EF860B1FFF74EFE08B9FFF7C7
:1007900051FE0748006808B9012000E00020044924
:1007A00008600121014800F03DF810BD000800403C
:1007B000940123427FB505460C464FF4A060FFF735
:1007C000A1FE01210420FFF7A9FEADF80850ADF805
:1007D00004400020ADF80A00ADF8060001A9104859
:1007E00000F04AF8012211460D4800F03BF80121C3
:1007F0000B4800F017F81E208DF8000002208DF83D
:10080000010003208DF8020001208DF803006846E6
:10081000FFF740FE0121024800F007F87FBD00000D
:1008200000080040CA430282704721B1028842F0AA
:100830000102028004E002884FF6FE731A40028033
:10084000704730B50246002000230024158A05EACF
:100850000103958905EA010413B10CB1012000E000
:10086000002030BD1AB183890B43838102E0838964
:100870008B43838170470000002202881D4B984201
:100880000ED01D4B98420BD0B0F1804F08D01B4BBF
:10089000984205D01A4B984202D01A4B984204D184
:1008A0004FF68F731A404B881A43174B984207D064
:1008B000164B984204D04FF6FF431A40CB881A4398
:1008C00002808B8883850B8803850A4B98420BD066
:1008D000094B984208D00E4B984205D00D4B9842D8
:1008E00002D00D4B984201D10B7A038601238382FB
:1008F00070470000002C014000340140000400401B
:1009000000080040000C00400010004000140040AF
:1009100000400140004401400048014000BFFEE7A4
:1009200002E008C8121F08C1002AFAD170477047B8
:10093000002001E001C1121F002AFBD17047000016
:1009400070B505461548007820B94820FFF7C4FE69
:10095000FFF792FE1248008868434FF0E02148619B
:10096000002088610846006940F00100086100BF6E
:100970004FF0E020046904F0010018B104F4803065
:100980000028F5D04FF0E020006920F001004FF082
:10099000E02108610020886170BD00000400002093
:1009A000060000204820FFF797FE48F69F414FF4CD
:1009B0007A70FFF7FFFE01E0FFF70CFDFCE7000097
:1009C000E0090008000000200800000020090008DD
:1009D000E8090008080000200004000030090008B1
:0809E00000000000000000000F
:0400000508000131BD
:00000001FF
