:020000040800F2
:10000000080400204501000849040008CF03000847
:1000100045040008C5010008ED06000800000000C6
:100020000000000000000000000000006D04000857
:10003000C9010008000000004B040008E5050008A5
:100040005F0100085F0100085F0100085F01000810
:100050005F0100085F010008CD0100085F01000892
:10006000F901000825020008510200085F0100089C
:100070005F0100085F0100085F0100085F010008E0
:100080005F0100085F0100085F0100085F010008D0
:100090005F0100085F0100085F0100085F010008C0
:1000A0005F0100085F0100085F0100085F010008B0
:1000B0005F0100085F0100088D0600085F0100086D
:1000C0005F0100085F0100085F0100085F01000890
:1000D0005F0100085F0100085F0100085F01000880
:1000E0005F0100085F0100085F0100085F01000870
:1000F0005F0100085F0100085F0100085F01000860
:100100005F0100085F0100085F0100085F0100084F
:100110005F0100085F0100085F0100085F0100083F
:100120005F0100085F0100085F0100085F0100082F
:10013000DFF80CD000F018F8004800473D08000830
:10014000080400200648804706480047FEE7FEE70F
:10015000FEE7FEE7FEE7FEE7FEE7FEE7FEE7FEE777
:100160002D06000831010008064C074D06E0E06846
:1001700040F0010394E8070098471034AC42F6D3EE
:10018000FFF7DAFF88080008A808000808B5102063
:100190008DF803000001ADF8000003208DF8020087
:1001A0000121082000F052F96946054800F080F866
:1001B0004FF48071024800F006F900F0D9F908BD4B
:1001C000000C014000BFFEE77047000010B50120A1
:1001D00000F05AF8012809D10A2000F0FDFA05487C
:1001E0000068012802D1002100F0D4F9012000F0BC
:1001F00045F810BD0001214210B5042000F044F87C
:10020000012808D10A2000F0E7FA0548006810B973
:10021000012000F0A1F9042000F030F810BD00002A
:100220000801234210B5082000F02EF8012809D15A
:100230000A2000F0D1FA0548006818B901210846E3
:1002400000F0A8F9082000F019F810BD0C012342B5
:1002500010B5102000F018F8012808D10A2000F08D
:10026000BBFA0548006810B9002000F075F91020AD
:1002700000F004F810BD000010012342014908609D
:100280007047000014040140014600200022074B83
:100290001B6803EA0102054B14331B680B4013B1C2
:1002A0000AB1012000E00020704700000004014076
:1002B0002DE9F041024600250026002000230024FD
:1002C000002791F803C00CF00F0591F803C00CF063
:1002D000100CBCF1000F03D091F802C04CEA0505E8
:1002E00091F800C0BCF1000F31D0146800202BE061
:1002F0004FF0010C0CFA00F3B1F800C00CEA030651
:100300009E4220D183004FF00F0C0CFA03F7BC4340
:1003100005FA03FC4CEA040491F803C0BCF1280F71
:1003200006D14FF0010C0CFA00FCC2F814C00AE030
:1003300091F803C0BCF1480F05D14FF0010C0CFA45
:1003400000FCC2F810C0401C0828D1D31460B1F8DA
:1003500000C0BCF1FF0F34DD546800202EE000F136
:10036000080C4FF0010808FA0CF3B1F800C00CEAD1
:1003700003069E4221D183004FF00F0C0CFA03F7C5
:10038000BC4305FA03FC4CEA040491F803C0BCF139
:10039000280F05D100F1080C08FA0CF8C2F81480F7
:1003A00091F803C0BCF1480F07D100F1080C4FF0E1
:1003B000010808FA0CF8C2F81080401C0828CED3B7
:1003C0005460BDE8F081416170470161704700BF32
:1003D000FEE700000148007870470000010000209F
:1003E00001480078704700000000002038B56C46D6
:1003F00003208DF8020010208DF803002020ADF8B6
:1004000000000121082000F021F869460B48FFF7A1
:100410004FFF20210948FFF7D8FF2020208001212D
:10042000402000F013F821460548FFF741FF202146
:100430000348FFF7CAFF00F0A1F838BD000C0140E7
:100440000018014000BFFEE77047704729B1064A17
:1004500092690243044B9A6104E0034A9269824321
:10046000014B9A617047000000100240704710B5C0
:1004700000F002F810BD00000CB5002001900090C3
:100480003348006840F480303149086000BF30488C
:10049000006800F4003000900198401C0190009822
:1004A00018B90198B0F5A06FF1D12948006800F49F
:1004B000003010B10120009001E000200090009871
:1004C000012843D12348006840F01000214908600A
:1004D0000846006820F0030008600846006840F005
:1004E000020008601A484068194948600846406898
:1004F00048600846406840F48060486008464068AC
:1005000020F47C1048600846406840F4E8104860D9
:100510000846006840F08070086000BF0C48006822
:1005200000F000700028F9D00948406820F003006E
:10053000074948600846406840F00200486000BF34
:100540000348406800F00C000828F9D10CBD0000F9
:10055000001002400020024010B50446FFF73AFFA9
:1005600008B9FFF713FE0148046010BDA0812142C5
:100570000120014908707047010000200120014955
:100580000870704700000020012001490870704782
:100590000200002070B505460C46FFF721FF08B9A0
:1005A000FFF724FF15B90348046001E00248046026
:1005B00070BD00009481214294012342042808D197
:1005C0004FF0E021096941F004014FF0E022116190
:1005D00007E04FF0E021096921F004014FF0E0222B
:1005E000116170477047000010B5044601200C49A6
:1005F0000870801FFFF7E2FFE11704EB5171C1F3B0
:10060000C701084A11701046007800EB4001C1EBA9
:10061000C0104FF6FF7101EAC0000349088010BD09
:1006200002000020030000200400002010B5134841
:10063000006840F001001149086008464068104910
:1006400008400E494860084600680E4908400B49BA
:1006500008600846006820F480200860084640686A
:1006600020F4FE0048604FF41F008860FFF7FFFE93
:100670004FF000600449086010BD00000010024007
:100680000000FFF8FFFFF6FE08ED00E010B50121C5
:100690000A4800F01AF860B1FFF7A2FE08B9FFF7A8
:1006A000A5FE0748006808B9012000E000200449C1
:1006B00008600121014800F005F810BD0008004065
:1006C00094012342CA430282704730B5024600209B
:1006D00000230024158A05EA0103958905EA01042F
:1006E00013B10CB1012000E0002030BD00BFFEE7D7
:1006F00070B504460D464DB1207818B90120064961
:10070000086007E001200549086003E0618860682F
:10071000FFF759FE70BD00009481214294012342ED
:1007200070B504460D464DB1207818B90020064931
:10073000086007E000200549086003E06188606800
:10074000FFF743FE70BD00009481214294012342D3
:10075000F8B505460F4614461E466C806E600320B1
:100760008DF8020010208DF80300ADF80040012143
:100770003846FFF76BFE69463046FFF799FD214684
:100780003046FFF722FEF8BD70B505460C462C70CA
:1007900034B9074B202208212846FFF7D9FF05E08E
:1007A000044B202240212846FFF7D2FF284670BD87
:1007B000000C01400018014002E008C8121F08C1E7
:1007C000002AFAD170477047002001E001C1121FD2
:1007D000002AFBD17047000070B505461548007827
:1007E00020B94820FFF700FFFFF7CEFE124800882F
:1007F00068434FF0E02148610020886108460069A5
:1008000040F00100086100BF4FF0E020046904F0EF
:10081000010018B104F480300028F5D04FF0E0203A
:10082000006920F001004FF0E0210861002088619C
:1008300070BD000002000020040000201FB5002150
:1008400002A8FFF7A1FF01216846FFF79DFF48209E
:10085000FFF7CAFE17E0012102A8FFF761FF01219F
:100860006846FFF745FF4FF4FA70FFF7B5FF012127
:1008700002A8FFF73DFF01216846FFF751FF4FF443
:10088000FA70FFF7A9FFE6E7A808000800000020BB
:1008900008000000B8070008B008000808000020A1
:1008A00000040000C807000800000000000000006D
:0400000508000131BD
:00000001FF
