:020000040800F2
:1000000000040020450100080D030008B1020008AB
:10001000090300088D0100088106000800000000A7
:100020000000000000000000000000003105000892
:1000300091010008000000000F0300081D060008E1
:100040005F0100085F0100085F0100085F01000810
:100050005F0100085F0100085F0100085F01000800
:100060005F0100085F0100085F0100085F010008F0
:100070005F0100085F0100085F0100085F010008E0
:100080005F0100085F0100085F0100085F010008D0
:100090005F0100085F0100085F0100085F010008C0
:1000A0005F0100085F0100085F0100085F010008B0
:1000B0005F0100085F0100085F0100085F010008A0
:1000C0005F0100085F0100085F0100085F01000890
:1000D0005F0100085F0100085F0100085F01000880
:1000E0005F0100085F0100085F0100085F01000870
:1000F0005F0100085F0100085F0100085F01000860
:100100005F0100085F0100085F0100085F0100084F
:100110005F0100085F0100085F0100085F0100083F
:100120005F0100085F0100085F0100085F0100082F
:10013000DFF80CD000F018F800480047B1060008BE
:10014000000400200648804706480047FEE7FEE717
:10015000FEE7FEE7FEE7FEE7FEE7FEE7FEE7FEE777
:100160002106000831010008064C074D06E0E06852
:1001700040F0010394E8070098471034AC42F6D3EE
:10018000FFF7DAFFE8060008F806000800BFFEE700
:1001900070472DE9F041024600250026002000238B
:1001A0000024002791F803C00CF00F0591F803C05C
:1001B0000CF0100CBCF1000F03D091F802C04CEA17
:1001C000050591F800C0BCF1000F31D01468002083
:1001D0002BE04FF0010C0CFA00F3B1F800C00CEA70
:1001E00003069E4220D183004FF00F0C0CFA03F758
:1001F000BC4305FA03FC4CEA040491F803C0BCF1CB
:10020000280F06D14FF0010C0CFA00FCC2F814C004
:100210000AE091F803C0BCF1480F05D14FF0010C82
:100220000CFA00FCC2F810C0401C0828D1D314609E
:10023000B1F800C0BCF1FF0F34DD546800202EE09F
:1002400000F1080C4FF0010808FA0CF3B1F800C0F7
:100250000CEA03069E4221D183004FF00F0C0CFAEA
:1002600003F7BC4305FA03FC4CEA040491F803C00D
:10027000BCF1280F05D100F1080C08FA0CF8C2F8FF
:10028000148091F803C0BCF1480F07D100F1080CAD
:100290004FF0010808FA0CF8C2F81080401C08283A
:1002A000CED35460BDE8F081416170470161704771
:1002B00000BFFEE708B510208DF803002020ADF840
:1002C000000003208DF802000121082000F020F832
:1002D00069460B48FFF75DFF20210948FFF7E6FF5D
:1002E0002020ADF800000121402000F011F86946FF
:1002F0000448FFF74EFF20210248FFF7D7FF08BD53
:10030000000C01400018014000BFFEE77047704735
:1003100029B1064A92690243044B9A6104E0034AF8
:1003200092698243014B9A617047000000100240BD
:100330000F48006840F001000D4908600846406819
:100340000C4908400A494860084600680A490840C4
:10035000074908600846006820F4802008600846C5
:10036000406820F4FE0048604FF41F00886070472A
:10037000001002400000FFF8FFFFF6FE10B5014636
:100380000022002300204A11012A02D1094C2368CF
:1003900006E0022A02D1074C236A01E0054C636A99
:1003A00001F01F02012494401C400CB1012000E028
:1003B000002010BD001002400248406800F00C0010
:1003C000704700000010024001460020034A5068B8
:1003D00020F0F00008435060704700000010024019
:1003E0001149096821F480310F4A116011460968EA
:1003F00021F480211160B0F5803F03D0B0F5802F4B
:100400000ED106E00849096841F48031064A1160BE
:1004100007E00549096841F4A021034A116000E0A2
:1004200000BF00BF704700000010024070B50446D6
:100430000D46FFF77DFF4FF48030FFF7D1FF00F04E
:100440005BF801281ED10020FFF7BEFF4FF480604B
:1004500000F01AF8002000F023F82946204600F0AA
:1004600031F8012000F028F800BF3920FFF786FF9F
:100470000028FAD0022000F033F800BFFFF79CFFFD
:100480000828FBD170BD000001460020034A5068D7
:1004900020F4E06008435060704700000010024004
:1004A00001460020034A506820F4605040EAC10031
:1004B0005060704700100240014908667047000014
:1004C0000000424202460020044B586820F47C1091
:1004D00042EA01031843014B586070470010024084
:1004E00001460020034A506820F003000843506092
:1004F000704700000010024038B500200090002432
:10050000002500BF3120FFF739FF05460098401C49
:1005100000900098B0F5A06F01D0002DF2D03120EE
:10052000FFF72CFF08B1012400E00024204638BD6D
:10053000704710B500F002F810BD00000CB50020A7
:10054000019000903348006840F4803031490860E1
:1005500000BF3048006800F4003000900198401C53
:100560000190009818B90198B0F5A06FF1D1294811
:10057000006800F4003010B10120009001E000207C
:1005800000900098012843D12348006840F01000F3
:10059000214908600846006820F00300086008460A
:1005A000006840F0020008601A4840681949486035
:1005B0000846406848600846406840F480604860EB
:1005C0000846406820F47C1048600846406840F4C3
:1005D000E81048600846006840F08070086000BF7E
:1005E0000C48006800F000700028F9D00948406805
:1005F00020F00300074948600846406840F00200C8
:10060000486000BF0348406800F00C000828F9D19A
:100610000CBD0000001002400020024070470000A6
:1006200010B51348006840F0010011490860084601
:100630004068104908400E494860084600680E4965
:1006400008400B4908600846006820F480200860D4
:100650000846406820F4FE0048604FF41F008860A0
:10066000FFF767FF4FF000600449086010BD00000D
:10067000001002400000FFF8FFFFF6FE08ED00E06A
:1006800000BFFEE702E008C8121F08C1002AFAD125
:1006900070477047002001E001C1121F002AFBD102
:1006A000704700BF011EA0F10100FBD170470000A0
:1006B0004FF4E0114FF44030FFF7B8FEFFF7FAFDBA
:1006C0000DE020210648FFF7EFFD0648FFF7E9FFA0
:1006D00020210348FFF7EAFD0248FFF7E2FFF0E7B9
:1006E000000C0140808D5B00F8060008000000202F
:0806F00000040000940600085C
:0400000508000131BD
:00000001FF
