:020000040800F2
:1000000000050020450100085B04000853040008B7
:10001000570400088D010008CD060008000000000C
:1000200000000000000000000000000005050008BE
:100030009101000800000000E10400082506000806
:100040005F0100085F0100085F0100085F01000810
:100050005F0100085F010008950100085F010008CA
:10006000BD010008E50100080D0200085F0100085D
:100070005F0100085F0100085F0100085F010008E0
:100080005F0100085F0100085F0100085F010008D0
:100090005F0100085F0100085F0100085F010008C0
:1000A0005F0100085F0100085F0100085F010008B0
:1000B0005F0100085F0100085F0100085F010008A0
:1000C0005F0100085F0100085F0100085F01000890
:1000D0005F0100085F0100085F0100085F01000880
:1000E0005F0100085F0100085F0100085F01000870
:1000F0005F0100085F0100085F0100085F01000860
:100100005F0100085F0100085F0100085F0100084F
:100110005F0100085F0100085F0100085F0100083F
:100120005F0100085F0100085F0100085F0100082F
:10013000DFF80CD000F018F8004800472909000843
:10014000000500200648804706480047FEE7FEE716
:10015000FEE7FEE7FEE7FEE7FEE7FEE7FEE7FEE777
:100160006D06000831010008064C074D06E0E06806
:1001700040F0010394E8070098471034AC42F6D3EE
:10018000FFF7DAFFC8090008E809000800BFFEE72A
:100190007047000010B5012000F052F8012808D186
:1001A00004490022C868044900F0A9FA012000F0BF
:1001B00041F810BDF0000020C507000810B504206C
:1001C00000F03EF8012808D104490022886804495B
:1001D00000F095FA042000F02DF810BDF00000208A
:1001E000AD07000810B5082000F02AF8012808D152
:1001F000044900224868044900F081FA082000F010
:1002000019F810BDF00000204108000810B51020BA
:1002100000F016F8012808D10449002208680449B2
:1002200000F06DFA102000F005F810BDF00000207D
:1002300029080008014908607047000014040140C3
:10024000014600200022074B1B6803EA0102054B10
:1002500014331B680B4013B10AB1012000E00020E9
:100260007047000000040140002123498279002AE0
:100270003AD00A46126803689A430B461A600A1D70
:10028000126803689A430B1D1A60027911440A68C8
:1002900003681A430A60184A0832126803689A43CE
:1002A000154B08331A601A1D126803689A43124BE3
:1002B0000C331A604279102A0ED11A1F1268036893
:1002C0001A430D4B08331A601A1D126803681A434B
:1002D000094B0C331A600DE00749427911440A6852
:1002E00003681A430A6005E0027911440A6803684A
:1002F0009A430A60704700000004014030B50022B4
:100300008B071C0F0F2303FA04F20B4B8C1053F8CE
:1003100024309343084C8D1044F8253023468C102C
:1003200053F824308C07240F00FA04F42343024CC2
:100330008D1044F8253030BD080001402DE9F04112
:10034000024600250026002000230024002791F803
:1003500003C00CF00F0591F803C00CF0100CBCF1B9
:10036000000F03D091F802C04CEA050591F800C0D7
:10037000BCF1000F31D0146800202BE04FF0010CCD
:100380000CFA00F3B1F800C00CEA03069E4220D13B
:1003900083004FF00F0C0CFA03F7BC4305FA03FC83
:1003A0004CEA040491F803C0BCF1280F06D14FF0C9
:1003B000010C0CFA00FCC2F814C00AE091F803C06A
:1003C000BCF1480F05D14FF0010C0CFA00FCC2F84B
:1003D00010C0401C0828D1D31460B1F800C0BCF193
:1003E000FF0F34DD546800202EE000F1080C4FF0C0
:1003F000010808FA0CF3B1F800C00CEA03069E42AB
:1004000021D183004FF00F0C0CFA03F7BC4305FA1F
:1004100003FC4CEA040491F803C0BCF1280F05D199
:1004200000F1080C08FA0CF8C2F8148091F803C027
:10043000BCF1480F07D100F1080C4FF0010808FA91
:100440000CF8C2F81080401C0828CED35460BDE8D8
:10045000F08100BFFEE700BFFEE7704770B50021E6
:1004600000230F22C47804B3154C246804F4E0641C
:10047000C4F5E064210AC1F10403CA40447804FAD7
:1004800003F184781440214309010E4C0678A155EC
:10049000047804F01F050124AC4005786D11AD000F
:1004A00005F1E025C5F8004109E0047804F01F05D6
:1004B0000124AC40044D0678761145F8264070BD05
:1004C0000CED00E000E400E080E100E002490143BF
:1004D000024A1160704700000000FA050CED00E0D0
:1004E0007047000029B1064A92690243044B9A61A1
:1004F00004E0034A92698243014B9A61704700000D
:1005000000100240704710B500F002F810BD000066
:100510000CB50020019000903348006840F4803012
:100520003149086000BF3048006800F40030009096
:100530000198401C0190009818B90198B0F5A06F7F
:10054000F1D12948006800F4003010B1012000907A
:1005500001E0002000900098012843D12348006862
:1005600040F01000214908600846006820F00300B0
:1005700008600846006840F0020008601A484068B9
:10058000194948600846406848600846406840F499
:10059000806048600846406820F47C104860084647
:1005A000406840F4E81048600846006840F08070F9
:1005B000086000BF0C48006800F000700028F9D007
:1005C0000948406820F00300074948600846406831
:1005D00040F00200486000BF0348406800F00C0093
:1005E0000828F9D10CBD0000001002400020024094
:1005F000012001490870704700000020042808D13C
:100600004FF0E021096941F004014FF0E02211614F
:1006100007E04FF0E021096921F004014FF0E022EA
:10062000116170477047000010B5044601200C4965
:100630000870801FFFF7E2FFE11704EB5171C1F36F
:10064000C701084A11701046007800EB4001C1EB69
:10065000C0104FF6FF7101EAC0000349088010BDC9
:1006600000000020010000200200002010B5134807
:10067000006840F0010011490860084640681049D0
:1006800008400E494860084600680E4908400B497A
:1006900008600846006820F480200860084640682A
:1006A00020F4FE0048604FF41F008860FFF72BFF26
:1006B0004FF000600449086010BD000000100240C7
:1006C0000000FFF8FFFFF6FE08ED00E000BFFEE7C8
:1006D00070B506460C4615462846FFF7F7FE012181
:1006E0002068FFF7FFFE61792079FFF707FEE01D24
:1006F000FFF7B4FE04F10C00FFF7B6FD70BD70B556
:1007000004460E4615466068C06800686168097C4A
:10071000884201D12846B04770BD000038B5044674
:100720000D460120207065606068407C0E4941F8EC
:1007300020406068007C012803D128208DF8030048
:1007400002E048208DF8030060680089ADF80000E1
:10075000616808680121FFF7C5FE6168486869465D
:10076000FFF7ECFD204638BDF000002010B5044630
:100770000D480078401C0C49087008460078142188
:1007800090FBF1F201FB120048B92068C0680068D4
:1007900008B9012000E000202168C96808600A202B
:1007A00000F090F810BD0000EC000020044A52F860
:1007B000201001220B68DB681A6000BF7047000040
:1007C000E4000020044A52F8201000220B68DB6885
:1007D0001A6000BF70470000E400002038B50446EE
:1007E0000D4625602068007C0E4941F8204003201A
:1007F0008DF8020010208DF8030020680089ADF804
:100800000000216808680121FFF76CFE2168486834
:100810006946FFF793FD01202168C96808602046FA
:1008200038BD0000E4000020044A52F820100022E5
:100830000B68DB681A6000BF70470000E000002012
:10084000044A52F8201001220B68DB681A6000BFCE
:1008500070470000E000002038B504460D462560D2
:100860002068007C0E4941F8204021680868012179
:10087000FFF738FE20680089ADF8000010208DF8E1
:10088000030003208DF80200216848686946FFF7DD
:1008900055FD00202168C9680860204638BD000069
:1008A000E000002002E008C8121F08C1002AFAD1A7
:1008B00070477047002001E001C1121F002AFBD1E0
:1008C0007047000070B505461548007820B94820EB
:1008D000FFF7AAFEFFF78CFE1248008868434FF02E
:1008E000E0214861002088610846006940F001006D
:1008F000086100BF4FF0E020046904F0010018B166
:1009000004F480300028F5D04FF0E020006920F09A
:1009100001004FF0E02108610020886170BD0000F7
:1009200000000020020000208CB01C490BA8FFF73B
:1009300093FF1B490AA8FFF751FF1A4909A8FFF7BF
:100940004DFF194907A8FFF7E9FE184905A8FFF769
:10095000E5FE174903A8FFF7E1FE164901A8FFF7D6
:10096000DDFE4FF4A06214496846FFF7B1FE4FF474
:10097000A06212496846FFF7ABFE4FF4A06210492F
:100980006846FFF7A5FE4FF4A0620E496846FFF7E0
:100990009FFE02E009A8FFF7E9FEFBE70400002044
:1009A000180000202C0000204000002054000020EF
:1009B000680000207C00002090000020A40000209F
:1009C000B8000020CC000020E8090008000000204A
:1009D000F0000000A4080008D80A0008F000002079
:1009E00010040000B4080008000000000800000027
:1009F000000C014000010000A08121420000000025
:100A000008000000000C01402000000094812142F9
:100A1000000000004000000000180140200000001D
:100A20009401234201000000400000000018014032
:100A300010000000100123420000000040000000F0
:100A400000180140080000000C01234200010000D2
:100A5000400000000018014004000000080123428B
:100A60000002000004000000000801400100000036
:100A70000001214201030000010000000000000607
:100A80000203010001000000000801000100000055
:100A9000040202080202010004000000000C010030
:100AA0000100000004030309020101000800000026
:100AB000000C0100010000000404040A020001000F
:100AC00010000000000C0100000000000000000009
:080AD00000000000000000001E
:0400000508000131BD
:00000001FF
