:020000040800F2
:100000000005002045010008870300087F03000861
:10001000830300088D0100084D0700080000000060
:100020000000000000000000000000005104000873
:1000300091010008000000000D040008710500088F
:100040005F0100085F0100085F0100085F01000810
:100050005F0100085F010008950100085F010008CA
:10006000BD010008E50100080D0200085F0100085D
:100070005F0100085F0100085F0100085F010008E0
:100080005F0100085F0100085F0100085F010008D0
:100090005F0100085F0100085F0100085F010008C0
:1000A0005F0100085F0100085F0100085F010008B0
:1000B0005F0100085F010008190600085F010008E1
:1000C0005F0100085F0100085F0100085F01000890
:1000D0005F0100085F0100085F0100085F01000880
:1000E0005F0100085F0100085F0100085F01000870
:1000F0005F0100085F0100085F0100085F01000860
:100100005F0100085F0100085F0100085F0100084F
:100110005F0100085F0100085F0100085F0100083F
:100120005F0100085F0100085F0100085F0100082F
:10013000DFF80CD000F018F8004800474509000827
:10014000000500200648804706480047FEE7FEE716
:10015000FEE7FEE7FEE7FEE7FEE7FEE7FEE7FEE777
:10016000B905000831010008064C074D06E0E068BB
:1001700040F0010394E8070098471034AC42F6D3EE
:10018000FFF7DAFF84090008A409000800BFFEE7B2
:100190007047000010B5012000F052F8012808D186
:1001A00004490022C868044900F0D2FA012000F096
:1001B00041F810BDF0000020C507000810B504206C
:1001C00000F03EF8012808D104490022886804495B
:1001D00000F0BEFA042000F02DF810BDF000002061
:1001E000AD07000810B5082000F02AF8012808D152
:1001F000044900224868044900F0AAFA082000F0E7
:1002000019F810BDF0000020A908000810B5102052
:1002100000F016F8012808D10449002208680449B2
:1002200000F096FA102000F005F810BDF000002054
:10023000910800080149086070470000140401405B
:10024000014600200022074B1B6803EA0102054B10
:1002500014331B680B4013B10AB1012000E00020E9
:1002600070470000000401402DE9F04102460025DE
:100270000026002000230024002791F803C00CF082
:100280000F0591F803C00CF0100CBCF1000F03D067
:1002900091F802C04CEA050591F800C0BCF1000FCE
:1002A00031D0146800202BE04FF0010C0CFA00F361
:1002B000B1F800C00CEA03069E4220D183004FF043
:1002C0000F0C0CFA03F7BC4305FA03FC4CEA0404D8
:1002D00091F803C0BCF1280F06D14FF0010C0CFAC5
:1002E00000FCC2F814C00AE091F803C0BCF1480F4A
:1002F00005D14FF0010C0CFA00FCC2F810C0401CF4
:100300000828D1D31460B1F800C0BCF1FF0F34DD70
:10031000546800202EE000F1080C4FF0010808FAA4
:100320000CF3B1F800C00CEA03069E4221D1830011
:100330004FF00F0C0CFA03F7BC4305FA03FC4CEA30
:10034000040491F803C0BCF1280F05D100F1080C9A
:1003500008FA0CF8C2F8148091F803C0BCF1480FF9
:1003600007D100F1080C4FF0010808FA0CF8C2F8A8
:100370001080401C0828CED35460BDE8F08100BF37
:10038000FEE700BFFEE7704770B5002100230F2293
:10039000C47804B3154C246804F4E064C4F5E06444
:1003A000210AC1F10403CA40447804FA03F18478B5
:1003B0001440214309010E4C0678A155047804F03D
:1003C0001F050124AC4005786D11AD0005F1E02555
:1003D000C5F8004109E0047804F01F050124AC4091
:1003E000044D0678761145F8264070BD0CED00E00E
:1003F00000E400E080E100E002490143024A1160AC
:10040000704700000000FA050CED00E070470000A6
:1004100029B1064AD2690243044BDA6104E0034A77
:10042000D2698243014BDA6170470000001002403C
:1004300029B1064A92690243044B9A6104E0034AD7
:1004400092698243014B9A6170470000001002409C
:10045000704710B500F002F810BD00000CB5002088
:10046000019000903348006840F4803031490860C2
:1004700000BF3048006800F4003000900198401C34
:100480000190009818B90198B0F5A06FF1D12948F2
:10049000006800F4003010B10120009001E000205D
:1004A00000900098012843D12348006840F01000D4
:1004B000214908600846006820F0030008600846EB
:1004C000006840F0020008601A4840681949486016
:1004D0000846406848600846406840F480604860CC
:1004E0000846406820F47C1048600846406840F4A4
:1004F000E81048600846006840F08070086000BF5F
:100500000C48006800F000700028F9D009484068E5
:1005100020F00300074948600846406840F00200A8
:10052000486000BF0348406800F00C000828F9D17B
:100530000CBD0000001002400020024001200149D3
:100540000870704700000020042808D14FF0E02117
:10055000096941F004014FF0E022116107E04FF01A
:10056000E021096921F004014FF0E0221161704798
:100570007047000010B5044601200C490870801F28
:10058000FFF7E2FFE11704EB5171C1F3C701084A1D
:1005900011701046007800EB4001C1EBC0104FF61F
:1005A000FF7101EAC0000349088010BD000000206F
:1005B000010000200200002010B51348006840F040
:1005C00001001149086008464068104908400E497A
:1005D0004860084600680E4908400B490860084614
:1005E000006820F4802008600846406820F4FE007F
:1005F00048604FF41F008860FFF72BFF4FF000604A
:100600000449086010BD0000001002400000FFF81F
:10061000FFFFF6FE08ED00E010B501210B4800F0E9
:1006200028F868B10A4908680168C968096809B901
:10063000012100E000210268D268116000BF00BF04
:100640000121024800F006F810BD0000000800403B
:10065000E4000020CA430282704721B1028842F0C0
:100660000102028004E002884FF6FE731A40028005
:10067000704730B50246002000230024158A05EAA1
:100680000103958905EA010413B10CB1012000E0D2
:10069000002030BD1AB183890B43838102E0838936
:1006A0008B43838170470000002202881D4B9842D3
:1006B0000ED01D4B98420BD0B0F1804F08D01B4B91
:1006C000984205D01A4B984202D01A4B984204D156
:1006D0004FF68F731A404B881A43174B984207D036
:1006E000164B984204D04FF6FF431A40CB881A436A
:1006F00002808B8883850B8803850A4B98420BD038
:10070000094B984208D00E4B984205D00D4B9842A9
:1007100002D00D4B984201D10B7A038601238382CC
:1007200070470000002C01400034014000040040EC
:1007300000080040000C0040001000400014004081
:1007400000400140004401400048014000BFFEE776
:1007500070B504460E4615466068C068006861685A
:10076000097C884201D12846B04770BD10B50446C7
:100770000D480078401C0C49087008460078142188
:1007800090FBF1F201FB120048B92068C0680068D4
:1007900008B9012000E000202168C96808600A202B
:1007A00000F09EF810BD0000EC000020044A52F852
:1007B000201001220B68DB681A6000BF7047000040
:1007C000E4000020044A52F8201000220B68DB6885
:1007D0001A6000BF70470000E400002038B50446EE
:1007E0000D4625602068007C0E4941F8204003201A
:1007F0008DF8020010208DF8030020680089ADF804
:100800000000216808680121FFF712FE216848688E
:100810006946FFF729FD01202168C9680860204664
:1008200038BD0000E40000207FB506460C461546A2
:1008300001210420FFF7ECFDADF80840ADF80450AD
:100840000020ADF80A00ADF8060001A90F48FFF737
:100850002BFF012211460D48FFF71CFF01210B4819
:10086000FFF7F8FE1E208DF8000002208DF8010031
:1008700003208DF8020001208DF803006846FFF781
:1008800083FD01210148FFF7E8FE7FBD000800401D
:10089000044A52F8201000220B68DB681A6000BF7F
:1008A00070470000E0000020044A52F820100122A6
:1008B0000B68DB681A6000BF70470000E000002092
:1008C00002E008C8121F08C1002AFAD17047704719
:1008D000002001E001C1121F002AFBD17047000077
:1008E00070B505461548007820B94820FFF742FE4C
:1008F000FFF724FE1248008868434FF0E02148616A
:10090000002088610846006940F00100086100BFCE
:100910004FF0E020046904F0010018B104F48030C5
:100920000028F5D04FF0E020006920F001004FF0E2
:10093000E02108610020886170BD000000000020F7
:10094000020000200EB54820FFF714FE0B4902A854
:10095000FFF744FF0A4901A8FFF740FF4FF4A060EA
:10096000FFF74AFD48F69F424FF47A716846FFF759
:100970005BFF02E001A8FFF7F9FEFBE7180000208B
:100980002C000020A409000800000020F000000056
:10099000C0080008940A0008F000002010040000BD
:1009A000D00800080000000008000000000C014012
:1009B00000010000A08121420000000008000000AA
:1009C000000C014020000000948121420000000042
:1009D0004000000000180140200000009401234264
:1009E000010000004000000000180140100000005D
:1009F00010012342000000004000000000180140E8
:100A0000080000000C01234200010000400000002B
:100A10000018014004000000080123420002000009
:100A20000400000000080140010000000001214214
:100A300001030000010000000000000602030100A5
:100A4000010000000008010001000000040202088B
:100A50000202010004000000000C0100010000007F
:100A6000040303090201010008000000000C01005A
:100A7000010000000404040A02000100100000004C
:100A8000000C010000000000000000000000000059
:040A90000000000062
:0400000508000131BD
:00000001FF
