:020000040800F2
:10000000E805002045010008470300083F030008F9
:10001000430300088D010008B70900080000000034
:10002000000000000000000000000000E5040008DF
:100030009101000800000000CD030008050600083B
:10004000C90900085F0100085F0100085F0100089E
:100050005F0100085F010008930100085F010008CC
:10006000AB010008C3010008DB0100085F010008C4
:100070005F0100085F0100085F0100085F010008E0
:100080005F0100085F0100085F0100085F010008D0
:100090005F0100085F0100085F0100085F010008C0
:1000A0005F0100085F0100085F0100085F010008B0
:1000B0005F0100085F010008AD0600085F0100084D
:1000C0005F0100085F0100085F0100085F01000890
:1000D0005F010008F50700085F0100085F010008E4
:1000E0005F0100085F0100085F0100085F01000870
:1000F0005F0100085F0100085F0100085F01000860
:100100005F0100085F010008CD0600085F010008DC
:100110005F0100085F0100085F0100085F0100083F
:100120005F0100085F0100085F0100085F0100082F
:10013000DFF80CD000F018F800480047C10F0008A5
:10014000E80500200648804706480047FEE7FEE72E
:10015000FEE7FEE7FEE7FEE7FEE7FEE7FEE7FEE777
:100160004D06000831010008064C074D06E0E06826
:1001700040F0010394E8070098471034AC42F6D3EE
:10018000FFF7DAFFE00F00080010000800BFFEE7ED
:10019000704710B5012000F033F8012801D100F0BC
:1001A000BFFC012000F026F810BD10B5042000F0BF
:1001B00027F8012801D100F0BFFC042000F01AF854
:1001C00010BD10B5082000F01BF8012801D100F087
:1001D000BFFC082000F00EF810BD10B5102000F094
:1001E0000FF8012801D100F0BFFC102000F002F848
:1001F00010BD000001490860704700001404014070
:10020000014600200022074B1B6803EA0102054B50
:1002100014331B680B4013B10AB1012000E0002029
:1002200070470000000401402DE9F041024600251E
:100230000026002000230024002791F803C00CF0C2
:100240000F0591F803C00CF0100CBCF1000F03D0A7
:1002500091F802C04CEA050591F800C0BCF1000F0E
:1002600031D0146800202BE04FF0010C0CFA00F3A1
:10027000B1F800C00CEA03069E4220D183004FF083
:100280000F0C0CFA03F7BC4305FA03FC4CEA040418
:1002900091F803C0BCF1280F06D14FF0010C0CFA05
:1002A00000FCC2F814C00AE091F803C0BCF1480F8A
:1002B00005D14FF0010C0CFA00FCC2F810C0401C34
:1002C0000828D1D31460B1F800C0BCF1FF0F34DDB1
:1002D000546800202EE000F1080C4FF0010808FAE5
:1002E0000CF3B1F800C00CEA03069E4221D1830052
:1002F0004FF00F0C0CFA03F7BC4305FA03FC4CEA71
:10030000040491F803C0BCF1280F05D100F1080CDA
:1003100008FA0CF8C2F8148091F803C0BCF1480F39
:1003200007D100F1080C4FF0010808FA0CF8C2F8E8
:100330001080401C0828CED35460BDE8F08100BF77
:10034000FEE700BFFEE7704770B5002100230F22D3
:10035000C47804B3154C246804F4E064C4F5E06484
:10036000210AC1F10403CA40447804FA03F18478F5
:100370001440214309010E4C0678A155047804F07D
:100380001F050124AC4005786D11AD0005F1E02595
:10039000C5F8004109E0047804F01F050124AC40D1
:1003A000044D0678761145F8264070BD0CED00E04E
:1003B00000E400E080E100E002490143024A1160EC
:1003C000704700000000FA050CED00E070470000E7
:1003D00029B1064AD2690243044BDA6104E0034AB8
:1003E000D2698243014BDA6170470000001002407D
:1003F00029B1064A92690243044B9A6104E0034A18
:1004000092698243014B9A617047000000100240DC
:1004100030B500210022002400232D4D6D6805F029
:100420000C0121B1042905D0082923D105E0294D6B
:10043000056022E0274D05601FE0254D6D6805F43D
:100440007012234D6D6805F48034022505EB92424D
:100450001CB9214D554305600BE01D4D6D6805F439
:1004600000351DB11C4D5543056002E0194D554343
:10047000056002E0174D056000BF00BF144D6D68B8
:1004800005F0F0010909154D6B5C0568DD4045601C
:100490000F4D6D6805F4E061090A104D6B5C45680D
:1004A000DD4085600A4D6D6805F46051C90A0B4D49
:1004B0006B5C4568DD40C560054D6D6805F44041E5
:1004C000890B074D6B5CC568B5FBF3F5056130BD65
:1004D0000010024000127A0000093D0000000020D8
:1004E00010000020704710B500F002F810BD0000A9
:1004F0000CB50020019000903348006840F4803033
:100500003149086000BF3048006800F400300090B6
:100510000198401C0190009818B90198B0F5A06F9F
:10052000F1D12948006800F4003010B1012000909A
:1005300001E0002000900098012843D12348006882
:1005400040F01000214908600846006820F00300D0
:1005500008600846006840F0020008601A484068D9
:10056000194948600846406848600846406840F4B9
:10057000806048600846406820F47C104860084667
:10058000406840F4E81048600846006840F0807019
:10059000086000BF0C48006800F000700028F9D027
:1005A0000948406820F00300074948600846406851
:1005B00040F00200486000BF0348406800F00C00B3
:1005C0000828F9D10CBD00000010024000200240B4
:1005D000012001490870704714000020042808D148
:1005E0004FF0E021096941F004014FF0E022116170
:1005F00007E04FF0E021096921F004014FF0E0220B
:10060000116170477047000010B5044601200C4985
:100610000870801FFFF7E2FFE11704EB5171C1F38F
:10062000C701084A11701046007800EB4001C1EB89
:10063000C0104FF6FF7101EAC0000349088010BDE9
:1006400014000020150000201600002010B51348EB
:10065000006840F0010011490860084640681049F0
:1006600008400E494860084600680E4908400B499A
:1006700008600846006820F480200860084640684A
:1006800020F4FE0048604FF41F008860FFF72BFF46
:100690004FF000600449086010BD000000100240E7
:1006A0000000FFF8FFFFF6FE08ED00E010B50121A5
:1006B000054800F027F808B100F092F9012102483E
:1006C00000F00EF810BD00000008004010B500F06A
:1006D000ADF90321014800F003F810BD000C004003
:1006E000CA430282704721B1028842F001020280AF
:1006F00004E002884FF6FE731A40028070470146FC
:10070000888E704730B50246002000230024158AE9
:1007100005EA0103958905EA010413B10CB1012032
:1007200000E0002030BD1AB183890B43838102E0D1
:1007300083898B43838170470A460021018C4FF6E1
:10074000FD73194011430184704781847047000094
:10075000002202881D4B98420ED01D4B98420BD0B0
:10076000B0F1804F08D01B4B984205D01A4B9842ED
:1007700002D01A4B984204D14FF68F731A404B881F
:100780001A43174B984207D0164B984204D04FF6A5
:10079000FF431A40CB881A4302808B8883850B88DD
:1007A00003850A4B98420BD0094B984208D00E4B58
:1007B000984205D00D4B984202D00D4B984201D182
:1007C0000B7A03860123838270470000002C0140CE
:1007D000003401400004004000080040000C0040CC
:1007E000001000400014004000400140004401405F
:1007F0000048014010B540F22551034800F01BF8B5
:1008000008B100F0BDF910BD0038014001F40072DC
:10081000B2F5007F00D100BFCA430280704721B10A
:10082000828942F40052828104E082894DF6FF738E
:100830001A408281704770B50246002400230025CB
:10084000002040F66A16B14200D100BFC1F3421544
:1008500001F01F03012606FA03F3012D02D1968948
:10086000334006E0022D02D1168A334001E0968A19
:1008700033400C12012606FA04F41688344013B1F2
:100880000CB1012000E0002070BDF0B5034600244B
:1008900000260025002040F66A17B94200D100BFAB
:1008A0001846C1F3421401F01F06012707FA06F5A6
:1008B000012C01D10C3004E0022C01D1103000E0F9
:1008C00014301AB107682F43076002E00768AF438E
:1008D0000760F0BD2DE9F04786B005460E460024BE
:1008E000A24600BFA1460027B08900B100BF2F4635
:1008F0002C8A4CF6FF700440F08804432C82AC89AB
:100900004EF6F3100440B0883189084371890843DA
:100910000443AC81AC8A4FF6FF400440B0890443E5
:10092000AC8201A8FFF774FD1F48874202D1DDF8B1
:1009300010A001E0DDF80CA0A88900F4004040B14F
:100940000AEBCA0000EB0A1031684900B0FBF1F86D
:1009500007E00AEBCA0000EB0A1031688900B0FB1F
:10096000F1F86420B8FBF0F004012009642101FBD8
:100970001089A88900F4004040B1322000EBC90082
:10098000B0FBF1F000F00700044308E0322000EB78
:1009900009106421B0FBF1F000F00F0004432C813A
:1009A00006B0BDE8F08700000038014001468888A5
:1009B000C0F30800704700BFFEE7000000200149B7
:1009C00008607047082C004010B500F093F810BD87
:1009D00000F07F01014A116070470000002C0040C8
:1009E00010B501210E48FFF77BFE0E480078A8B134
:1009F0000D480088002811DD0B480088401E0A4978
:100A000008800846008848B9002000F03BF9002023
:100A10000449087000210248FFF765FE10BD000080
:100A200000080040FC000020FE00002010B52E4809
:100A3000007800F08000002854D101212B48FFF7F6
:100A400061FED0B12848007800F04000A8B12648E7
:100A5000007800F03F003F280AD12348007840F09A
:100A60008000214908704FF6FF702149088004E09A
:100A70001D480078401C1C49087002211B48FFF7E4
:100A800041FE78B31848007800F0400078B116486D
:100A9000007840F08000144908701448FFF72FFEDA
:100AA0001349088000211148FFF746FE1AE0002094
:100AB0000D4908700E4908800B48007840F040004E
:100AC0000949087000210948FFF70DFE0021074879
:100AD000FFF73BFE02210548FFF72EFE01210348E8
:100AE000FFF701FE10BD00001C000020000C0040BC
:100AF0001E00002010B57F20FFF76AFFFFF75EFFA2
:100B0000064948680168C968096809B9012100E017
:100B100000210268D268116000BF10BD04010020EE
:100B200010B503490022C868024900F07DF810BDE5
:100B3000D80100209D0C000810B5034900228868E8
:100B4000024900F071F810BDD8010020810D0008A5
:100B500010B5034900224868024900F065F810BD4D
:100B6000D8010020690D000810B50349002208686B
:100B7000024900F059F810BDD8010020850C00088A
:100B800010B51B48FFF712FFC4B21A48008800F4E2
:100B9000004058BB1748008800F4804060B10A2C20
:100BA00003D000201349088020E01248008840F458
:100BB00000401049088019E00D2C06D10D4800882E
:100BC00040F480400B49088010E00A480088C0F3D8
:100BD0000D0009490C5407480088401C054908804D
:100BE00008460088C72801DD0020088010BD0000ED
:100BF000003801401A0000201001002010B5044602
:100C0000204600F0E5F8204600F0C6F810BD10B50B
:100C100004464820FFF7F8FC4FF4A060FFF7CCFB38
:100C2000204600F0C3F810BD70B504460E461546C8
:100C30006068C06800686168097C884201D1284604
:100C4000B04770BD10B504460D480078401C0C49F3
:100C5000087008460078142190FBF1F201FB1200A5
:100C600048B92068C068006808B9012000E0002089
:100C70002168C96808600A2000F070F910BD000002
:100C800018000020044A52F8201001220B68DB688B
:100C90001A6000BF7047000004010020044A52F8A7
:100CA000201000220B68DB681A6000BF704700004C
:100CB0000401002038B504460D4625602068007CFC
:100CC0000E4941F8204003208DF8020010208DF8D5
:100CD000030020680089ADF8000021680868012140
:100CE000FFF786FB216848686946FFF79DFA0120F7
:100CF0002168C9680860204638BD00000401002052
:100D00007FB506460C46154601210420FFF760FB1F
:100D1000ADF80840ADF804500020ADF80A00ADF879
:100D2000060001A90F48FFF713FD012211460D48E7
:100D3000FFF7F9FC01210B48FFF7D2FC1E208DF8CC
:100D4000000002208DF8010003208DF80200012030
:100D50008DF803006846FFF7F7FA00210148FFF716
:100D6000C2FC7FBD00080040044A52F82010002257
:100D70000B68DB681A6000BF7047000000010020AC
:100D8000044A52F8201001220B68DB681A6000BF89
:100D9000704700000001002010B504460249486871
:100DA000FFF750FF10BD00000401002010B50446FD
:100DB0004FF4E13104F1080000F062F841F61F42FF
:100DC00042F20F7104F10900FFF79AFF10BD000015
:100DD00070B505460B48008800F4004088B100F06B
:100DE0002BF80446002C0BDD074804800020FFF799
:100DF00055FF01200549087001210548FFF773FCE4
:100E000000BF70BD1A000020FE000020FC00002082
:100E10000008004010B5044605492046FFF74AFF88
:100E200004460449201DFFF745FF041F204610BD5E
:100E3000340000204800002010B5002100220020CE
:100E40000D4B1B8803F40043A3B10B4B1B88C3F36A
:100E50000D0200BF09E0094B5B5C303B00EB8004F6
:100E600003EB440398B24B1C99B29142F3DB00238D
:100E7000014C238010BD00001A000020100100204A
:100E800030B587B005460C4600202949088001216D
:100E90000420FFF7ADFA01218803FFF7A9FA4FF408
:100EA0000070ADF8180003208DF81A0018208DF896
:100EB0001B0006A91F48FFF7B7F94FF48060ADF893
:100EC000180004208DF81B0006A91A48FFF7ACF99A
:100ED00002940020ADF80C00ADF80E00ADF8100043
:100EE000ADF814000C20ADF8120002A91248FFF76B
:100EF000F1FC01211048FFF792FC40210E48FFF75A
:100F000085FC012240F225510B48FFF7BEFC25204D
:100F10008DF8040003208DF805008DF806000120EF
:100F20008DF8070001A8FFF70FFA07B030BD0000E9
:100F30001A000020000801400038014002E008C803
:100F4000121F08C1002AFAD170477047002001E043
:100F500001C1121F002AFBD17047000070B5054681
:100F60001548007820B94820FFF74EFBFFF730FB0B
:100F70001248008868434FF0E021486100208861F2
:100F80000846006940F00100086100BF4FF0E02012
:100F9000046904F0010018B104F480300028F5D091
:100FA0004FF0E020006920F001004FF0E0210861DF
:100FB0000020886170BD0000140000201600002091
:100FC0000EB56C462046FFF725FF044600BF684675
:100FD000FFF71DFE02E06846FFF710FEFBE700008A
:100FE0000010000800000020100100003C0F000865
:100FF0001011000810010020D80400004C0F000858
:1010000000000000010203040102030406070809AE
:1010100002040608000000000000000000000000BC
:1010200008000000000C014000010000A0812142E6
:101030000000000008000000000C0140200000003B
:10104000948121420000000040000000001801408F
:101050002000000094012342010000004000000035
:1010600000180140100000001001234200000000A1
:101070004000000000180140080000000C0123425D
:1010800000010000400000000018014004000000C2
:101090000801234200020000040000000008014093
:1010A00001000000000121420103000001000000D6
:1010B000000000060203010001000000000801001A
:1010C0000100000004020208020201000400000006
:1010D000000C0100010000000403030902010100EB
:1010E00008000000000C0100010000000404040AD4
:1010F0000200010010000000000C010000000000D0
:1011000000000000000000000000000000000000DF
:0400000508000131BD
:00000001FF
