:020000040800F2
:10000000E005002045010008470300083F03000801
:10001000430300088D010008B70800080000000035
:10002000000000000000000000000000E5040008DF
:100030009101000800000000CD030008050600083B
:10004000E50800085F0100085F0100085F01000883
:100050005F0100085F010008930100085F010008CC
:10006000AB010008C3010008DB0100085F010008C4
:100070005F0100085F0100085F0100085F010008E0
:100080005F0100085F0100085F0100085F010008D0
:100090005F0100085F0100085F0100085F010008C0
:1000A0005F0100085F0100085F0100085F010008B0
:1000B0005F0100085F010008AD0600085F0100084D
:1000C0005F0100085F0100085F0100085F01000890
:1000D0005F010008F50600085F0100085F010008E5
:1000E0005F0100085F0100085F0100085F01000870
:1000F0005F0100085F0100085F0100085F01000860
:100100005F0100085F0100085F0100085F0100084F
:100110005F0100085F0100085F0100085F0100083F
:100120005F0100085F0100085F0100085F0100082F
:10013000DFF80CD000F018F800480047350E000832
:10014000E00500200648804706480047FEE7FEE736
:10015000FEE7FEE7FEE7FEE7FEE7FEE7FEE7FEE777
:100160004D06000831010008064C074D06E0E06826
:1001700040F0010394E8070098471034AC42F6D3EE
:10018000FFF7DAFF540E0008740E000800BFFEE708
:10019000704710B5012000F033F8012801D100F0BC
:1001A000E3FB012000F026F810BD10B5042000F09C
:1001B00027F8012801D100F0E3FB042000F01AF831
:1001C00010BD10B5082000F01BF8012801D100F087
:1001D000E3FB082000F00EF810BD10B5102000F071
:1001E0000FF8012801D100F0E3FB102000F002F825
:1001F00010BD000001490860704700001404014070
:10020000014600200022074B1B6803EA0102054B50
:1002100014331B680B4013B10AB1012000E0002029
:1002200070470000000401402DE9F041024600251E
:100230000026002000230024002791F803C00CF0C2
:100240000F0591F803C00CF0100CBCF1000F03D0A7
:1002500091F802C04CEA050591F800C0BCF1000F0E
:1002600031D0146800202BE04FF0010C0CFA00F3A1
:10027000B1F800C00CEA03069E4220D183004FF083
:100280000F0C0CFA03F7BC4305FA03FC4CEA040418
:1002900091F803C0BCF1280F06D14FF0010C0CFA05
:1002A00000FCC2F814C00AE091F803C0BCF1480F8A
:1002B00005D14FF0010C0CFA00FCC2F810C0401C34
:1002C0000828D1D31460B1F800C0BCF1FF0F34DDB1
:1002D000546800202EE000F1080C4FF0010808FAE5
:1002E0000CF3B1F800C00CEA03069E4221D1830052
:1002F0004FF00F0C0CFA03F7BC4305FA03FC4CEA71
:10030000040491F803C0BCF1280F05D100F1080CDA
:1003100008FA0CF8C2F8148091F803C0BCF1480F39
:1003200007D100F1080C4FF0010808FA0CF8C2F8E8
:100330001080401C0828CED35460BDE8F08100BF77
:10034000FEE700BFFEE7704770B5002100230F22D3
:10035000C47804B3154C246804F4E064C4F5E06484
:10036000210AC1F10403CA40447804FA03F18478F5
:100370001440214309010E4C0678A155047804F07D
:100380001F050124AC4005786D11AD0005F1E02595
:10039000C5F8004109E0047804F01F050124AC40D1
:1003A000044D0678761145F8264070BD0CED00E04E
:1003B00000E400E080E100E002490143024A1160EC
:1003C000704700000000FA050CED00E070470000E7
:1003D00029B1064AD2690243044BDA6104E0034AB8
:1003E000D2698243014BDA6170470000001002407D
:1003F00029B1064A92690243044B9A6104E0034A18
:1004000092698243014B9A617047000000100240DC
:1004100030B500210022002400232D4D6D6805F029
:100420000C0121B1042905D0082923D105E0294D6B
:10043000056022E0274D05601FE0254D6D6805F43D
:100440007012234D6D6805F48034022505EB92424D
:100450001CB9214D554305600BE01D4D6D6805F439
:1004600000351DB11C4D5543056002E0194D554343
:10047000056002E0174D056000BF00BF144D6D68B8
:1004800005F0F0010909154D6B5C0568DD4045601C
:100490000F4D6D6805F4E061090A104D6B5C45680D
:1004A000DD4085600A4D6D6805F46051C90A0B4D49
:1004B0006B5C4568DD40C560054D6D6805F44041E5
:1004C000890B074D6B5CC568B5FBF3F5056130BD65
:1004D0000010024000127A0000093D0000000020D8
:1004E00010000020704710B500F002F810BD0000A9
:1004F0000CB50020019000903348006840F4803033
:100500003149086000BF3048006800F400300090B6
:100510000198401C0190009818B90198B0F5A06F9F
:10052000F1D12948006800F4003010B1012000909A
:1005300001E0002000900098012843D12348006882
:1005400040F01000214908600846006820F00300D0
:1005500008600846006840F0020008601A484068D9
:10056000194948600846406848600846406840F4B9
:10057000806048600846406820F47C104860084667
:10058000406840F4E81048600846006840F0807019
:10059000086000BF0C48006800F000700028F9D027
:1005A0000948406820F00300074948600846406851
:1005B00040F00200486000BF0348406800F00C00B3
:1005C0000828F9D10CBD00000010024000200240B4
:1005D000012001490870704714000020042808D148
:1005E0004FF0E021096941F004014FF0E022116170
:1005F00007E04FF0E021096921F004014FF0E0220B
:10060000116170477047000010B5044601200C4985
:100610000870801FFFF7E2FFE11704EB5171C1F38F
:10062000C701084A11701046007800EB4001C1EB89
:10063000C0104FF6FF7101EAC0000349088010BDE9
:1006400014000020150000201600002010B51348EB
:10065000006840F0010011490860084640681049F0
:1006600008400E494860084600680E4908400B499A
:1006700008600846006820F480200860084640684A
:1006800020F4FE0048604FF41F008860FFF72BFF46
:100690004FF000600449086010BD000000100240E7
:1006A0000000FFF8FFFFF6FE08ED00E010B50121A5
:1006B000054800F00EF808B100F040F901210248A9
:1006C00000F004F810BD000000080040CA43028298
:1006D000704730B50246002000230024158A05EA41
:1006E0000103958905EA010413B10CB1012000E072
:1006F000002030BD10B540F22551034800F01BF832
:1007000008B100F061F910BD0038014001F4007239
:10071000B2F5007F00D100BFCA430280704721B10B
:10072000828942F40052828104E082894DF6FF738F
:100730001A408281704770B50246002400230025CC
:10074000002040F66A16B14200D100BFC1F3421545
:1007500001F01F03012606FA03F3012D02D1968949
:10076000334006E0022D02D1168A334001E0968A1A
:1007700033400C12012606FA04F41688344013B1F3
:100780000CB1012000E0002070BDF0B5034600244C
:1007900000260025002040F66A17B94200D100BFAC
:1007A0001846C1F3421401F01F06012707FA06F5A7
:1007B000012C01D10C3004E0022C01D1103000E0FA
:1007C00014301AB107682F43076002E00768AF438F
:1007D0000760F0BD2DE9F04786B005460E460024BF
:1007E000A24600BFA1460027B08900B100BF2F4636
:1007F0002C8A4CF6FF700440F08804432C82AC89AC
:100800004EF6F3100440B0883189084371890843DB
:100810000443AC81AC8A4FF6FF400440B0890443E6
:10082000AC8201A8FFF7F4FD1F48874202D1DDF832
:1008300010A001E0DDF80CA0A88900F4004040B150
:100840000AEBCA0000EB0A1031684900B0FBF1F86E
:1008500007E00AEBCA0000EB0A1031688900B0FB20
:10086000F1F86420B8FBF0F004012009642101FBD9
:100870001089A88900F4004040B1322000EBC90083
:10088000B0FBF1F000F00700044308E0322000EB79
:1008900009106421B0FBF1F000F00F0004432C813B
:1008A00006B0BDE8F08700000038014001468888A6
:1008B000C0F30800704700BFFEE7000000200149B8
:1008C00008607047082C004040F08001014A116028
:1008D00070470000002C004001200149086070476B
:1008E000A480054210B500F031F810BD00F07F0182
:1008F000014A116070470000002C00400021044AAA
:10090000126822F4C0710143014A1160704700006F
:10091000042C004008B5002100910749096821F026
:100920007F01009100F07F01009A11430091024A7B
:100930000099116008BD0000042C004010B5024968
:10094000086800F0DBF810BDFC00002010B57F2027
:10095000FFF7CCFFFFF7B2FF0249486800F0CEF87E
:1009600010BD0000FC00002010B503490022C8683B
:10097000024900F080F810BDD0010020150B0008DE
:1009800010B5034900228868024900F074F810BDD0
:10099000D0010020910B000810B5034900224868DF
:1009A000024900F068F810BDD0010020790B000862
:1009B00010B5034900220868024900F05CF810BD38
:1009C000D0010020E50A000810B51B48FFF76EFFB4
:1009D000C4B21A48008800F4004058BB1748008889
:1009E00000F4804060B10A2C03D000201349088035
:1009F00020E01248008840F400401049088019E0C7
:100A00000D2C06D10D48008840F480400B49088029
:100A100010E00A480088C0F30D0009490C5407484B
:100A20000088401C0549088008460088C72801DD69
:100A30000020088010BD0000003801401800002090
:100A4000080100200146044A106801220368DB689F
:100A50001A6000BF70470000FC00002010B504467B
:100A60004820FFF7D1FD4FF4A060FFF7A5FC20461A
:100A700000F0E4F810BD70B504460E4615466068F7
:100A8000C06800686168097C884201D12846B04787
:100A900070BD000038B504460D4601202070656029
:100AA0006068407C0E4941F820406068007C012865
:100AB00003D128208DF8030002E048208DF80300C0
:100AC00060680089ADF80000616808680121FFF7DF
:100AD0008FFC616848686946FFF7A6FB204638BD71
:100AE000D0010020044A52F8201001220B68DB6874
:100AF0001A6000BF70470000FC0000200168C96850
:100B0000096809B9012100E000210268D26811607A
:100B100070470000044A52F8201000220B68DB687E
:100B20001A6000BF70470000FC00002038B5044682
:100B30000D4625602068007C0E4941F820400320C6
:100B40008DF8020010208DF8030020680089ADF8B0
:100B50000000216808680121FFF74AFC2168486805
:100B60006946FFF761FB01202168C96808602046DB
:100B700038BD0000FC000020044A52F8201000227A
:100B80000B68DB681A6000BF70470000F8000020A7
:100B9000044A52F8201001220B68DB681A6000BF7B
:100BA00070470000F800002038B504460D46256067
:100BB0002068007C0E4941F8204021680868012126
:100BC000FFF716FC20680089ADF8000010208DF8B2
:100BD000030003208DF80200216848686946FFF78A
:100BE00023FB00202168C9680860204638BD00004A
:100BF000F800002038B504460121C802FFF7E8FBE1
:100C00005F20FFF787FE4FF4C070FFF777FE0020EC
:100C10008DF8000002208DF8010003208DF80200FD
:100C200001208DF803006846FFF78EFB7F20FFF759
:100C30004BFEFFF743FEFFF74FFE38BD10B50446ED
:100C40004FF4E13104F13D0000F054F800BF002002
:100C5000E168C968086000BF4FF4FA7000F0B8F8A6
:100C600004F13C00FFF7C6FF10BD000010B50446BC
:100C7000194904F10C00FFF759FFA0F10C041749C2
:100C800004F11000FFF752FFA0F11004144904F121
:100C90001400FFF7FFFEA0F11404124904F11C0038
:100CA000FFF7F8FEA0F11C040F4904F12400FFF740
:100CB000F1FEA0F124040D4904F12C00FFF7EAFE37
:100CC000A0F12C040A4904F13800FFF76DFFA0F1F0
:100CD0003804204610BD00003000002044000020F1
:100CE000580000206C0000208000002094000020AC
:100CF0001C00002030B587B005460C46002029496D
:100D0000088001210420FFF773FB01218803FFF70E
:100D10006FFB4FF40070ADF8180003208DF81A0037
:100D200018208DF81B0006A91F48FFF77DFA4FF425
:100D30008060ADF8180004208DF81B0006A91A4841
:100D4000FFF772FA02940020ADF80C00ADF80E0027
:100D5000ADF81000ADF814000C20ADF8120002A997
:100D60001248FFF737FD01211048FFF7D8FC40215A
:100D70000E48FFF7CBFC012240F225510B48FFF74C
:100D800004FD25208DF8040003208DF805008DF862
:100D9000060001208DF8070001A8FFF7D5FA07B07B
:100DA00030BD00001800002000080140003801405C
:100DB00002E008C8121F08C1002AFAD17047704724
:100DC000002001E001C1121F002AFBD17047000082
:100DD00070B505461548007820B94820FFF714FC87
:100DE000FFF7F6FB1248008868434FF0E0214861A6
:100DF000002088610846006940F00100086100BFDA
:100E00004FF0E020046904F0010018B104F48030D0
:100E10000028F5D04FF0E020006920F001004FF0ED
:100E2000E02108610020886170BD000014000020EE
:100E30001600002090B06C462046FFF717FF0446CE
:100E400000BF6846FFF70AFE02E06846FFF7FAFDBA
:100E5000FBE70000740E00080000002008010000FD
:100E6000B00D00087C0F000808010020D804000025
:100E7000C00D000800000000010203040102030489
:100E80000607080902040608000000000000000030
:100E900008000000000C014000010000A081214278
:100EA0000000000008000000000C014020000000CD
:100EB0009481214200000000400000000018014021
:100EC00020000000940123420100000040000000C7
:100ED0000018014010000000100123420000000033
:100EE0004000000000180140080000000C012342EF
:100EF0000001000040000000001801400400000054
:100F00000801234200020000040000000008014024
:100F10000100000000012142010300000100000067
:100F200000000006020301000100000000080100AB
:100F30000100000004020208020201000400000097
:100F4000000C01000100000004030309020101007C
:100F500008000000000C0100010000000404040A65
:100F60000200010010000000000C01000000000061
:0C0F700000000000000000000000000075
:0400000508000131BD
:00000001FF
