:020000040800F2
:1000000038040020450100084103000839030008B6
:100010003D0300088D010008E5060008000000000F
:100020000000000000000000000000008503000840
:10003000910100080000000043030008A504000827
:100040005F0100085F0100085F0100085F01000810
:100050005F0100085F0100085F0100085F01000800
:100060005F0100085F0100085F0100085F010008F0
:100070005F0100085F0100085F0100085F010008E0
:100080005F0100085F0100085F0100085F010008D0
:100090005F0100085F0100085F0100085F010008C0
:1000A0005F0100085F0100085F0100085F010008B0
:1000B0005F0100085F0100085F0100085F010008A0
:1000C0005F0100085F0100085F0100085F01000890
:1000D0005F0100085F0100085F0100085F01000880
:1000E0005F0100085F0100085F0100085F01000870
:1000F0005F0100085F0100085F0100085F01000860
:100100005F0100085F0100085F0100085F0100084F
:100110005F0100085F0100085F0100085F0100083F
:100120005F0100085F0100085F0100085F0100082F
:10013000DFF80CD000F018F800480047B1080008BC
:10014000380400200648804706480047FEE7FEE7DF
:10015000FEE7FEE7FEE7FEE7FEE7FEE7FEE7FEE777
:10016000ED04000831010008064C074D06E0E06888
:1001700040F0010394E8070098471034AC42F6D3EE
:10018000FFF7DAFFDC080008FC08000800BFFEE704
:1001900070472DE9F041024600250026002000238B
:1001A0000024002791F803C00CF00F0591F803C05C
:1001B0000CF0100CBCF1000F03D091F802C04CEA17
:1001C000050591F800C0BCF1000F31D01468002083
:1001D0002BE04FF0010C0CFA00F3B1F800C00CEA70
:1001E00003069E4220D183004FF00F0C0CFA03F758
:1001F000BC4305FA03FC4CEA040491F803C0BCF1CB
:10020000280F06D14FF0010C0CFA00FCC2F814C004
:100210000AE091F803C0BCF1480F05D14FF0010C82
:100220000CFA00FCC2F810C0401C0828D1D314609E
:10023000B1F800C0BCF1FF0F34DD546800202EE09F
:1002400000F1080C4FF0010808FA0CF3B1F800C0F7
:100250000CEA03069E4221D183004FF00F0C0CFAEA
:1002600003F7BC4305FA03FC4CEA040491F803C00D
:10027000BCF1280F05D100F1080C08FA0CF8C2F8FF
:10028000148091F803C0BCF1480F07D100F1080CAD
:100290004FF0010808FA0CF8C2F81080401C08283A
:1002A000CED35460BDE8F081F0B50A4600230024A7
:1002B0000021002500F00046B6F1004F02D11D4E8E
:1002C000F16901E01B4E7168C0F3034583B200F48D
:1002D0004016B6F5401F08D121F07061154E7668C2
:1002E00026F07066134F7E6012E000F48016B6F5BB
:1002F000801F06D1032606FA05F4A14341F0706180
:1003000006E0460D360103FA06F6B14341F070618E
:1003100022B1460D360103FA06F6314300F00046DD
:10032000B6F1004F02D1034EF16101E0014E716060
:10033000F0BD00000000014000BFFEE700BFFEE787
:100340007047704729B1064AD2690243044BDA610B
:1003500004E0034AD2698243014BDA61704700002E
:100360000010024029B1064A92690243044B9A6187
:1003700004E0034A92698243014B9A61704700008E
:1003800000100240704710B500F002F810BD0000E8
:100390000CB50020019000903348006840F4803094
:1003A0003149086000BF3048006800F40030009018
:1003B0000198401C0190009818B90198B0F5A06F01
:1003C000F1D12948006800F4003010B101200090FC
:1003D00001E0002000900098012843D123480068E4
:1003E00040F01000214908600846006820F0030032
:1003F00008600846006840F0020008601A4840683B
:10040000194948600846406848600846406840F41A
:10041000806048600846406820F47C1048600846C8
:10042000406840F4E81048600846006840F080707A
:10043000086000BF0C48006800F000700028F9D088
:100440000948406820F003000749486008464068B2
:1004500040F00200486000BF0348406800F00C0014
:100460000828F9D10CBD0000001002400020024015
:10047000012001490870704700000020042808D1BD
:100480004FF0E021096941F004014FF0E0221161D1
:1004900007E04FF0E021096921F004014FF0E0226C
:1004A000116170477047000010B5044601200C49E7
:1004B0000870801FFFF7E2FFE11704EB5171C1F3F1
:1004C000C701084A11701046007800EB4001C1EBEB
:1004D000C0104FF6FF7101EAC0000349088010BD4B
:1004E00000000020010000200200002010B5134889
:1004F000006840F001001149086008464068104952
:1005000008400E494860084600680E4908400B49FB
:1005100008600846006820F48020086008464068AB
:1005200020F4FE0048604FF41F008860FFF72BFFA7
:100530004FF000600449086010BD00000010024048
:100540000000FFF8FFFFF6FE08ED00E021B1028891
:1005500042F08002028004E002884FF67F731A4066
:100560000280704721B1028842F00102028004E05B
:1005700002884FF6FE731A400280704770B500245F
:1005800000220023058C4FF6EF7635400584028C5F
:100590008388048B48F6FF752C404FF6FF452C40AE
:1005A0000D884FF6FF7606EA05252C434FF6DF75DA
:1005B0002A400D8906EA05152A434D8806EA0515E5
:1005C0002A43154DA84202D0144DA8421DD14FF622
:1005D0007F752A404D894FF6FF7606EA05152A43B6
:1005E0004FF6BF752A408D8806EA05152A434FF657
:1005F000FF352B404FF2FF752B408D8906EA8505AC
:100600002B43CD8906EA85052B4383800483CD885F
:100610000587028470BD0000002C014000340140B9
:100620000A460021018B4FF2FF7319404FF6FF730A
:1006300003EA0223194301837047018770470000D2
:10064000002202881D4B98420ED01D4B98420BD0C1
:10065000B0F1804F08D01B4B984205D01A4B9842FE
:1006600002D01A4B984204D14FF68F731A404B8830
:100670001A43174B984207D0164B984204D04FF6B6
:10068000FF431A40CB881A4302808B8883850B88EE
:1006900003850A4B98420BD0094B984208D00E4B69
:1006A000984205D00D4B984202D00D4B984201D193
:1006B0000B7A03860123838270470000002C0140DF
:1006C000003401400004004000080040000C0040DD
:1006D0000010004000140040004001400044014070
:1006E0000048014000BFFEE738B504460D462560CE
:1006F0002068007C0E4941F8204003208DF802005C
:1007000010208DF8030020680089ADF800002168F2
:1007100008680121FFF726FE216848686946FFF74F
:1007200038FD01202168C9680860204638BD0000F6
:100730002C00002010B504461148007860B911481B
:100740000088401C0F49088008460088A0420ED14E
:1007500001200B4908700AE00A480088401E094938
:1007600008800846008810B900200549087005482F
:1007700001880548FFF761FF0A2000F067F810BD07
:1007800036000020340000200004004070B588B01E
:1007900006460C46154601210820FFF7E3FD01211E
:1007A0000220FFF7CFFD01210846FFF7DBFD2020E7
:1007B000ADF8000003208DF8020018208DF803002A
:1007C00069461748FFF7E5FC01211648FFF76CFD65
:1007D000ADF81840ADF814500020ADF81A00ADF88F
:1007E000160005A91048FFF72BFF6020ADF80400A4
:1007F0000220ADF80C000120ADF8060001A90A485E
:10080000FFF7BCFE08210848FFF70AFF0121064850
:10081000FFF79CFE01210448FFF7A4FE08B070BD5D
:10082000000C014000081A000004004002E008C863
:10083000121F08C1002AFAD170477047002001E05A
:1008400001C1121F002AFBD17047000070B5054698
:100850001548007820B94820FFF726FEFFF708FE6C
:100860001248008868434FF0E02148610020886109
:100870000846006940F00100086100BF4FF0E02029
:10088000046904F0010018B104F480300028F5D0A8
:100890004FF0E020006920F001004FF0E0210861F6
:1008A0000020886170BD00000000002002000020D0
:1008B0001CB54820FFF7F8FD074901A8FFF714FF12
:1008C00047224FF4FA716846FFF760FF03E04FF4E8
:1008D0009670FFF72FFFFAE704000020FC080008DD
:1008E00000000020380000002C080008340900082F
:1008F00038000020000400003C0800080000000050
:1009000008000000000C01402000000094812142FA
:10091000000000004000000000180140200000001E
:1009200094012342010000000000000000000000CC
:0409300000000000C3
:0400000508000131BD
:00000001FF
