:020000040800F2
:10000000A004002045010008B1020008A902000870
:10001000AD0200088D0100089D04000800000000EA
:10002000000000000000000000000000D5020008F1
:100030009101000800000000B3020008F503000869
:100040005F0100085F0100085F0100085F01000810
:100050005F0100085F0100085F0100085F01000800
:100060005F0100085F0100085F0100085F010008F0
:100070005F0100085F0100085F0100085F010008E0
:100080005F0100085F0100085F0100085F010008D0
:100090005F0100085F0100085F0100085F010008C0
:1000A0005F0100085F0100085F0100085F010008B0
:1000B0005F0100085F0100085F0100085F010008A0
:1000C0005F0100085F0100085F0100085F01000890
:1000D0005F0100085F0100085F0100085F01000880
:1000E0005F0100085F0100085F0100085F01000870
:1000F0005F0100085F0100085F0100085F01000860
:100100005F0100085F0100085F0100085F0100084F
:100110005F0100085F0100085F0100085F0100083F
:100120005F0100085F0100085F0100085F0100082F
:10013000DFF80CD000F018F800480047F906000876
:10014000A00400200648804706480047FEE7FEE777
:10015000FEE7FEE7FEE7FEE7FEE7FEE7FEE7FEE777
:100160003D04000831010008064C074D06E0E06838
:1001700040F0010394E8070098471034AC42F6D3EE
:10018000FFF7DAFF98070008B807000800BFFEE78E
:1001900070472DE9F041024600250026002000238B
:1001A0000024002791F803C00CF00F0591F803C05C
:1001B0000CF0100CBCF1000F03D091F802C04CEA17
:1001C000050591F800C0BCF1000F31D01468002083
:1001D0002BE04FF0010C0CFA00F3B1F800C00CEA70
:1001E00003069E4220D183004FF00F0C0CFA03F758
:1001F000BC4305FA03FC4CEA040491F803C0BCF1CB
:10020000280F06D14FF0010C0CFA00FCC2F814C004
:100210000AE091F803C0BCF1480F05D14FF0010C82
:100220000CFA00FCC2F810C0401C0828D1D314609E
:10023000B1F800C0BCF1FF0F34DD546800202EE09F
:1002400000F1080C4FF0010808FA0CF3B1F800C0F7
:100250000CEA03069E4221D183004FF00F0C0CFAEA
:1002600003F7BC4305FA03FC4CEA040491F803C00D
:10027000BCF1280F05D100F1080C08FA0CF8C2F8FF
:10028000148091F803C0BCF1480F07D100F1080CAD
:100290004FF0010808FA0CF8C2F81080401C08283A
:1002A000CED35460BDE8F08100BFFEE700BFFEE79B
:1002B0007047704729B1064A92690243044B9A611C
:1002C00004E0034A92698243014B9A61704700003F
:1002D00000100240704710B500F002F810BD000099
:1002E0000CB50020019000903348006840F4803045
:1002F0003149086000BF3048006800F400300090C9
:100300000198401C0190009818B90198B0F5A06FB1
:10031000F1D12948006800F4003010B101200090AC
:1003200001E0002000900098012843D12348006894
:1003300040F01000214908600846006820F00300E2
:1003400008600846006840F0020008601A484068EB
:10035000194948600846406848600846406840F4CB
:10036000806048600846406820F47C104860084679
:10037000406840F4E81048600846006840F080702B
:10038000086000BF0C48006800F000700028F9D039
:100390000948406820F00300074948600846406863
:1003A00040F00200486000BF0348406800F00C00C5
:1003B0000828F9D10CBD00000010024000200240C6
:1003C000012001490870704700000020042808D16E
:1003D0004FF0E021096941F004014FF0E022116182
:1003E00007E04FF0E021096921F004014FF0E0221D
:1003F000116170477047000010B5044601200C4998
:100400000870801FFFF7E2FFE11704EB5171C1F3A1
:10041000C701084A11701046007800EB4001C1EB9B
:10042000C0104FF6FF7101EAC0000349088010BDFB
:1004300000000020010000200200002010B5134839
:10044000006840F001001149086008464068104902
:1004500008400E494860084600680E4908400B49AC
:1004600008600846006820F480200860084640685C
:1004700020F4FE0048604FF41F008860FFF72BFF58
:100480004FF000600449086010BD000000100240F9
:100490000000FFF8FFFFF6FE08ED00E000BFFEE7FA
:1004A0002DE9F04104460D4617461E460DB90120C0
:1004B0002070207801280ED16068C06800686168EB
:1004C000097C884207D10A2000F0E4F8002020705F
:1004D0003046B8470EE0207860B96068C0680068B0
:1004E0006168097C09B9012100E00021884201D13D
:1004F00001202070BDE8F08138B504460D4601208A
:10050000207065606068007C012803D128208DF888
:10051000030002E048208DF8030060680089ADF810
:100520000000616808680121FFF7C4FE616848683F
:100530006946FFF72EFE204638BD000010B5044680
:100540000D480078401C0C490870084600781421BA
:1005500090FBF1F201FB120048B92068C068006806
:1005600008B9012000E000202168C96808600A205D
:1005700000F090F810BD00009C000020044A52F8E2
:10058000201001220B68DB681A6000BF7047000072
:1005900094000020044A52F8201000220B68DB6807
:1005A0001A6000BF704700009400002038B5044670
:1005B0000D4625602068007C0E4941F8204003204C
:1005C0008DF8020010208DF8030020680089ADF836
:1005D0000000216808680121FFF76CFE2168486867
:1005E0006946FFF7D6FD01202168C96808602046EA
:1005F00038BD000094000020044A52F82010002268
:100600000B68DB681A6000BF704700009000002094
:10061000044A52F8201001220B68DB681A6000BF00
:10062000704700009000002038B504460D46256054
:100630002068007C0E4941F82040216808680121AB
:10064000FFF738FE20680089ADF8000010208DF813
:10065000030003208DF80200216848686946FFF70F
:1006600098FD00202168C9680860204638BD000058
:100670009000002002E008C8121F08C1002AFAD129
:1006800070477047002001E001C1121F002AFBD112
:100690007047000070B505461548007820B948201D
:1006A000FFF7AAFEFFF78CFE1248008868434FF060
:1006B000E0214861002088610846006940F001009F
:1006C000086100BF4FF0E020046904F0010018B198
:1006D00004F480300028F5D04FF0E020006920F0CD
:1006E00001004FF0E02108610020886170BD00002A
:1006F00000000020020000208CB01C490BA8FFF76E
:1007000093FF1B490AA8FFF751FF1A4909A8FFF7F1
:100710004DFF194907A8FFF7EFFE184905A8FFF795
:10072000EBFE174903A8FFF7E7FE164901A8FFF7FC
:10073000E3FE1AE00023144A012107A8FFF7B0FEE8
:100740000023124A012105A8FFF7AAFE0023104A40
:10075000012103A8FFF7A4FE00230E4A012101A8EE
:10076000FFF79EFE09A8FFF7E9FEE3E7040000207B
:10077000180000202C000020400000205400002021
:10078000680000207C000020950500087D05000819
:1007900011060008F9050008B8070008000000204D
:1007A000A00000007406000858080008A0000020FF
:1007B000000400008406000800000000080000009B
:1007C000000C014000010000A08121420000000057
:1007D00008000000000C014020000000948121422C
:1007E0000000000040000000001801402000000050
:1007F0009401234201000000400000000018014065
:100800001000000010012342000000004000000022
:1008100000180140080000000C0123420001000004
:1008200040000000001801400400000008012342BD
:100830000002000004000000000801400100000068
:100840000001214201030000000000000000000040
:080850000000000000000000A0
:0400000508000131BD
:00000001FF
