:020000040800F2
:100000007804002045010008650400085D0400082C
:10001000610400088D01000891080008000000003C
:100020000000000000000000000000003105000892
:100030009101000800000000ED04000851060008CE
:100040005F0100085F0100085F0100085F01000810
:100050005F0100085F010008930100085F010008CC
:100060005F0100085F0100085F0100085F010008F0
:100070005F0100085F0100085F0100085F010008E0
:100080005F0100085F0100085F0100085F010008D0
:100090005F0100085F0100085F0100085F010008C0
:1000A0005F0100085F0100085F0100085F010008B0
:1000B0005F0100085F0100085F0100085F010008A0
:1000C0005F0100085F0100085F0100085F01000890
:1000D0005F0100085F0100085F0100085F01000880
:1000E0005F0100085F0100085F0100085F01000870
:1000F0005F0100085F0100085F0100085F01000860
:100100005F0100085F0100085F0100085F0100084F
:100110005F0100085F0100085F0100085F0100083F
:100120005F0100085F0100085F0100085F0100082F
:10013000DFF80CD000F018F800480047E90C000880
:10014000780400200648804706480047FEE7FEE79F
:10015000FEE7FEE7FEE7FEE7FEE7FEE7FEE7FEE777
:100160009906000831010008064C074D06E0E068DA
:1001700040F0010394E8070098471034AC42F6D3EE
:10018000FFF7DAFF080D0008280D000800BFFEE7A2
:10019000704710B5012000F00FF8012801D100F0E0
:1001A00079FB012000F002F810BD00000149086051
:1001B0007047000014040140014600200022074B54
:1001C0001B6803EA0102054B14331B680B4013B193
:1001D0000AB1012000E00020704700000004014047
:1001E000002123498279002A3AD00A46126803681E
:1001F0009A430B461A600A1D126803689A430B1D46
:100200001A60027911440A6803681A430A60184A9E
:100210000832126803689A43154B08331A601A1D96
:10022000126803689A43124B0C331A604279102A01
:100230000ED11A1F126803681A430D4B08331A6057
:100240001A1D126803681A43094B0C331A600DE03B
:100250000749427911440A6803681A430A6005E0B5
:10026000027911440A6803689A430A6070470000E3
:100270000004014030B500228B071C0F0F2303FA46
:1002800004F20B4B8C1053F824309343084C8D1020
:1002900044F8253023468C1053F824308C07240F63
:1002A00000FA04F42343024C8D1044F8253030BD8D
:1002B000080001402DE9F0410246002500260020FB
:1002C00000230024002791F803C00CF00F0591F8DB
:1002D00003C00CF0100CBCF1000F03D091F802C069
:1002E0004CEA050591F800C0BCF1000F31D014684C
:1002F00000202BE04FF0010C0CFA00F3B1F800C025
:100300000CEA03069E4220D183004FF00F0C0CFA3A
:1003100003F7BC4305FA03FC4CEA040491F803C05C
:10032000BCF1280F06D14FF0010C0CFA00FCC2F80A
:1003300014C00AE091F803C0BCF1480F05D14FF09A
:10034000010C0CFA00FCC2F810C0401C0828D1D3E4
:100350001460B1F800C0BCF1FF0F34DD5468002018
:100360002EE000F1080C4FF0010808FA0CF3B1F888
:1003700000C00CEA03069E4221D183004FF00F0C0F
:100380000CFA03F7BC4305FA03FC4CEA040491F8A9
:1003900003C0BCF1280F05D100F1080C08FA0CF8D5
:1003A000C2F8148091F803C0BCF1480F07D100F1E6
:1003B000080C4FF0010808FA0CF8C2F81080401C35
:1003C0000828CED35460BDE8F0810000F0B50A469D
:1003D000002300240021002500F00046B6F1004F64
:1003E00002D11D4EF16901E01B4E7168C0F3034557
:1003F00083B200F44016B6F5401F08D121F07061B9
:10040000154E766826F07066134F7E6012E000F499
:100410008016B6F5801F06D1032606FA05F4A1431F
:1004200041F0706106E0460D360103FA06F6B1436D
:1004300041F0706122B1460D360103FA06F63143F0
:1004400000F00046B6F1004F02D1034EF16101E029
:10045000014E7160F0BD00000000014000BFFEE7EA
:1004600000BFFEE77047000070B5002100230F2297
:10047000C47804B3154C246804F4E064C4F5E06463
:10048000210AC1F10403CA40447804FA03F18478D4
:100490001440214309010E4C0678A155047804F05C
:1004A0001F050124AC4005786D11AD0005F1E02574
:1004B000C5F8004109E0047804F01F050124AC40B0
:1004C000044D0678761145F8264070BD0CED00E02D
:1004D00000E400E080E100E002490143024A1160CB
:1004E000704700000000FA050CED00E070470000C6
:1004F00029B1064AD2690243044BDA6104E0034A97
:10050000D2698243014BDA6170470000001002405B
:1005100029B1064A92690243044B9A6104E0034AF6
:1005200092698243014B9A617047000000100240BB
:10053000704710B500F002F810BD00000CB50020A7
:10054000019000903348006840F4803031490860E1
:1005500000BF3048006800F4003000900198401C53
:100560000190009818B90198B0F5A06FF1D1294811
:10057000006800F4003010B10120009001E000207C
:1005800000900098012843D12348006840F01000F3
:10059000214908600846006820F00300086008460A
:1005A000006840F0020008601A4840681949486035
:1005B0000846406848600846406840F480604860EB
:1005C0000846406820F47C1048600846406840F4C3
:1005D000E81048600846006840F08070086000BF7E
:1005E0000C48006800F000700028F9D00948406805
:1005F00020F00300074948600846406840F00200C8
:10060000486000BF0348406800F00C000828F9D19A
:100610000CBD0000001002400020024001200149F2
:100620000870704700000020042808D14FF0E02136
:10063000096941F004014FF0E022116107E04FF039
:10064000E021096921F004014FF0E02211617047B7
:100650007047000010B5044601200C490870801F47
:10066000FFF7E2FFE11704EB5171C1F3C701084A3C
:1006700011701046007800EB4001C1EBC0104FF63E
:10068000FF7101EAC0000349088010BD000000208E
:10069000010000200200002010B51348006840F05F
:1006A00001001149086008464068104908400E4999
:1006B0004860084600680E4908400B490860084633
:1006C000006820F4802008600846406820F4FE009E
:1006D00048604FF41F008860FFF72BFF4FF0006069
:1006E0000449086010BD0000001002400000FFF83F
:1006F000FFFFF6FE08ED00E021B1028842F0800223
:10070000028004E002884FF67F731A40028070472F
:1007100021B1028842F00102028004E002884FF613
:10072000FE731A400280704770B500240022002337
:10073000058C4FF6EF7635400584028C8388048B58
:1007400048F6FF752C404FF6FF452C400D884FF6BC
:10075000FF7606EA05252C434FF6DF752A400D8902
:1007600006EA05152A434D8806EA05152A43154D64
:10077000A84202D0144DA8421DD14FF67F752A40E1
:100780004D894FF6FF7606EA05152A434FF6BF75E9
:100790002A408D8806EA05152A434FF6FF352B407F
:1007A0004FF2FF752B408D8906EA85052B43CD89D5
:1007B00006EA85052B4383800483CD880587028460
:1007C00070BD0000002C0140003401400A460021A9
:1007D000018B4FF2FF7319404FF6FF7303EA0223B8
:1007E0001943018370470187704700000022028887
:1007F0001D4B98420ED01D4B98420BD0B0F1804F4C
:1008000008D01B4B984205D01A4B984202D01A4B85
:10081000984204D14FF68F731A404B881A43174BF6
:10082000984207D0164B984204D04FF6FF431A4027
:10083000CB881A4302808B8883850B8803850A4BFB
:1008400098420BD0094B984208D00E4B984205D0E5
:100850000D4B984202D00D4B984201D10B7A038682
:100860000123838270470000002C014000340140C6
:100870000004004000080040000C00400010004050
:100880000014004000400140004401400048014085
:1008900000BFFEE770B50648064DC4686068C068D2
:1008A00000686168097C884200D1A84700BF70BD1C
:1008B000640000200509000870B505460C460121BA
:1008C0002068FFF725FE61792079FFF7D3FCE01D52
:1008D000FFF7CAFD04F10C00FFF782FC70BD10B5F4
:1008E0000446204600F05EF910BD10B504464820CD
:1008F000FFF7B0FE4FF4A060FFF7EEFD204600F0DA
:1009000083F910BD05480078401C0449087008466A
:100910000078032801DD01200870704704000020E2
:1009200038B504460D460120207065606068407C43
:100930000E4941F820406068007C012803D128203E
:100940008DF8030002E048208DF8030060680089FC
:10095000ADF80000616808680121FFF7D9FD616802
:1009600048686946FFF7A6FC204638BD64000020B1
:1009700010B50446104951F8240000F059F86420DD
:1009800000F080F90C4951F8240000F056F864207A
:1009900000F078F9084951F8240000F049F8642083
:1009A00000F070F9044951F8240000F046F84FF4C3
:1009B000FA7000F067F910BD5C00002038B50446FD
:1009C0000D4603208DF8020010208DF803002068EA
:1009D0000089ADF80000216848686946FFF76AFCA5
:1009E00001202168C968086038BD000010B50F49B2
:1009F000086800F01DF8502000F044F90B49086821
:100A000000F01BF84FF4667000F03CF907494868A5
:100A100000F00EF8502000F035F90449486800F065
:100A20000CF84FF4667000F02DF910BD5C0000204A
:100A300000210268D2681160704701210268D26803
:100A40001160704738B504460D4625602068007C6B
:100A50000E4941F8204003208DF8020010208DF847
:100A6000030020680089ADF80000216808680121B2
:100A7000FFF74EFD216848686946FFF71BFC01201F
:100A80002168C9680860204638BD00005C0000206D
:100A900010B504461148007860B911480088401C20
:100AA0000F49088008460088A0420ED101200B495A
:100AB00008700AE00A480088401E09490880084674
:100AC000008810B9002005490870054801880548CC
:100AD000FFF789FE0A2000F0D5F810BD08000020BD
:100AE000060000200004004008B52020ADF80000FA
:100AF00003208DF8020018208DF803006946024893
:100B0000FFF7D8FB08BD0000000C014070B588B0AD
:100B100006460C46154601210820FFF7F9FC012185
:100B20000220FFF7E5FC01210846FFF7F1FC202039
:100B3000ADF8000003208DF8020018208DF80300A6
:100B400069461548FFF7B6FB01211448FFF73EFC44
:100B5000ADF81840ADF814500020ADF81A00ADF80B
:100B6000160005A90E48FFF741FE6020ADF804000D
:100B70000220ADF80C000120ADF8060001A90848DC
:100B8000FFF7D2FD08210648FFF720FE01210448A7
:100B9000FFF7B2FD08B070BD000C014000081A005C
:100BA0000004004010B5044613480078012804D022
:100BB00002280DD003281BD117E0FFF795FF012174
:100BC0000E48FFF7A5FD4FF49670FFF761FF10E0A8
:100BD00000210A48FFF79CFD094908680949FFF709
:100BE000EDFE0020FFF7C4FE03E0FFF7FFFE00E08C
:100BF00000BF00BF10BD0000040000200004004042
:100C00005C0000200C00002010B5044647224FF481
:100C1000FA7104F11000FFF779FF034904F11100A4
:100C2000FFF74AFE10BD00004800002010B5044642
:100C300009492046FFF706FF04460849201DFFF733
:100C400001FF041F064904F10800FFF769FEA0F147
:100C50000804204610BD00000C00002020000020E9
:100C60003400002002E008C8121F08C1002AFAD18F
:100C700070477047002001E001C1121F002AFBD11C
:100C80007047000070B505461548007820B9482027
:100C9000FFF7E0FCFFF7C2FC1248008868434FF002
:100CA000E0214861002088610846006940F00100A9
:100CB000086100BF4FF0E020046904F0010018B1A2
:100CC00004F480300028F5D04FF0E020006920F0D7
:100CD00001004FF0E02108610020886170BD000034
:100CE000000000200200002086B001AC2046FFF783
:100CF0009DFF044600BF01A8FFF7F7FD02E001A831
:100D0000FFF7EDFDFBE70000280D000800000020C4
:100D100064000000640C00088C0D000864000020D2
:100D200014040000740C0008000000000000000023
:100D30000000000008000000000C0140200000003E
:100D40009481214200000000400000000018014092
:100D50002000000094012342010000000400000074
:100D600000080140010000000001214201030000D1
:100D70000100000000000006020301000100000065
:0C0D80000008010000000000000000005E
:0400000508000131BD
:00000001FF
